:100000000C9424040C9436040C9436040C94AF0F16
:100010000C9486310C9436040C9436040C943604FB
:100020000C9436040C9436040C9436040C944F282B
:100030000C9436040C9436040C9436040C94360458
:100040000C94682A0C9436040C94A5240C94672410
:100050000C9436040C9436040C9436040C94360438
:100060000C9436040C9436044307270F270F4D07D2
:100070005A0767077407270F7807270F8607270F88
:1000800090079A07CB07270F270F270FA407B10761
:10009000BE07EB0DFC0D1B0EFC0D1F0E320E250EC8
:1000A0002B0E470E4D0E5C0E730E970EA10EAD0E6D
:1000B000B70EA61FA91FAE1FB11FB41FB71FBA1FCF
:1000C000BD1FC01FC31FC61FD21FD21FD21FD21FEA
:1000D000D21FD21FD21FD21FCC1FC91FCF1F192062
:1000E0001C201F202220252028202B202E20052701
:1000F0000B270E27112716271E272827942794271A
:100100009427302733273C27452794279427942783
:100110009427942794274D27572763276B276E270B
:10012000772780278627084AD73B3BCE016E84BCC1
:10013000BFFDC12F3D6C74319ABD56833DDA3D0041
:10014000C77F11BED9E4BB4C3E916BAAAABE00008A
:1001500000803F05A84CCDB2D44EB93836A9020C68
:1001600050B9918688083CA6AAAA2ABE0000008041
:100170003F003E0D0A002C4C696D3A002C52583A53
:10018000002C4275663A002C002C57506F733A00D1
:100190002C002C4D506F733A003C446F6F72003C42
:1001A000436865636B003C416C61726D003C486F55
:1001B0006D65003C486F6C64003C52756E003C49B4
:1001C000646C65005D0D0A005B302E396A2E32309A
:1001D0003135303731373A000D0A003D00244E00EA
:1001E0005D0D0A00204600205400204D3800204DAF
:1001F0003900204D3500204D3400204D3300204D76
:100200003200204D3100204D30002047393400208D
:100210004739330020473931002047393000204723
:100220003230002047323100204731390020473139
:10023000380020473137002047004733382E004729
:100240003830004733004732004731004730005B09
:10025000005D0D0A005B544C4F3A005D0D0A002C06
:10026000005B4739323A005D0D0A002C003A00333A
:1002700030003238005B47005D0D0A003A002C0068
:100280005B5052423A00290D0A00206D61782074BB
:10029000726176656C2C206D6D0020616363656C06
:1002A0002C206D6D2F7365635E3200206D617820A8
:1002B000726174652C206D6D2F6D696E002C20733A
:1002C0007465702F6D6D007A007900780020280029
:1002D0003D0024002028686F6D696E672070756C82
:1002E0006C2D6F66662C206D6D290D0A0020286824
:1002F0006F6D696E67206465626F756E63652C2033
:100300006D736563290D0A2432373D002028686F1C
:100310006D696E67207365656B2C206D6D2F6D693F
:100320006E290D0A2432363D002028686F6D696EF3
:100330006720666565642C206D6D2F6D696E290DD3
:100340000A2432353D00290D0A2432343D0020288C
:10035000686F6D696E672064697220696E76657278
:1003600074206D61736B3A002028686F6D696E6749
:10037000206379636C652C20626F6F6C290D0A24F1
:1003800032333D00202868617264206C696D6974A5
:10039000732C20626F6F6C290D0A2432323D0020CD
:1003A00028736F6674206C696D6974732C20626F9A
:1003B0006F6C290D0A2432313D0020287265706F60
:1003C000727420696E636865732C20626F6F6C298C
:1003D0000D0A2432303D00202861726320746F6C56
:1003E0006572616E63652C206D6D290D0A243133B1
:1003F0003D0020286A756E6374696F6E20646576AF
:10040000696174696F6E2C206D6D290D0A2431327B
:100410003D00290D0A2431313D0020287374617498
:100420007573207265706F7274206D61736B3A0022
:10043000202870726F62652070696E20696E766523
:1004400072742C20626F6F6C290D0A2431303D00CC
:1004500020286C696D69742070696E7320696E76EE
:100460006572742C20626F6F6C290D0A24363D0072
:1004700020287374657020656E61626C6520696EFA
:10048000766572742C20626F6F6C290D0A24353DDD
:1004900000290D0A24343D00202864697220706F01
:1004A000727420696E76657274206D61736B3A00A8
:1004B000290D0A24333D0020287374657020706F65
:1004C000727420696E76657274206D61736B3A0088
:1004D0002028737465702069646C652064656C61A4
:1004E000792C206D736563290D0A24323D00202884
:1004F000737465702070756C73652C2075736563FB
:10050000290D0A24313D0024303D00242420287682
:10051000696577204772626C2073657474696E67D1
:1005200073290D0A242320287669657720232070FB
:100530006172616D6574657273290D0A2447202804
:100540007669657720706172736572207374617467
:1005500065290D0A24492028766965772062756926
:100560006C6420696E666F290D0A244E2028766916
:100570006577207374617274757020626C6F636B41
:1005800073290D0A24783D76616C756520287361A6
:100590007665204772626C2073657474696E672992
:1005A0000D0A244E783D6C696E652028736176656E
:1005B000207374617274757020626C6F636B290DA7
:1005C0000A24432028636865636B2067636F646552
:1005D000206D6F6465290D0A245820286B696C6CA6
:1005E00020616C61726D206C6F636B290D0A244869
:1005F000202872756E20686F6D696E67206379635D
:100600006C65290D0A7E20286379636C65207374FC
:10061000617274290D0A2120286665656420686F5F
:100620006C64290D0A3F202863757272656E742010
:10063000737461747573290D0A6374726C2D78205C
:10064000287265736574204772626C290D0A000D6B
:100650000A4772626C20302E396A205B27242720DB
:10066000666F722068656C705D0D0A005D0D0A0092
:10067000526573746F72696E672064656661756C2C
:1006800074730050676D20456E6400436865636B4A
:1006900020446F6F720044697361626C6564004549
:1006A0006E61626C65640043617574696F6E3A20B7
:1006B000556E6C6F636B656400272448277C272484
:1006C000582720746F20756E6C6F636B00526573D2
:1006D000657420746F20636F6E74696E7565005B5E
:1006E000000D0A00486F6D696E67206661696C00D5
:1006F00050726F6265206661696C0041626F72744E
:1007000020647572696E67206379636C6500536F4E
:100710006674206C696D69740048617264206C694C
:100720006D697400414C41524D3A20000D0A004958
:100730006E76616C69642067636F64652049443A32
:1007400000556E646566696E656420666565642043
:100750007261746500556E737570706F7274656444
:1007600020636F6D6D616E64004D6F64616C206716
:10077000726F75702076696F6C6174696F6E004C72
:10078000696E65206F766572666C6F7700486F6D75
:10079000696E67206E6F7420656E61626C656400BF
:1007A000416C61726D206C6F636B004E6F742069D9
:1007B000646C6500454550524F4D20726561642060
:1007C0006661696C2E205573696E67206465666189
:1007D000756C74730056616C7565203C2033207510
:1007E0007365630053657474696E6720646973612F
:1007F000626C65640056616C7565203C2030004970
:100800006E76616C69642073746174656D656E7475
:1008100000426164206E756D62657220666F726D54
:10082000617400457870656374656420636F6D6DF5
:10083000616E64206C6574746572006572726F72AB
:100840003A20006F6B0D0A0011241FBECFEFD8E0D5
:10085000DEBFCDBF26E0A0E0B1E001C01D92AD3CFF
:10086000B207E1F70E9419120C94DF370C940000D4
:10087000439808953B9A0C943804823011F4439ABB
:1008800008950C943804CF93DF931F92CDB7DEB751
:100890009091A005923049F089830E947F1F898141
:1008A0000F90DF91CF910C943D040F90DF91CF9189
:1008B0000895F999FECF92BD81BD81E08FBB80B5CF
:1008C0000895F894F999FECF92BD81BD81E08FBB68
:1008D00040B54627842F992787FD9095262F30E035
:1008E00082239323892B39F06F3F19F060BD84E098
:1008F00006C084E104C0442321F060BD84E28FBBC4
:10090000F99A789408959F92AF92BF92CF92DF9216
:10091000EF92FF920F931F93CF93DF938C017A0195
:100920006B01C40ED51EEB01912C5C01A61AB70A0F
:10093000CE018A0D9B1DCC15DD0591F0911009C0EB
:10094000692D772767FD7095272F221F2227221FE9
:1009500001C021E06991922E960E0E946104E8CFB9
:10096000692DC8018E0D9F1DDF91CF911F910F91B1
:10097000FF90EF90DF90CF90BF90AF909F900C943E
:1009800061049F92AF92BF92CF92DF92EF92FF925B
:100990000F931F93CF93DF938B017A016C01C40EE9
:1009A000D51EEC01912C5B01A81AB90AC5018C0F68
:1009B0009D1FCC15DD0591F00E945904911009C0CE
:1009C000292D332727FD3095232F221F2227221F71
:1009D00001C021E0922E980E8993E8CFC8018E0DB8
:1009E0009F1D0E94590421E030E0981611F020E08C
:1009F00030E0C901DF91CF911F910F91FF90EF90EF
:100A0000DF90CF90BF90AF909F9008958FE3E7E283
:100A1000F5E0DF011D928A95E9F76AE475E080E070
:100A20000E946526811103C087E00C94901F0895F1
:100A300064EA75E08EE395E00C9472332F923F9256
:100A40004F925F926F927F928F929F92AF92BF92DE
:100A5000CF92DF92EF92FF920F931F93CF93DF938A
:100A6000CDB7DEB7AB970FB6F894DEBF0FBECDBFE4
:100A700098A38F8F89E3E6E6F5E0DF011D928A9562
:100A8000E9F78AE0E7E2F5E0A7E6B5E001900D922C
:100A90008A95E1F71D8E212C312CA12CB12C19A2A5
:100AA000512C1E8E66246394712C08E0402E9924EC
:100AB000939485E0882E8D8DEF8DF8A1E80FF11DC0
:100AC0000081002309F48AC29FEB900F9A3110F045
:100AD0000C94190F8F5F8D8FAE01475E5F4FBE0183
:100AE000635E7F4F8F8D98A10E94DA16882311F4E0
:100AF0000C941B0FC98CDA8CEB8CFC8CC701B601F3
:100B00000E9472370E94DA34162F70E080E090E085
:100B10000E9408359B01AC01C701B6010E948C33CD
:100B200020E030E048EC52E40E94A4360E940737EF
:100B30000E94DA34073421F00D3409F450C192C117
:100B4000183209F432C1E8F4143160F4113108F0BC
:100B5000D7C0143009F45AC008F48EC01A30D9F145
:100B60000C94270F1C31B9F128F4163108F4F7C0A2
:100B70000C94270F1E3179F1163209F47DC00C94C4
:100B8000270F1D3309F40BC1A8F4153309F461C014
:100B900040F41B3209F4ECC0113309F4E9C00C94A1
:100BA000270F1C3310F00C94270F165310936D056C
:100BB00089E000C11C3540F41A3508F0B0C010358A
:100BC00009F49BC00C94270F1C3529F01F3508F43D
:100BD000BDC00C94270F6115710531F4BE8DB111A4
:100BE0000C941D0FE1E0EE8F1C3199F038F41430B5
:100BF00069F01A3009F0DBC082E02CC0153349F1EE
:100C00001C3559F11E3109F0D2C013C0909266050F
:100C1000CEC06115710549F06A30710511F00C9470
:100C2000270F24E02093660509C0F3E0F0936605E2
:100C300005C06115710521F48092660580E0BFC092
:100C40006A30710511F00C94270F36E03093660579
:100C5000F5CF87E080936605AAC06115710549F05C
:100C60006A30710511F00C94270F99E09093660596
:100C7000E5CF40926605E2CFAE8DA1110C941D0F19
:100C8000B2E0BE8F123089F028F4112359F01130F0
:100C900081F08FC0163281F0103579F1133009F0F0
:100CA00088C007C01092670584C0EE8DE093670589
:100CB00080C0109367057DC06E317105B1F048F4B6
:100CC0006431710511F00C94270FF4E0F09367057F
:100CD00012C06832710561F06233710511F00C9435
:100CE000270F37E03093670506C08092670503C081
:100CF00026E02093670581E062C04092670559C0F5
:100D0000123129F0133139F010926B0502C0909224
:100D10006B0582E04FC082E080936B054BC061158C
:100D2000710549F41A3519F410926A0502C09092BF
:100D30006A0583E044C06A30710511F00C94270FF6
:100D40001A3511F40C94270F84E039C01D3519F4BD
:100D50009092680502C01092680585E02BC014319E
:100D600019F49092690502C01092690586E022C0CC
:100D70008E8D81110C941D0F113331F410926C057E
:100D800088E093E09E8F1BC06A30710511F00C94CF
:100D9000270F90926C0588E0A3E0AE8F10C0672B00
:100DA00011F00C94270F8AE00AC087E003C080E0AE
:100DB00001C081E0672B19F087E10C943A0FF30131
:100DC00002C0EE0FFF1F8A95E2F7CF019F012A2193
:100DD0003B21232B09F443C085E10C943A0F672B88
:100DE00059F7163018F4133058F017C0183010F4B3
:100DF0000C94270F1A3000F11E3159F00C94270F74
:100E0000123039F01E3129F0111120C090926E0578
:100E10001DC082E080936E0519C0143029F0153092
:100E200039F09092700506C082E08093700502C090
:100E3000109270058CE00BC0193021F082E0809395
:100E40006F0502C010926F058DE001C08BE0930129
:100E500002C0220F331F8A95E2F7C901B8CFA82A32
:100E6000B92A29CE802F992787FD9095A92FB92FD0
:100E7000FC01E654F109E531F10508F0E8C7EC5C46
:100E8000FF4F0C94BF37C0927105D0927205E0926B
:100E90007305F092740580E07FC0C0927505D09212
:100EA0007605E0927705F092780539A1316039A393
:100EB00081E072C0C0927905D0927A05E0927B05FC
:100EC000F0927C0589A1826089A382E065C0C0920E
:100ED0007D05D0927E05E0927F05F092800599A174
:100EE000946099A383E058C01093810584E054C0B6
:100EF000C701B6010E94D5346093820570938305C3
:100F0000809384059093850585E046C0C092860550
:100F1000D0928705E0928805F092890586E03CC072
:100F2000C0928A05D0928B05E0928C05F0928D05D7
:100F300087E032C0C0928E05D0928F05E092900576
:100F4000F092910588E028C0C0929305D092940554
:100F5000E0929505F0929605A52DA1605A2E8AE0A3
:100F60001BC0C0929705D0929805E0929905F09227
:100F70009A05B52DB2605B2E8BE00EC0C0929B052A
:100F8000D0929C05E0929D05F0929E05E52DE460CF
:100F90005E2E8CE001C089E08301082E02C0000FA4
:100FA000111F0A94E2F7980122213321232B09F023
:100FB00046C721E633E002C0359527958A95E2F7CA
:100FC00020FF09C020E030E0A901C701B6010E945E
:100FD000663487FD36C7202A312A6DCD552029F089
:100FE0003E8D311102C082E08E8F25FE0EC08091B1
:100FF000820590918305A0918405B0918505803884
:101000009649A849B1050CF01EC78091680581304A
:1010100031F4FE8DF230A1F520FE1FC731C0809162
:10102000280581112DC020FE1BC0809169058130EB
:1010300039F523E333E34BEC51E460917105709192
:10104000720580917305909174050E94A436609397
:10105000710570937205809373059093740510C0A9
:101060008091350590913605A0913705B0913805EE
:101070008093710590937205A0937305B0937405E6
:1010800030FC10C08091310590913205A09133055C
:10109000B091340580938E0590938F05A0939005B1
:1010A000B093910580916605813031F426FC02C031
:1010B0008CE1E0C6E89426F880916B05882341F026
:1010C000813061F019A682E088A791E09FA30BC050
:1010D00022E029A731E038A71FA205C0A1E0A9A7F7
:1010E00018A6B2E0BFA380916905813021F0EE8D92
:1010F000E33091F52AC0B3E9EB2EB5E0FB2E00E01A
:1011000010E0C52CD12CC601002E02C09595879504
:101110000A94E2F780FF10C023E333E34BEC51E481
:10112000D7016D917D918D919C910E94A436F7011C
:1011300060837183828393830F5F1F4FF4E0EF0E10
:10114000F11C03301105F9F6D2CF80916C05813086
:1011500019F424E0521279C68CE0EAE4F5E0DE01ED
:101160001D9601900D928A95E1F7B1FC09C030916E
:1011700066053F8F3230B9F0383009F4B0C015C180
:1011800080916D05873010F08DE174C690912D052A
:10119000981769F3BE01635F7F4F0E94652688231D
:1011A00009F465C6E4CF511002C08AE163C6C101EB
:1011B00080759927892B09F47BCF60918605709102
:1011C000870580918805909189050E9472370E9459
:1011D000DA346730C8F680918105843129F0823095
:1011E00009F035C627FC33C68FEA2822662319F09A
:1011F00061506F8F03C090916D059F8FBE016F5F2F
:101200007F4F8F8D0E946526882309F430C6409059
:1012100081056090620570906305809064059090F0
:101220006505DE0111967D01F3E9CF2EF5E0DF2E95
:10123000AEE3AA2EA5E0BA2E00E010E0E52DF0E026
:10124000FEA3EDA38DA19EA1002E02C095958795CA
:101250000A94E2F780FF33C0F4E14F1226C0D501B3
:1012600058962D913D914D915C915B976D917D913B
:101270008D919C910E948C33F601208131814281B5
:1012800053810E948C33D7016D937D938D939C93F2
:1012900013970230A1F4A40193010E948C33F7014B
:1012A00060837183828393830AC0F6018081918178
:1012B000A281B381F70180839183A283B3830F5FFF
:1012C0001F4FF4E0EF0EF11C24E0C20ED11C34E0FD
:1012D000A30EB11C0330110509F0B4CF0FC1552086
:1012E00009F463CF60906205709063058090640597
:1012F0009090650503E915E0EEE3CE2EE5E0DE2EE5
:101300005E018DE0A80EB11CE12CF12CA52DB0E002
:10131000B8A3AF8F8F8D98A10E2C02C0959587959D
:101320000A94E2F780FF26C0F501208131814281D5
:101330005381D6016D917D918D919C910E948C334A
:10134000F80120813181428153810E948C33D80180
:101350006D937D938D939C931397B2E0EB1214C021
:10136000A40193010E948C33F8016083718382830E
:1013700093830AC0F601808D918DA28DB38DF80103
:1013800080839183A283B383FFEFEF1AFF0A0C5F80
:101390001F4F24E0C20ED11C34E0A30EB11C83E029
:1013A000E816F10409F0B6CFA8C09E8D933059F429
:1013B000AF8DA53009F48FC0A73009F499C0A330D0
:1013C00009F09BC080C0552099F340906A05809039
:1013D000620590906305A0906405B09065057EE37A
:1013E000C72E75E0D72E03E915E03E01BDE06B0E78
:1013F000711CE12CF12CE52DF0E0FEA3EDA38DA1F5
:101400009EA10E2C02C0959587950A94E2F780FD67
:101410000BC0F60180819181A281B381F8018083A4
:101420009183A283B3833EC0FF8DF730D9F1411081
:1014300028C0D60158962D913D914D915C915B97B6
:10144000F30160817181828193810E948D33D80183
:101450002D913D914D915C910E948D33F8016083F7
:10146000718382839383F2E0EF121CC0A501940183
:101470000E948D33D8016D937D938D939C93139728
:1014800011C0F6012081318142815381D8016D91D3
:101490007D918D919C910E948D33F80160837183C1
:1014A00082839383FFEFEF1AFF0A24E0C20ED11C60
:1014B0000C5F1F4F34E0630E711C83E0E816F104EB
:1014C00009F09DCF75CF511001C01E8EBE016F5F18
:1014D0007F4F86E007C0511001C01E8EBE016F5FB6
:1014E0007F4F87E00E946526882309F4C0C405C0A9
:1014F00080916705823008F0ACC41F8E109167059B
:10150000183041F4552009F4B3C19E8D913009F093
:10151000A2C48BC2AE8DA23009F0AAC11123D9F0AA
:1015200020E030E0A9016091710570917205809111
:101530007305909174050E946634882309F48DC464
:10154000143028F4123058F4113029F06EC21830DB
:1015500008F44DC16AC2511068C21E8E8CC155205C
:1015600009F423CEFFA1EF2FF0E0FEA3EDA338A5F1
:10157000232F30E03BA72AA781E090E03C0108A49C
:1015800002C0660C771C0A94E2F70FA002C0880F15
:10159000991F0A94E2F7682A792A852D90E086211E
:1015A0009721892B09F45BC4CF01880F991F880FFD
:1015B000991FFC01EA59FA4FDC01A95DBA4F579611
:1015C0002D913D914D915C915A9765A576A587A582
:1015D00090A90E948C336B017C018AA59BA5880F82
:1015E000991F880F991FFC01EA59FA4FDC01A95D88
:1015F000BA4F57962D913D914D915C915A9765A5A3
:1016000076A587A590A90E948C334B015C0127FE2B
:1016100040C0E89427F820919305309194054091BB
:1016200095055091960560913E0570913F0580911A
:101630004005909141050E946634811120C120919E
:101640009705309198054091990550919A056091C0
:1016500042057091430580914405909145050E9493
:10166000663481110CC120919B0530919C054091FD
:101670009D0550919E0560914605709147058091AA
:101680004805909149050E9466348111F8C081E2B5
:10169000F1C3F9A14F2E512C64207520672809F45D
:1016A000E0C321EF222280916905813009F45AC0FC
:1016B0000AA51BA5000F111F000F111F06591A4F75
:1016C000D8011B962D913D914D915C911E97C501BE
:1016D000B4010E948C332B013C01ADA0BEA0AA0C2A
:1016E000BB1CAA0CBB1CF501E659FA4F5F01238510
:1016F000348545855685C701B6010E948C33A30108
:1017000092010E9497176B017C01D8011B962D91C5
:101710003D914D915C911E97F5016385748585859A
:1017200096850E9497174B015C0160938A05709320
:101730008B0580938C0590938D059B01AC01C701AF
:10174000B6010E948C336B017C01E894F7F82AE023
:1017500037ED43EA5BE3C701B6010E94693618160C
:101760004CF163C185E7682E85E0782E00E010E03B
:10177000C201002E02C0959587950A94E2F780FF7A
:1017800010C023E333E34BEC51E4D3016D917D9121
:101790008D919C910E94A436F301608371838283B2
:1017A00093830F5F1F4FF4E06F0E711C0330110520
:1017B000F9F67ECF20E030E040E05FE3C701B601FC
:1017C0000E94693618160CF462CF2FE632E143E826
:1017D0005AE3C501B4010E94A4369B01AC01C701C4
:1017E000B6010E94693618160CF451CF1EC155205F
:1017F00009F4DBCC20919305309194054091950537
:101800005091960560913E0570913F05809140058D
:10181000909141050E946634811107C1209197057E
:10182000309198054091990550919A056091420533
:101830007091430580914405909145050E9466345E
:101840008111F3C020919B0530919C0540919D052D
:1018500050919E056091460570914705809148051D
:10186000909149050E946634882309F410CFDDC0A9
:101870002E8D2111DAC0C1018E7D9C7FD9C080914F
:1018800069058130B1F423E333E34BEC51E460911B
:101890008A0570918B0580918C0590918D050E9431
:1018A000A43660938A0570938B0580938C05909382
:1018B0008D0540908A0550908B0560908C05709046
:1018C0008D0520E030E040E850E4C301B2010E9401
:1018D000A436A30192010E94A4362B013C01A7016A
:1018E0009601C701B6010E94A4369B01AC01C30159
:1018F000B2010E948C332B013C01A5019401C5016A
:10190000B4010E94A4369B01AC01C301B2010E9444
:101910008C332B013C0120E030E0A9010E946634A9
:1019200087FDA7C2C301B2010E9431372B013C01E0
:10193000A5019401C701B6010E9497179B01AC0154
:10194000C301B20190580E946D342B013C0180917B
:101950006705833021F477FA709477F8709480915A
:101960008A0590918B05A0918C05B0918D0589A376
:101970009AA3ABA3BCA320E030E0A901BC01CD0138
:101980000E94663487FF11C077FA709477F87094DC
:1019900089A19AA1ABA1BCA1B05880938A0590936C
:1019A0008B05A0938C05B0938D050DA11EA1000F92
:1019B000111F000F111F06591A4FA3019201C501F3
:1019C000B4010E94A4369B01AC01C701B6010E947C
:1019D0008C3320E030E040E05FE30E94A436D80181
:1019E0001B966D937D938D939C931E970AA51BA5C3
:1019F000000F111F000F111F06591A4FA30192016A
:101A0000C701B6010E94A4369B01AC01C501B40117
:101A10000E948D3320E030E040E05FE30E94A43676
:101A2000F8016387748785879687C1018E7D907ED4
:101A3000892B09F018C28091820590918305A091AD
:101A40008405B091850580933A0590933B05A0935A
:101A50003C05B0933D0580916805809328058091F1
:101A6000710590917205A0917305B09174058093F2
:101A7000350590933605A0933705B0933805C0908F
:101A80008E05D0908F05E0909005F0909105A7010C
:101A900096016091310570913205809133059091E6
:101AA00034050E9466348823C1F080913005882374
:101AB00021F0B701A6010E94DC2780918E0590914C
:101AC0008F05A0919005B091910580933105909379
:101AD0003205A0933305B09334058091920580932D
:101AE00039058091700590913005981771F04091FB
:101AF00031055091320560913305709134050E9493
:101B0000DC27809170058093300580916F0590915E
:101B10002F05981731F00E94430480916F05809340
:101B20002F0580916605813051F460918605709192
:101B3000870580918805909189050E949F15809165
:101B40006B0580932B0580916905809329053E8D57
:101B50003330F9F480916C0580932C05813089F441
:101B600080919B0590919C05A0919D05B0919E054B
:101B70008093620590936305A0936405B093650517
:101B800008C01092620510926305109264051092CD
:101B9000650580916D0590912D05981759F08093FA
:101BA0002D058CE0FE013D96AAE4B5E001900D9272
:101BB0008A95E1F780916A0580932A0580916605F0
:101BC00090E0FC013297E830F10508F04BC0E75B8C
:101BD000FF4F0C94BF37BE016F5F7F4F8F8D0E9408
:101BE000182580912D059F8D89133CC08CE0FE0146
:101BF0003196AAE4B5E01AC0AE8DAA2349F020E0E0
:101C000040E050E060E87FEB83E995E00E945212EB
:101C100020E040E050E060E87FEBCE0101960E94BA
:101C200052128CE0FE013196AEE3B5E001900D92C8
:101C30008A95E1F717C06EE375E086E003C06EE3B6
:101C400075E087E00E9418250DC08CE0E3E9F5E01F
:101C5000A6E5B5E0EBCF8CE0E6E5F5E0DF011D920F
:101C60008A95E9F78091670580932705883009F404
:101C700098C0BE8DB23009F094C090E088309105D4
:101C800008F086C0FC01EF5AFF4F0C94BF3720E0EC
:101C900040E050E060E87FEB0AC04091350550918C
:101CA000360560913705709138052091280583E944
:101CB00095E00E9452126CC0C0903505D090360558
:101CC000E0903705F090380500918A0510918B055A
:101CD00020918C0530918D0581E08F93E9A5EF93DC
:101CE000F8A5FF9315C0C0903505D0903605E0905B
:101CF0003705F090380500918A0510918B052091E9
:101D00008C0530918D051F9289A58F9398A59F937F
:101D10008FA0A090280545E755E063E975E08EE3C4
:101D200095E00E94A0120F900F900F9031C040914B
:101D30003505509136056091370570913805E12CD5
:101D40000AC0409135055091360560913705709174
:101D50003805EE24E39400E015C04091350550911C
:101D600036056091370570913805E12C0AC0409125
:101D70003505509136056091370570913805EE2490
:101D8000E39401E02091280583E995E00E94111673
:101D90008CE0E3E9F5E0AEE3B5E001900D928A95C1
:101DA000E1F780916E0580932E05882309F45DC0CC
:101DB0000E947F1F90912E058091A005913069F4BB
:101DC0008230A1F19FB7F8948091A205886080933A
:101DD000A2059FBF0E94D21D29C091E090932705C4
:101DE00010922B0510922A051092280510922D05AD
:101DF0001092300510922F058230A9F0BE01635F6A
:101E00007F4F80E00E946526882389F18CE0FE01E7
:101E10003D96AAE4B5E001900D928A95E1F70E9403
:101E2000CB270E94380487E00E94082010922E05DC
:101E30001CC081E01FC082E01DC088E11BC089E199
:101E400019C084E017C08BE115C085E213C084E19E
:101E500011C08EE10FC08FE10DC086E10BC080E2A2
:101E600009C083E207C084E205C080E003C087E0C8
:101E700001C082E2AB960FB6F894DEBF0FBECDBFB5
:101E8000DF91CF911F910F91FF90EF90DF90CF9056
:101E9000BF90AF909F908F907F906F905F904F908A
:101EA0003F902F900895EBE6F0E08081817F808362
:101EB000E8E6F0E080818E7F8083089584B1817FA1
:101EC00084B985B18E6085B98091BD0683FF0BC052
:101ED00080916B008E6080936B00809168008160C0
:101EE0008093680008950C94530FCF92DF92FF9275
:101EF0000F931F93CF93DF931F92CDB7DEB793B1AC
:101F00009E708091BD0686FD02C08EE098279923C1
:101F1000D9F0C12CD12CF12C01E010E08C2D99834B
:101F20000E94C1279981892339F098010C2C01C0A6
:101F3000220F0A94EAF7F22A8FEFC81AD80AE3E0D0
:101F4000CE16D10459F701C0F12C8F2D0F90DF91DF
:101F5000CF911F910F91FF90DF90CF9008951F9226
:101F60000F920FB60F9211242F933F934F935F93CD
:101F70006F937F938F939F93AF93BF93EF93FF9351
:101F80008091A005813071F08091A30581110AC074
:101F90000E94AF169FB7F8948091A3058360809349
:101FA000A3059FBFFF91EF91BF91AF919F918F913B
:101FB0007F916F915F914F913F912F910F900FBE45
:101FC0000F901F9018952F923F924F925F926F92B1
:101FD0007F928F929F92AF92BF92CF92DF92EF92B9
:101FE000FF920F931F93CF93DF93CDB7DEB7679721
:101FF0000FB6F894DEBF0FBECDBF582E80919F055F
:102000008111A1C124EAA22E26E0B22E9E01235FF7
:102010003F4F190100E010E0C12CD12C7601652C56
:10202000712C802F0E94AD27D1018D931D01C3011A
:10203000002E02C0959587950A94E2F780FF1AC09A
:1020400020E030E040EC5FEBF5016081718182813E
:1020500093810E94A436688B472E4C01262F372F80
:10206000AC01C701B6010E94693618161CF0C88879
:10207000D42C74010F5F1F4FF4E0AF0EB11C03307E
:10208000110579F68090C3069090C406A090C5060D
:10209000B090C60624E0288B01E064EA75E0CE012A
:1020A00001960E9472332090BE06312CFE013196BB
:1020B00084EA95E09F8B8E8B80E090E0412C10E0CD
:1020C000B701A60170589301082E02C035952795D7
:1020D0000A94E2F720FF28C04394AE89BF891D927D
:1020E0001D921D921C9213979101082E02C03595E6
:1020F00027950A94E2F720FF03C0002319F007C0D8
:10210000002329F0C082D182E282F38204C040839E
:102110005183628373832DE030E02C0F3D1F280F25
:10212000391FD9012C91122B019634962E893F89A3
:102130002C5F3F4F3F8B2E8B8330910521F6642D12
:1021400070E080E090E00E9406350E9431379B01EC
:10215000AC01C501B4010E94A436AB01BC011093CF
:10216000B0054A8B5B8B6C8B7D8B0E94281C20E01A
:102170004A895B896C897D89CE0101960E942F195D
:102180000E942A2B0E9404280023E9F00E94750F68
:10219000FE013D9620E030E090E06191462F412322
:1021A00059F0AC01022E02C0559547950A94E2F70A
:1021B00040FF02C0609516232F5F3F4F233031054B
:1021C00061F71093B0050E942A2B8091A2058473B9
:1021D000C1F08091A205807329F00E94AF160E9481
:1021E000D21DB1C00111AAC00E94750F8521A9F7A7
:1021F0009FB7F8948091A2058B7F8093A2059FBF23
:1022000004C0812F8C7109F0BFCF0E94BA2A0E94AE
:10221000D8188091C7069091C8060E948C1731E0AB
:102220000327C9F020E030E040EA50E46091C9069D
:102230007091CA068091CB069091CC060E94A4367C
:102240006B017C018090BF069090C006A090C106F3
:10225000B090C20610C0C090C906D090CA06E090E7
:10226000CB06F090CC068090C3069090C406A09058
:10227000C506B090C60688898150888B81110DCF24
:102280008091BE06A82FB0E0B98BA88BC090C9067C
:10229000D090CA06E090CB06F090CC06160127013C
:1022A00057FA509457F8509480E8A82E86E0B82E3C
:1022B00094EA892E95E0992E00E010E0C301002EEB
:1022C00002C0959587950A94E2F780FF29C0888916
:1022D0009989002E02C0959587950A94E2F7F50139
:1022E00080FF0EC024A135A146A157A1C701B601A8
:1022F0000E948D33D5012D913D914D915C9106C089
:102300002081318142815381C201B1010E94A436F2
:102310000E947436D4016D937D938D939C93139793
:102320000F5F1F4FB4E08B0E911CE4E0AE0EB11CAA
:102330000330110519F60E94281C05C08091A205E2
:1023400082FF56CF4ACF67960FB6F894DEBF0FBE16
:10235000CDBFDF91CF911F910F91FF90EF90DF9054
:10236000CF90BF90AF909F908F907F906F905F9035
:102370004F903F902F900895CF92DF92EF92FF926F
:102380000F931F93CF93DF938C01C4EAD6E0F8013B
:10239000C190D190E190F1908F0120E030E0A9014F
:1023A000C701B6010E946936181654F02991399177
:1023B00049915991C701B6010E94663487FF2BC02D
:1023C0008091A0058830A1F00E94AF169FB7F894C5
:1023D0008091A30585608093A3059FBFDF91CF9176
:1023E0001F910F91FF90EF90DF90CF900C94D21D32
:1023F0009FB7F8948091A20588608093A2059FBF43
:102400000E94D21D80919F0581110AC08091A00574
:102410008111F6CFD9CFF6E0C03BDF0709F0B7CF87
:10242000DF91CF911F910F91FF90EF90DF90CF90B0
:1024300008950E9435240E94A0270E94E62A0E9447
:10244000753180E2EFE9F5E0DF011D928A95E9F749
:1024500081E080939F0578948091BD0684FF03C03E
:1024600081E08093A0050E9403250E9406050E943A
:10247000CD270E943A040E945E0F0E949E1D0E947A
:10248000D8180E94BA2A0E94281C0E94180510928F
:102490009F051092A2051092A3051092A1050E941B
:1024A000FD1EE1CFEF92FF921F93CF93DF9300D0F9
:1024B00000D0CDB7DEB77C01122F8091BD0685FF1D
:1024C0000BC0C70149835A836B837C830E94BC1174
:1024D0007C816B815A8149818091A005823031F1E4
:1024E00049835A836B837C830E94D21D80919F0510
:1024F00081111CC00E94271949815A816B817C81FE
:10250000882339F00E94F41E49815A816B817C81B5
:10251000E7CF212FC7010F900F900F900F90DF9101
:10252000CF911F91FF90EF900C942F190F900F9067
:102530000F900F90DF91CF911F91FF90EF90089532
:102540002F923F924F925F926F927F928F929F92C3
:10255000AF92BF92CF92DF92EF92FF920F931F93B1
:10256000CF93DF93CDB7DEB7E7970FB6F894DEBF12
:102570000FBECDBF9C8B8B8B1B013A0109871A873D
:102580002B873C87AF8A2D961FAD2D972E962FADAA
:102590002E97298B2F963FAD2F973D8B84E0889EF9
:1025A000A00111245A834983AB89BC89A40FB51FAC
:1025B000B98FA88F460D571D5B8F4A8FFA01808017
:1025C0009180A280B3802D913D914D915C91C50188
:1025D000B4010E948D336C8F7D8F8E8F9F8FF4E0BE
:1025E0001F9F800111242B893C89200F311F39A3A3
:1025F00028A3A301400F511F5BA34AA3DA014D900A
:102600005D906D907C90F9012081318142815381F0
:10261000C301B2010E948D336CA37DA38EA39FA33F
:10262000A501940150582D873E874F87588BD301C1
:10263000C201B0588D839E83AF83B887E981FA8148
:10264000E20DF31D2C8D3D8D4E8D5F8D608171816E
:10265000828193810E948C332B013C01F101E00FB8
:10266000F11F2CA13DA14EA15FA1608171818281EA
:1026700093810E948C334B015C01A30192016D8513
:102680007E858F8598890E94A43669837A838B839F
:102690009C83A50194016D817E818F8198850E9424
:1026A000A4369B01AC0169817A818B819C810E9457
:1026B0008D3369837A838B839C83A50194016D8517
:1026C0007E858F8598890E94A4364B015C01A30109
:1026D00092016D817E818F8198850E94A4369B0135
:1026E000AC01C501B4010E948C3329813A814B8130
:1026F0005C810E9400342B013C019D89992399F053
:102700002DEB37E346E055EBC301B2010E94693679
:1027100087FD1DC02BED3FE049EC50E4C301B20141
:102720000E948C3312C02DEB37E346E055E3C30122
:10273000B2010E946634181654F02BED3FE049ECCC
:1027400050E4C301B2010E948D332B013C01809003
:10275000B9069090BA06A090BB06B090BC06298539
:102760003A854B855C85CA01B9010E948D33A5016C
:1027700094010E948C339B01AC01C501B4010E94FD
:10278000A4360E9431374B015C0120E030E040E08C
:102790005FE3C301B2010E94A43629853A854B85C7
:1027A0005C850E94A4369F77A50194010E946D3438
:1027B0000E9443350E94DA347E8B6D8BDB01AB2B9C
:1027C00009F486C14B01A12CB12CBF89BB2361F058
:1027D000C501B4010E9406359B01AC01C701B601D9
:1027E0000E94A4366B017C01C501B4010E9406352C
:1027F0004B015C019B01AC01C301B2010E946D342D
:1028000069877A878B879C87F989E4E0FE9FC001FE
:1028100011242B893C89280F391F3A8B298BF10110
:10282000E80FF91FD9012D913D914D915C91608187
:102830007181828193810E948C33A50194010E9451
:102840006D346CAB7DAB8EAB9FAB29853A854B85E8
:102850005C85CA01B9010E94A4369B01AC0160E00D
:1028600070E080E090E40E948C334B015C012BEA25
:102870003AEA4AE25EE369857A858B859C850E9407
:10288000A4362B013C0120E030E040E850E4C501D3
:10289000B4010E948D339B01AC01C301B2010E94BF
:1028A000A43668A779A78AA79BA720E030E040E07C
:1028B0005FE3C501B4010E94A4366CA77DA78EA773
:1028C0009FA7198201E010E0ED89FE890E171F070E
:1028D00009F4FEC0B981BC3008F04AC02CA53DA562
:1028E0004EA55FA56D817E818F8198850E94A4365B
:1028F0004B015C0128A539A54AA55BA56D857E85A0
:102900008F8598890E94A436A50194010E948D3379
:10291000B62EA72E982E892E2CA53DA54EA55FA5D7
:102920006D857E858F8598890E94A4362B013C0198
:1029300028A539A54AA55BA56D817E818F819885E3
:102940000E94A4369B01AC01C301B2010E948C33EA
:102950006D877E878F87988BE981EF5FE9838B2D69
:102960009A2DA92DB82D8D839E83AF83B8876EC015
:10297000B80180E090E00E94063529853A854B85B4
:102980005C850E94A4364B015C010E946A346D8311
:102990007E838F839887C501B4010E9427374B013E
:1029A0005C01EA8DFB8D80819181A281B3819C01C4
:1029B000AD01505829833A834B835C83AAA1BBA104
:1029C0008D919D910D90BC91A02D88AB99ABAAAB38
:1029D000BBAB2D813E814F81588569817A818B8186
:1029E0009C810E94A4362B013C01A501940168A999
:1029F00079A98AA99BA90E94A4369B01AC01C301B5
:102A0000B2010E948D336D877E878F87988BA501D9
:102A1000940169817A818B819C810E94A4364B014B
:102A20005C012D813E814F81588568A979A98AA9C9
:102A30009BA90E94A4369B01AC01C501B4010E9470
:102A40008C336D837E838F83988719822D853E8595
:102A50004F8558896C8D7D8D8E8D9F8D0E948D3315
:102A6000E88DF98D60837183828393832D813E810C
:102A70004F8158856CA17DA18EA19FA10E948D33AD
:102A8000A8A1B9A16D937D938D939C9313972CA9C5
:102A90003DA94EA95FA9E989FA8960817181828186
:102AA00093810E948D33A989BA896D937D938D930B
:102AB0009C9313972F89B701A6018B899C890E944B
:102AC000521280919F05811121C00F5F1F4FFCCED4
:102AD0002F89B701A601C101E7960FB6F894DEBFB2
:102AE0000FBECDBFDF91CF911F910F91FF90EF905F
:102AF000DF90CF90BF90AF909F908F907F906F901E
:102B00005F904F903F902F900C945212E7960FB623
:102B1000F894DEBF0FBECDBFDF91CF911F910F9113
:102B2000FF90EF90DF90CF90BF90AF909F908F90ED
:102B30007F906F905F904F903F902F9008958F926D
:102B40009F92AF92BF92CF92DF92EF92FF924B0192
:102B50005C018091A005823009F447C020E030E09C
:102B600040EA51E4C501B4010E94A4360E944335F5
:102B70000E94DA346B017C010E947F1F20E030E06C
:102B80004AE754E4C501B4010E94A4364B015C013C
:102B900082E38C9DB0018D9D700D112480E090E04A
:102BA0000E9406359B01AC01C501B4010E948C3323
:102BB0000E9443350E94DA34CB010E948C17C11465
:102BC000D10499F00E94D21D21E0C21AD10880914F
:102BD0009F0581110AC08FEF90E722E0815090405D
:102BE0002040E1F700C00000EACFFF90EF90DF90B7
:102BF000CF90BF90AF909F908F9008950E94530FF9
:102C000084E00E94E30F83E00E94E30F0E94D21D44
:102C100080919F05811104C00E9418050C945E0FDD
:102C20000895CF92DF92EF920F93CF93DF9300D06E
:102C300000D01F92CDB7DEB76C018091A005823025
:102C400009F481C02D8349835A836B837C830E945E
:102C50007F1F1092BE05802F0E94A11D0E94B31DF0
:102C60002D8149815A816B817C818823A1F09FB796
:102C7000F8948091A30580618093A3059FBF2D8365
:102C800049835A836B837C830E94D21D7C816B8134
:102C90005A8149812D8180919F05811154C0C601BF
:102CA0000E94521281E08093B1059FB7F894809101
:102CB000A20582608093A2059FBF0E94D21D8091D1
:102CC0009F05811140C08091A0058111F6CF8091B0
:102CD000B1058130A9F4EE2051F08CE0E4EAF5E092
:102CE000A2EBB5E001900D928A95E1F70CC09FB779
:102CF000F8948091A30580618093A3059FBF03C0D2
:102D000081E08093BE051092B1050E94D21D809192
:102D10009F05811118C00E94BA2A0E94D8180E94EB
:102D2000281C64EA75E0C6010E9472330F900F9070
:102D30000F900F900F90DF91CF910F91EF90DF9058
:102D4000CF900C94A0210F900F900F900F900F90A8
:102D5000DF91CF910F91EF90DF90CF900895809108
:102D6000A20584FD26C09FB7F8948091A2058061DA
:102D70008093A2059FBF0E94CB270E9438048091B8
:102D8000A005982F9C7021F49091A105913089F4B1
:102D90009FB7843029F4F8948091A305806204C021
:102DA000F8948091A30588608093A3059FBF0C943D
:102DB000242808956F927F928F929F92AF92BF9234
:102DC000CF92DF92EF92FF920F931F93CF93DF93F7
:102DD0007C018B016A01FB018081F701E80FF11D85
:102DE0002081EF012D3229F42296218166246394FB
:102DF00007C02B3211F0219602C022962181612C4E
:102E0000A12CB12C712C60E070E0CB01FE0130ED03
:102E1000932E920E29E02915C8F0B39428E02B15C3
:102E200088F0A1107A94A5E0B0E09B01AC010E946B
:102E3000C537660F771F881F991F690D711D811D8A
:102E4000911D0BC0A11009C0739407C02EEF921200
:102E500007C0A11005C0AA24A39421962081D6CF33
:102E6000BB2009F449C00E9406354B015C0120E0FB
:102E700030E0A9010E946634882361F18FEF781653
:102E80006CF42AE037ED43E25CE3C501B4010E9433
:102E9000A4364B015C0173947394F0CF78120BC08D
:102EA0002DEC3CEC4CEC5DE3C501B4010E94A43672
:102EB0004B015C010FC0772069F020E030E040E278
:102EC00051E4C501B4010E94A4364B015C017A941F
:102ED00017149CF3662021F0B7FAB094B7F8B094B9
:102EE000F60180829182A282B382CE19DF09C1509D
:102EF000F801C08381E001C080E0DF91CF911F9194
:102F00000F91FF90EF90DF90CF90BF90AF909F9088
:102F10008F907F906F900895009741F0EFE9FFE068
:102F20003197F1F700C000000197F6CF08958F9216
:102F30009F92AF92BF92CF92DF92EF92FF92690180
:102F40007A019B01AC010E94A4364B015C01A701F0
:102F50009601C701B6010E94A4369B01AC01C501D0
:102F6000B4010E948D33FF90EF90DF90CF90BF901F
:102F7000AF909F908F900C9431374F925F926F92E9
:102F80007F928F929F92AF92BF92CF92DF92EF92F9
:102F9000FF920F931F93CF93DF9310911E01111196
:102FA00001C012E1115000911C01101709F4EFC08B
:102FB00089E2189FE0011124C05EDE4F8D889E8853
:102FC000AF88B88C69A17AA18BA19CA19B01AC01AF
:102FD0000E948D332DA13EA14FA158A50E94A43679
:102FE0006B017C019B01AC01B401C5010E946634F8
:102FF00087FF02C064017501A601B701498B5A8B96
:103000006B8B7C8B111101C012E177247A94710EC5
:10301000701619F029E2622E27C080911F01081353
:1030200051C00E94082B4EC0679C80011124005E95
:103030001E4F711002C092E1792E7A9480911F0187
:10304000781202C00E94082BF801C588D688E7884C
:10305000F08CA701960161897289838994890E9405
:103060006634811106C0E80180911C017812DCCF22
:1030700029C0F80161A172A183A194A19B01AC01B7
:103080000E948D33F80125A136A147A150A50E94C9
:10309000A43629893A894B895C890E948D334B017A
:1030A0005C01A70196010E946634F80187FF05C004
:1030B000818A928AA38AB48AD6CFC18AD28AE38AC5
:1030C000F48AD1CF60901C01F9E26F9E8001112437
:1030D000005E1E4F77247394760C82E1781201C053
:1030E000712C50901E0189E2482E751409F44DC0D0
:1030F000479CE0011124C05EDE4FF8018188928870
:10310000A388B488C988DA88EB88FC88A70196016F
:10311000C501B4010E94663487FF23C0F80161A194
:1031200072A183A194A19B01AC010E948D33F8018F
:1031300025A136A147A150A50E94A4369B01AC0150
:10314000C501B4010E948D334B015C01A7019601BA
:103150000E94663487FF05C0898A9A8AAB8ABC8A36
:10316000672C2D893E894F89588D69897A898B8989
:103170009C890E946634811101C0672C7394F2E12E
:103180007F1201C0712C8E01B0CF60921C01DF91C3
:10319000CF911F910F91FF90EF90DF90CF90BF9054
:1031A000AF909F908F907F906F905F904F90089519
:1031B0008CE1E0E0F1E0DF011D928A95E9F71092E1
:1031C0001F0110921E0181E080931D0110921C01CD
:1031D000089590911F0180911E01891769F081E087
:1031E000890F823109F480E020911C01921302C002
:1031F00080931C0180931F01089580911F0190917D
:103200001E01981739F029E2829FC0011124805EC7
:103210009E4F089580E090E00895E0911F01EF5FD8
:10322000E23109F4E0E080911E01E81761F089E2E3
:10323000E89FF0011124E05EFE4F61897289838965
:1032400094890C94313760E070E0CB01089581E0FF
:1032500020911F0190911D01291380E008952F9264
:103260003F924F925F926F927F928F929F92AF9216
:10327000BF92CF92DF92EF92FF920F931F93CF9363
:10328000DF93CDB7DEB7AD970FB6F894DEBF0FBEB4
:10329000CDBF142F052F6B8F7C8F822E20911E01A6
:1032A00039E2239F10011124F101E05EFE4F1F015E
:1032B000158616861786108A15A216A217A210A6C2
:1032C000108249E956E766E97EE741A352A363A36A
:1032D00074A35C0140E8E42E46E0F42E9E01235FD7
:1032E0003F4F38A32F8F80E091E09E8F8D8F6F012D
:1032F000FE013196FAA3E9A3912CF5016191719138
:10330000819191915F01F701208131814281538147
:103310000E94A4360E947436EF8DF8A161937193D8
:1033200081939193F8A3EF8FED8DFE8D4190519095
:1033300061907190FE8FED8F641975098609970968
:103340002B013C0197FF07C0442455243201461A43
:10335000570A680A790AF6014182528263827482AE
:10336000F101258536854785508942165306640646
:10337000750610F429013A01F101458656866786E3
:10338000708A0E940835F701208131814281538182
:103390000E946D342B013C01E9A1FAA16193719364
:1033A00081939193FAA3E9A320E030E0A9010E9460
:1033B000663487FF0AC0F1019081892D9DA70E9484
:1033C000B7279DA5892BF1018083A3019201C30139
:1033D000B2010E94A436F10125A136A147A150A552
:1033E0000E948D33F10165A376A387A390A79394E0
:1033F000F4E0EF0EF11C24E0C20ED11C33E0931276
:103400007CCF0E9431376B017C01F10165A376A36B
:1034100087A390A785859685A785B089892B8A2B58
:103420008B2B09F4FCC120E030E0A901612F702F43
:103430008B8D9C8D0E94663487FD21C0882061F0B1
:10344000A7019601612F702F8B8D9C8D0E94A43651
:10345000162F072F8B8F9C8F20E030E040E85FE332
:10346000612F702F8B8D9C8D0E94663487FF0DC05D
:1034700010E000E030E83B8F8FE38C8F06C019E945
:1034800006E7F6E9FB8F2EE72C8FA701960160E097
:1034900070E080E89FE30E946D3469A77AA78BA74C
:1034A0009CA7ECE0F1E0FAA3E9A32CE836E038A30E
:1034B0002F8FCE010D969A8F898FFE013196FE8F48
:1034C000ED8FC12CD12C7601ED8DFE8D8080918009
:1034D000A280B38020E030E0A901C501B4010E94C0
:1034E0006634882309F47FC029A53AA54BA55CA5BD
:1034F000C501B4010E94A4364B015C01ED8DFE8D27
:1035000060837183828393839B01AC0160E070E0F0
:1035100080E89FE30E946D342B013C01E89477F82A
:10352000EF8DF8A12081318142815381C301B20125
:103530000E94A4366BA37CA38DA39EA39B01AC0128
:10354000612F702F8B8D9C8D0E94663487FF06C083
:103550001BA30CA3FB8DFDA32C8D2EA3F101F1A1C8
:10356000FB8FF101F2A1FC8FF101F3A1FFA3F101A7
:10357000F4A1F8A7EF8DF8A12485358546855785F8
:10358000C301B2010E94A4363B018C019B01AC0136
:103590006B8D7C8D8FA198A50E94663487FF04C037
:1035A0006B8C7C8C0FA118A5C301D801F10181A3FC
:1035B00092A3A3A3B4A3E9A1FAA1208131814281FE
:1035C0005381C501B4010E94A4369B01AC01C7011F
:1035D000B6010E948C336B017C011BA10CA1FDA1E3
:1035E000FB8F2EA12C8F8D8D9E8D04969E8F8D8F9F
:1035F000E9A1FAA13496FAA3E9A32F8D38A12C5F93
:103600003F4F38A32F8FE98DFA8D8E179F0709F052
:103610005BCF90911E0180911F01981306C0F101AC
:10362000118A128A138A148A0BC024EA30E74DE704
:103630005FE3C701B6010E946936181634F4F10140
:10364000118E128E138E148E5BC024EA30E74DE784
:103650005FEBC701B6010E946936181644F034EAE0
:10366000C32E30E7D32E3DE7E32E3FEBF32EA70129
:10367000960160E070E080E89FE30E948C3320E0D8
:1036800030E040E05FE30E94A4360E9431376B01D6
:103690007C012091B5063091B6064091B706509155
:1036A000B806F10161A172A183A194A10E94A43680
:1036B000A70196010E94A4364B015C01A701960167
:1036C00060E070E080E89FE30E948C339B01AC01D6
:1036D000C501B4010E946D346B017C0120E030E033
:1036E000A9010E94663487FF04C0C12CD12CE12CB3
:1036F000F12CA601B701F101418F528F638F748FB6
:10370000212F302F4B8D5C8D612F702F8B8D9C8DD9
:103710000E94A436162F072FF82EE92E862F902F01
:10372000AF2DBE2DF101858F968FA78FB0A3A18CF1
:10373000B28CC38CD48C6090180170901901809069
:103740001A0190901B019301A401612F702F8F2DFE
:103750009E2D0E94663487FD0BC09301A401B50124
:10376000C6010E94663487FD11C0530164010EC07A
:10377000212F302F4F2D5E2DB501C6010E946634DA
:1037800087FD04C0A12EB02ECF2CDE2CC501D601A2
:10379000F101858B968BA78BB08F8CE0FE01319663
:1037A000ACE0B1E001900D928A95E1F7812F902F66
:1037B000AF2DBE2D8093180190931901A0931A018B
:1037C000B0931B018CE0FE013D96A0E0B1E00190BA
:1037D0000D928A95E1F780911D0180931E018F5F04
:1037E000823109F480E080931D01AD960FB6F89404
:1037F000DEBF0FBECDBFDF91CF911F910F91FF9024
:10380000EF90DF90CF90BF90AF909F908F907F9080
:103810006F905F904F903F902F900C94BD17AD9696
:103820000FB6F894DEBF0FBECDBFDF91CF911F91D1
:103830000F91FF90EF90DF90CF90BF90AF909F904F
:103840008F907F906F905F904F903F902F90089552
:103850008091A4059091A505A091A605B091A7051A
:103860008093000190930101A0930201B0930301A2
:103870008091A8059091A905A091AA05B091AB05EA
:103880008093040190930501A0930601B093070172
:103890008091AC059091AD05A091AE05B091AF05BA
:1038A0008093080190930901A0930A01B0930B0142
:1038B000089580911E0190911F01891708F48E5E72
:1038C000891B08950E94082B80911F0180931C0181
:1038D0000C94BD17CF93DF93EC018991882319F0E5
:1038E0000E944B24FACFDF91CF910895CF93DF93BD
:1038F000FC018491EF012196882321F00E944B2442
:10390000FE01F7CFDF91CF910895EF92FF920F93D1
:103910001F93CF93DF931F92CDB7DEB7262FEDB65F
:10392000FEB66DB77EB7641B71090FB6F8947EBF03
:103930000FBE6DBF0DB71EB70F5F1F4F302FF801C1
:103940009E2F931B941728F4622F0E949137919316
:10395000F7CF442361F0F801E40FF11D3197808126
:10396000805D49830E944B2449814150F2CF0FB6BC
:10397000F894FEBE0FBEEDBE0F90DF91CF911F9168
:103980000F91FF90EF90089548E062E00C94851C41
:103990008A3020F0843620F442E003C041E001C0C8
:1039A00043E06AE00C94851C8F929F92AF92BF9285
:1039B000CF92DF92EF92FF920F931F93CF93DF93FB
:1039C000CDB7DEB72A970FB6F894DEBF0FBECDBFD6
:1039D0006B017C01142F20E030E0A9010E946634C5
:1039E00087FF07C08DE20E944B24F7FAF094F7F8A6
:1039F000F094012F023060F020E030E048EC52E417
:103A0000C701B6010E94A4366B017C010250F2CFBF
:103A100010FF0AC020E030E040E251E4C701B601E7
:103A20000E94A4366B017C0120E030E040E05FE3BF
:103A3000C701B6010E948D330E94D534E1E0F0E069
:103A4000EC0FFD1FE10FF11D2EE22083D12C5AE077
:103A5000852E912CA12CB12C611571058105910544
:103A6000A9F0D11201C0D394EE24E394F12CEC0E12
:103A7000FD1EED0CF11CA50194010E949D37605DB7
:103A8000F7016083B901CA01D394E6CF80E3D11670
:103A900048F4E1E0F0E0EC0FFD1FED0DF11D808337
:103AA000D394F5CF8D2DD1120BC0D394D3948F5FC7
:103AB000E1E0F0E0EC0FFD1FE80FF11D80E38083F3
:103AC000DD2041F0FE01ED0DF11D80810E944B24AF
:103AD000DA94F6CF2A960FB6F894DEBF0FBECDBFAC
:103AE000DF91CF911F910F91FF90EF90DF90CF90DA
:103AF000BF90AF909F908F9008952091BD0620FFBA
:103B000008C02BE832E441E25DE30E94A43644E0C1
:103B100001C043E00C94D41C2091BD0620FF08C0D6
:103B20002BE832E441E25DE30E94A43641E001C0AB
:103B300040E00C94D41C43E00C94D41C3D98459A6E
:103B400008951092BF059091BD0697FD03C090E2C5
:103B50009093BF05882331F08091BF0590E28927BB
:103B60008093BF05089586B180729091BF05892723
:103B700008958091B1058130A1F40E94B31D88237E
:103B800081F01092B1058CE0E4EAF5E0A2EBB5E03B
:103B900001900D928A95E1F78091A205806480934F
:103BA000A2050895EF92FF920F931F93CF93DF9397
:103BB000D1E008E080E2F82E10E190E4E92EC09117
:103BC000A305CC2389F1D093A005C1FF02C081E0F9
:103BD0000FC0C2FF02C082E00BC0C3FF02C083E07F
:103BE00007C0C4FF02C084E003C0C5FF03C085E076
:103BF0000E94DE1FC0FD08C08FB7F8949091A30506
:103C00001092A3058FBF10C081E00E9408209FB7CB
:103C1000F8948091A2058F7E8093A2059FBF80912A
:103C2000A20584FFFCCFE8CFC091A205CC2309F404
:103C3000BCC0C4FF04C081E080939F05CEC0C0FF1C
:103C40000AC00E942D239FB7F8948091A2058E7F11
:103C50008093A2059FBF8C2F887609F43CC0809189
:103C6000A005882349F0982F9C7769F1883021F4CA
:103C70000E94082BD093A1058091A005811103C05B
:103C800092E09093A105C6FF09C0883011F4E0923C
:103C9000A0058091A10588608093A105C3FF05C0A0
:103CA0008091A00585FF1093A005C5FF0CC086E09C
:103CB0000E9408208091A10581FDC46084608093EA
:103CC000A105F092A0059FB7F8948091A20587798D
:103CD0008093A2059FBFC1FF48C08C2F8876E9F56D
:103CE0008091A005882331F08075B9F18091A105FC
:103CF00081FF33C08091A10582FF1CC080913005F7
:103D0000882371F04091310550913205609133055F
:103D1000709134050E94D12780EA9FE00E948C17A1
:103D200080912F05882331F00E943D0488EE93E0B6
:103D30000E948C170E94FD18892B59F08091A105D3
:103D400083FD07C00093A0050E942A2B0E9404282F
:103D500002C01092A0051092A1059FB7F89480911F
:103D6000A2058D7F8093A2059FBFC2FF1EC08091D8
:103D7000A005807371F08091A10582FF04C00E94AC
:103D8000CB270E9438048091A10582608093A10511
:103D900004C01092A1051092A0059FB7F8948091DD
:103DA000A2058B7F8093A2059FBF8091A0058C7791
:103DB00011F00E942A2B8091A005803251F480914D
:103DC000A10581FF06C00E94BF31811102C010937E
:103DD000A0058091A1058111F2CEDF91CF911F91B5
:103DE0000F91FF90EF9008959FB7F894E2EAF5E005
:103DF0008081826080839FBF0895CF93DF930E946C
:103E000037208091A005813021F482E00E940820B3
:103E10002FC00E94BF31882341F08091A2058062AB
:103E20008093A2050E94D21D02C01092A00582E0DC
:103E300094E00E94C1311CC08D3079F0DD2399F1EE
:103E4000893221F4D13009F04CC0D0E00E94912495
:103E50008F3F09F448C08A3079F7EC2FF0E0EE5F2D
:103E6000FB4F10820E94D21D80919F05882311F084
:103E7000C0E0EBCF80910204811103C00E94901F2B
:103E8000F7CF843229F482E094E00E94E031F6CF4B
:103E90008091A005813011F489E0F0CF82E094E0B8
:103EA0000E941E05EBCF813288F28F3279F2883280
:103EB000B1F08B33B1F0CF3428F08BE00E94901F2B
:103EC000C0E0C4CF2C2F30E0CF5F9FE9980FF901FD
:103ED000EE5FFB4F9A3108F480528083B7CFD1E078
:103EE000B5CFD2E0B3CF0E94F41E0E94D21D8091C4
:103EF0009F05882309F4AACFDF91CF9108950E94EE
:103F0000F41E0E94D21D80919F05811108C00E945D
:103F1000FD18892BB1F78091A005883091F30895A1
:103F2000CF93C82F811103C083E498E044C08BE392
:103F300098E00E94761C4C2F50E0FA013197E63150
:103F4000F10580F5E75AFF4F0C94BF3783E298E004
:103F500002C081E198E00E94761C2BC08FEF97E0B1
:103F6000FACF85EF97E0F7CF84EE97E0F4CF85EDB9
:103F700097E0F1CF84EB97E0EECF8BEA97E0EBCFC1
:103F800080EA97E0E8CF8DE897E0E5CF8FE797E00C
:103F9000E2CF89E697E0DFCF85E597E0DCCF81E4EB
:103FA00097E0D9CF8FE297E00E94761C8C2F0E9479
:103FB000C81C8CE297E0CF910C94761CCF93C82F4D
:103FC00084E297E00E94761CC33091F03CF4C1304B
:103FD00061F0C230A1F48EE097E00FC0C43059F018
:103FE000C53069F484EE96E008C089E197E005C029
:103FF0008BEF96E002C080EF96E00E94761C81EE87
:1040000096E00E94761C84EF91E0CF910C948C177F
:10401000CF93C82F8FED96E00E94761C8C2F90E0F6
:10402000FC013197E830F105E8F4E159FF4F0C94B9
:10403000BF378DEC96E014C089EB96E011C087EA9B
:1040400096E00EC08FE996E00BC086E996E008C0C6
:104050008BE896E005C083E896E002C080E796E032
:104060000E94761C8CE696E0CF910C94761C8FE42F
:1040700096E00C94761C8BE095E00C94761CFF92F5
:104080000F931F93CF93DF9387E095E00E94761CF8
:104090008091B0060E94C81C8EEE94E00E94761CAF
:1040A0008091B3060E94C81C80ED94E00E94761CAB
:1040B0008091B1060E94C81C87EB94E00E94761C98
:1040C0008091B1060E94C41C80EB94E00E94761C93
:1040D0008091B2060E94C81C88E994E00E94761C78
:1040E0008091B2060E94C41C81E994E00E94761C73
:1040F0008091BD0682FB882780F90E94C81C80E75A
:1041000094E00E94761C8091BD0686FB882780F98A
:104110000E94C81C80E594E00E94761C8091BD0638
:10412000881F8827881F0E94C81C80E394E00E9493
:10413000761C8091B4060E94C81C8AE194E00E941B
:10414000761C8091B4060E94C41C82E194E00E9417
:10415000761C6091B5067091B6068091B706909175
:10416000B8060E949B1D82EF93E00E94761C60912E
:10417000B9067091BA068091BB069091BC060E9468
:104180009B1D87ED93E00E94761C8091BD06817097
:104190000E94C81C8AEB93E00E94761C8091BD06A9
:1041A00085FB882780F90E94C81C8FE993E00E9454
:1041B000761C8091BD0683FB882780F90E94C81C6D
:1041C00084E893E00E94761C8091BD068295817000
:1041D0000E94C81C88E693E00E94761C8091BE066F
:1041E0000E94C81C8EE493E00E94761C8091BE065B
:1041F0000E94C41C86E493E00E94761C6091BF0676
:104200007091C0068091C1069091C2060E949B1DCC
:1042100089E293E00E94761C6091C3067091C40607
:104220008091C5069091C6060E949B1D8CE093E08C
:104230000E94761C8091C7060E94C81C8DEE92E0F9
:104240000E94761C6091C9067091CA068091CB06C7
:104250009091CC060E949B1D84ED92E00E94761CFA
:1042600084E6F82E10E0C0E8D6E000E082ED92E0AF
:104270000E94761C802F8F0D0E94C81C80ED92E05A
:104280000E94761C123071F01330B9F0113029F011
:10429000688179818A819B8117C06C857D858E8537
:1042A0009F8512C020E030E041E655E4688D798DAD
:1042B0008A8D9B8D0E946D3407C08CA19DA1AEA1FB
:1042C000BFA1BC01CD0190580E949B1D8DEC92E0D6
:1042D0000E94761C013029F0023031F08BEC92E024
:1042E00005C089EC92E002C087EC92E00E94761C47
:1042F000123051F0133059F0113019F08DEB92E07B
:1043000008C08BEA92E005C08AE992E002C08AE820
:1043100092E00E94761C86E892E00E94761C0F5F75
:104320002496033009F0A2CF8AE0F80E1F5F8CE8D4
:10433000F81299CFDF91CF911F910F91FF900895BF
:10434000CF9380E892E00E94761CC0E06C2F82EB55
:1043500095E00E9458330E947D1DC23021F08EE707
:1043600092E00E94761CCF5FC33081F78CE792E029
:104370000E94761C8091BE050E94C81C88E792E0CE
:10438000CF910C94761CEF92FF920F931F93CF93D3
:10439000DF93CDB7DEB72C970FB6F894DEBF0FBE14
:1043A000CDBFF12CBE016F5F7F4F8F2D0E94652620
:1043B000811104C087E00E94901F69C085E792E0E8
:1043C0000E94761C86E0F81631F0E7E0FE1208C085
:1043D0008FE692E002C082E792E00E94761C04C061
:1043E00086E38F0D0E94C81C8DE692E00E94761C29
:1043F0008E010F5F1F4FE12CF80161917191819146
:1044000091918F010E947D1DF2E0EF1619F08BE66D
:1044100092E002C087E692E00E94761CE39483E07B
:10442000E812EACFF394E8E0FE12BCCF81E692E016
:104430000E94761C06E515E0F12CF801619171915E
:10444000819191918F010E947D1DF2E0FF1619F07C
:104450008FE592E002C08BE592E00E94761CF39417
:1044600083E0F812EACF85E592E00E94761C609125
:1044700062057091630580916405909165050E94C5
:104480007D1D81E592E00E94761C0E94A0212C9661
:104490000FB6F894DEBF0FBECDBFDF91CF911F9155
:1044A0000F91FF90EF9008958FE492E00E94761CA8
:1044B00080912705823091F038F4882361F08130B3
:1044C000A9F489E492E00CC0833069F0883071F47B
:1044D0008FE392E005C08CE492E002C086E492E0B3
:1044E0000E94761C0CC083E492E0FACF8AE392E04B
:1044F0000E94761C8091270586500E94C81C87E385
:1045000092E00E94761C80912D058A5C0E94C81C56
:1045100080912B05813049F028F0823051F488E2F7
:1045200092E005C082E392E002C08DE292E00E9438
:10453000761C80912905811103C083E292E002C0BC
:104540008EE192E00E94761C80912A05811103C0C1
:1045500089E192E002C084E192E00E94761C8091A1
:104560002805813019F48FE092E002C08AE092E0E1
:104570000E94761C80912E05813049F028F082300F
:1045800051F48EEF91E005C086E092E002C082E037
:1045900092E00E94761C80913005813031F040F02D
:1045A000823051F486EF91E005C08AEF91E002C0BD
:1045B00082EF91E00E94761C80912F05882329F0DC
:1045C000823039F48AEE91E002C08EEE91E00E94D2
:1045D000761C87EE91E00E94761C809139050E943E
:1045E000C81C84EE91E00E94761C609135057091A4
:1045F000360580913705909138050E948C1D80EE1C
:1046000091E00C94761C1F93CF93DF93182FEB014E
:104610008DED91E00E94761C812F0E94C81C8BEDCD
:1046200091E00E94761CCE010E946A1C88ED91E008
:10463000DF91CF911F910C94761CCF93DF93EC0107
:1046400088EC91E00E94761CCE010E946A1C84ECEA
:1046500091E0DF91CF910C94761CBF92CF92DF92C4
:10466000EF92FF920F931F93CF93DF93CDB7DEB7F7
:1046700068970FB6F894DEBF0FBECDBF8CE0E4EABA
:10468000F5E0DE011D9601900D928A95E1F780918B
:10469000A0058430E9F040F48130E9F080F0823008
:1046A00009F58FE991E01CC0803179F018F4883069
:1046B00049F018C0803291F0803421F013C08EEBA5
:1046C00091E00EC089EB91E00BC083EB91E008C054
:1046D0008DEA91E005C086EA91E002C089E991E0A7
:1046E0000E94761C8091B406837039F0BE01635F2E
:1046F0007F4FCE0101960E9472338091B40680FDF7
:1047000005C08091B40681FF6DC01FC082E991E0B1
:104710000E94761C69817A818B819C810E947D1D1B
:1047200080E991E00E94761C6D817E818F81988561
:104730000E947D1D80E991E00E94761C69857A8542
:104740008B859C850E947D1DDCCF89E891E00E94CD
:10475000761C9AE4E92E95E0F92E8E010F5F1F4F2B
:10476000B12C6801F70161917191819191917F0163
:1047700020853185428553850E948D339B01AC0194
:10478000F80160817181828193810E948C33F801EC
:104790006083718382839383F2E0BF120FC0209104
:1047A00062053091630540916405509165050E9452
:1047B0008C33F80160837183828393830C5F1F4F76
:1047C000F60160817181828193810E947D1DF2E0FA
:1047D000BF1621F087E891E00E94761CB39423E095
:1047E000B212BFCF8091B40682FF08C081E891E089
:1047F0000E94761C0E94591C0E94C81C8091B4061D
:1048000083FF08C08CE791E00E94761C0E942C2454
:104810000E94C81C8091B40684FF0AC086E791E01C
:104820000E94761C0E94750F43E062E00E94851C86
:1048300082E791E00E94761C68960FB6F894DEBF7E
:104840000FBECDBFDF91CF911F910F91FF90EF90E1
:10485000DF90CF90BF9008959091540480915504BB
:10486000891708F48058891B0895E0ECF0E08081F6
:10487000826080831092C50080E18093C400E1ECE7
:10488000F0E0808180618083808188608083808186
:10489000806880830895E091530491E09E0F9034E6
:1048A00009F490E020915204921305C02091A205D2
:1048B00024FFF8CF0895F0E0E054FA4F80839093FE
:1048C00053048091C10080628093C10008951F92BB
:1048D0000F920FB60F9211248F939F93EF93FF9334
:1048E00080915204E82FF0E0E054FA4F90819093C9
:1048F000C6008F5F803409F480E080935204909169
:104900005304891305C08091C1008F7D8093C1003D
:10491000FF91EF919F918F910F900FBE0F901F907D
:1049200018959091540480915504891761F0E92FEE
:10493000F0E0E050FA4F80819F5F903809F490E0FA
:104940009093540408958FEF08951F920F920FB61D
:104950000F9211242F933F934F935F936F937F9305
:104960008F939F93AF93BF93EF93FF938091C60074
:104970008F33A9F050F4883109F1813211F59FB7D6
:10498000F8948091A205886015C0803471F08E374C
:10499000C1F49FB7F8948091A20582600BC09FB7C5
:1049A000F8948091A205816005C09FB7F89480912A
:1049B000A20580628093A2059FBF14C00E94AF161B
:1049C00011C0E091550491E09E0F903809F490E0F9
:1049D00020915404921731F0F0E0E050FA4F8083B8
:1049E00090935504FF91EF91BF91AF919F918F915B
:1049F0007F916F915F914F913F912F910F900FBEDB
:104A00000F901F9018958091550480935404089539
:104A100021E5829FC001112440E550E09D5F0C9488
:104A2000830440E550E0BC018EEA93E00C948304DB
:104A30002DE0829FC00111244CE050E09E5F0C9459
:104A4000830469E080E090E00E9461044DE450E05E
:104A500060E876E081E090E00C948304EF92FF92AE
:104A60000F931F93CF93DF93CDB7DEB72C970FB67D
:104A7000F894DEBF0FBECDBF182F80FFC2C08AE002
:104A80008093B00689E18093B3061092B10681E06D
:104A90008093B20683E08093B4068AE097EDA3E2A8
:104AA000BCE38093B5069093B606A093B706B09387
:104AB000B8068FE692E1A3E0BBE38093B90690933A
:104AC000BA06A093BB06B093BC061092BE0680E067
:104AD00090E0A8ECB1E48093BF069093C006A09349
:104AE000C106B093C20640E050E06AEF73E4409321
:104AF000C3065093C4066093C5067093C6068AEF3A
:104B000090E09093C8068093C70680E090E0A0E80C
:104B1000BFE38093C9069093CA06A093CB06B093D7
:104B2000CC061092BD0680E090E0A0E2B2E4809353
:104B3000800690938106A0938206B09383068093AB
:104B4000840690938506A0938606B093870680938B
:104B5000880690938906A0938A06B0938B064093AB
:104B60008C0650938D0660938E0670938F0640934B
:104B7000900650939106609392067093930640932B
:104B8000940650939506609396067093970640E0BE
:104B900058EC6FEA78E44093980650939906609336
:104BA0009A0670939B0640939C0650939D066093D3
:104BB0009E0670939F064093A0065093A1066093B3
:104BC000A2067093A30640E050E068E473EC4093C3
:104BD000A4065093A5066093A6067093A70640937B
:104BE000A8065093A9066093AA067093AB0640935B
:104BF000AC065093AD066093AE067093AF060E946C
:104C0000212511FF10C0CE0101967C018CE0F70137
:104C100011928A95E9F700E0B701802F0E941825CC
:104C20000F5F0830C9F712FF0AC060E080E093E030
:104C30000E94610460E081E593E00E94610413FF3B
:104C400005C060E08EEA93E00E9461042C960FB6E6
:104C5000F894DEBF0FBECDBFDF91CF911F910F91B2
:104C6000FF90EF9008951F93CF93DF93182FEB01E0
:104C700081E5189FB00111247D5F40E550E0CE0131
:104C80000E94C104892B39F41882BE01812F0E9431
:104C9000082580E001C081E0DF91CF911F91089548
:104CA000CF93DF93EC0140E550E06EEA73E00E94A1
:104CB000C104892B31F41882CE010E94112580E0B5
:104CC00001C081E0DF91CF9108951F93CF93DF93CF
:104CD000182FEB018DE0189FB00111247E5F4CE08E
:104CE00050E0CE010E94C104892B59F48CE0FE01F2
:104CF00011928A95E9F7BE01812F0E94182580E064
:104D000001C081E0DF91CF911F91089580E090E094
:104D10000E945904893059F44DE450E061E070E09C
:104D200080E896E00E94C10421E0892B09F420E08C
:104D3000822F0895CF92DF92EF92FF92CF93DF936D
:104D4000C82F6A017B0120E030E0A901C701B6014C
:104D50000E94663487FDE6C0C43608F445C02CE9DD
:104D60002C0F80E02330B8F530E0823079F0F90183
:104D7000EE0FFF1FEE0FFF1F833011F1813019F08E
:104D8000E058F94F23C0E457F94F20C0E901CC0F98
:104D9000DD1FCC0FDD1FC856D94F20E030E040E7C3
:104DA00052E4C701B6010E94A43620E030E040E79B
:104DB00052E40E94A436688379838A839B83AEC0C1
:104DC000EC55F94FF7FAF094F7F8F094C082D182DD
:104DD000E282F382A3C08F5F2A3008F4A5C084303A
:104DE00009F4A2C02A50BECFC701B6010E94723793
:104DF0000E94DA348C2F90E08C31910508F094C039
:104E0000FC01E958FF4F0C94BF37633008F48EC0A3
:104E10006093B00683C06093B30680C06093B10610
:104E200002C06093B2060E947E2A78C08091BD06BF
:104E3000662311F0846007C08B7F05C08091BD069A
:104E4000662321F080648093BD0668C08F7BFBCF12
:104E50008091BD06662311F08068F5CF8F77F3CF80
:104E60006093B4065BC0C092B506D092B606E092DD
:104E7000B706F092B80652C0C092B906D092BA06F0
:104E8000E092BB06F092BC0649C08091BD06662345
:104E900011F08160D8CF8E7FD6CF8091BD0666237A
:104EA00021F084FF45C08062CECF8F7DCCCF809132
:104EB000BD06662311F0886001C0877F8093BD0620
:104EC0000E945E0F2BC08091BD06662311F08061A9
:104ED000BACF8F7CB8CF6093BE0620C0C092BF0609
:104EE000D092C006E092C106F092C20617C0C092EE
:104EF000C306D092C406E092C506F092C6060EC064
:104F000070E07093C8066093C70608C0C092C906D7
:104F1000D092CA06E092CB06F092CC060E942125E0
:104F200080E007C084E005C083E003C086E001C0E4
:104F30008AE0DF91CF91FF90EF90DF90CF900895BE
:104F40000E948626811108C087E00E94901F8FEF83
:104F50000E942E250C943F200895882321F0813053
:104F600021F488E0089584E0089580E1089588237D
:104F700021F0813021F480E4089580E2089580E8F2
:104F80000895882321F0813021F484E0089582E09F
:104F9000089588E008952C980895249A259A0C94F1
:104FA000CB27811102C00C94CB27813011F42D98AE
:104FB00001C02D9A2C9A0895CF93DF9300D000D092
:104FC0001F92CDB7DEB79091A0059230A9F04A8329
:104FD0005B836C837D8389830E947F1F4A815B8111
:104FE0006C817D8189810F900F900F900F900F90B1
:104FF000DF91CF910C94D1270F900F900F900F90CD
:105000000F90DF91CF9108958091BD0682FF02C07D
:10501000289A01C028988091A0058C70A1F08091F9
:10502000860480939A0480918704809399048091E8
:10503000B006880F845081958093980480916F000A
:10504000826080936F00089580916F008D7F8093C0
:105050006F0080918100887F816080938100109231
:1050600085048091B3068F3F21F49091A305992385
:1050700049F09091A005943029F090E00E948C179F
:1050800081E001C080E09091BD0692FF02C091E0F6
:105090008927882311F0289A0895289808951F9247
:1050A0000F920FB60F9211242F933F934F935F935C
:1050B0006F937F938F939F93AF93BF93CF93DF9320
:1050C000EF93FF93809185048111EFC19BB1809193
:1050D0009A04807E9F71892B8BB98BB1837E9091CE
:1050E0009904892B8BB98091980486BD82E085BD97
:1050F00081E08093850478948091AC049091AD0414
:10510000892B09F0A4C080918A0490918904981792
:1051100009F492C0E0918A0486E0E89FF00111242E
:10512000E255FB4FF093AD04E093AC04838194818E
:105130009093890080938800808191819093A80446
:105140008093A704A2818091A9048A1771F1A0938A
:10515000A90481E1A89FD0011124AE52BB4FB093A6
:10516000AB04A093AA041D968D919D910D90BC91C6
:10517000A02DB695A79597958795809393049093C6
:105180009404A0939504B093960480938F04909315
:105190009004A0939104B093920480938B04909315
:1051A0008C04A0938D04B0938E04C091AA04D09176
:1051B000AB04809186049881892780939A04258185
:1051C00089819A81AB81BC81022E04C0B695A795D6
:1051D000979587950A94D2F780939B0490939C04AB
:1051E000A0939D04B0939E048D819E81AF81B8856C
:1051F000022E04C0B695A795979587950A94D2F785
:1052000080939F049093A004A093A104B093A20460
:1052100089859A85AB85BC8504C0B695A795979579
:1052200087952A95D2F78093A3049093A404A09322
:10523000A504B093A6040BC00E9424289FB7F8943D
:105240008091A20584608093A2059FBF2EC10E9419
:10525000B91D1092990480919B0490919C04A09197
:105260009D04B0919E0440918B0450918C046091F8
:105270008D0470918E04840F951FA61FB71F809315
:105280008B0490938C04A0938D04B0938E04E091D2
:10529000AA04F091AB044585568567857089481747
:1052A00059076A077B0768F524E020939904458530
:1052B000568567857089841B950BA60BB70B809369
:1052C0008B0490938C04A0938D04B0938E04208162
:1052D0008091A4059091A505A091A605B091A70580
:1052E00025FF04C00197A109B10903C00196A11DC2
:1052F000B11D8093A4059093A505A093A605B09336
:10530000A70580919F049091A004A091A104B09161
:10531000A20440918F045091900460919104709187
:105320009204840F951FA61FB71F80938F0490933C
:105330009004A0939104B0939204458556856785A7
:105340007089481759076A077B0778F520919904F7
:105350002860209399044585568567857089841B4C
:10536000950BA60BB70B80938F0490939004A0939A
:105370009104B093920420818091A8059091A90591
:10538000A091AA05B091AB0526FF04C00197A10921
:10539000B10903C00196A11DB11D8093A80590938A
:1053A000A905A093AA05B093AB058091A3049091A1
:1053B000A404A091A504B091A60440919304509137
:1053C00094046091950470919604840F951FA61F14
:1053D000B71F8093930490939404A0939504B09383
:1053E00096044585568567857089481759076A0769
:1053F0007B0778F5209199042061209399044585D5
:10540000568567857089841B950BA60BB70B809317
:10541000930490939404A0939504B09396042081F0
:105420008091AC059091AD05A091AE05B091AF050E
:1054300027FF04C00197A109B10903C00196A11D6E
:10544000B11D8093AC059093AD05A093AE05B093CC
:10545000AF058091A005843039F48091B00590911A
:1054600099048923809399048091A7049091A804BA
:1054700001979093A8048093A704892B69F4109254
:10548000AD041092AC0480918A048F5F80938A04EB
:10549000863011F410928A048091870490919904C7
:1054A00089278093990410928504FF91EF91DF91F1
:1054B000CF91BF91AF919F918F917F916F915F91AC
:1054C0004F913F912F910F900FBE0F901F90189505
:1054D0001F920F920FB60F9211248F939F939BB13F
:1054E000809187048C71937E892B8BB915BC9F9119
:1054F0008F910F900FBE0F901F901895FF920F93F2
:105500001F93CF93DF931092870410928604C0E01C
:10551000D0E00C2F1C2F2091B10630E08C2F0C2EE8
:1055200002C0359527950A94E2F720FF07C0F09056
:1055300087040E94AD278F29809387042091B206AB
:1055400030E002C0359527951A95E2F720FF08C094
:1055500010918604802F0E94B727812B80938604A8
:105560002196C330D105A9F6DF91CF911F910F91FC
:10557000FF9008950E9424288BE2E6E5F4E0DF0125
:105580001D928A95E9F783E2EBE8F4E0DF011D92D2
:105590008A95E9F7109284041092830410928A0489
:1055A0001092890481E080938804109285040E94FF
:1055B0007E2A8BB1837E90918704892B8BB98BB126
:1055C0008F7190918604892B8BB908958AB18C6173
:1055D0008AB9209A8AB1806E8AB9E1E8F0E08081C8
:1055E0008F7E8083808188608083E0E8F0E0808126
:1055F0008C7F808380818F708083EEE6F0E08081F5
:10560000887F808314BC15BC80818160808308956D
:10561000CF93DF93C0918304D09184042097B9F095
:1056200081E08093570460916D0470916E048091C5
:105630006F04909170049B01AC010E94A436698BA9
:105640007A8B8B8B9C8B1092840410928304DF9155
:10565000CF9108952F923F924F925F926F927F92D7
:105660008F929F92AF92BF92CF92DF92EF92FF9272
:105670000F931F93CF93DF93CDB7DEB7E5970FB6A8
:10568000F894DEBF0FBECDBF8091A005807709F4EE
:105690000AC220E030E0A90160916D0470916E04AF
:1056A00080916F04909170040E9466348111FBC157
:1056B00003C68091830490918404892B09F4FAC174
:1056C00080918904F6E0F89FF0011124E255FB4F28
:1056D000FE83ED8380915604828320918304309170
:1056E00084043E872D87D9019596BC91BCA7F9010A
:1056F000F6A1FDA7D9019796BC91BEA7F901F0A527
:10570000FFA72091600430916104409162045091A0
:1057100063046CA57DA58B2F9F2F0E948C3368A7F7
:1057200079A78AA79BA720E030E0A9010E946634F0
:1057300087FF04C018A619A61AA61BA620917904F3
:10574000288F30917A04398F40917B044A8F509191
:105750007C045B8F809171048C8F909172049D8F7B
:10576000A0917304AE8FB0917404BF8FE0917D045B
:10577000E8A3F0917E04F9A320917F042AA330913D
:1057800080043BA3409169044CA350916A045DA33B
:1057900080916B048EA390916C049FA3209175045B
:1057A00030917604409177045091780428AB39AB5E
:1057B0004AAB5BAB30916D04398340916E044987ED
:1057C00020906F0430907004509168045F878CA51E
:1057D0008C8B9DA59D8BAEA5AE8BBFA5BF8B3EE3ED
:1057E000C32E33ECD32E3EE2E32E39E3F32E188A98
:1057F000198A1A8A1B8A26013701EF85E111B4C381
:10580000AD85BE8591962D913D914D915C9194977A
:10581000C701B6010E94A4364B015C0120E030E0D4
:1058200040E05FE30E94A4369B01AC016981798569
:10583000C1010E948D339B01AC01C701B6010E94DA
:10584000A4369B01AC016C897D898E899F890E9459
:105850008C338B018DAB9CAB288D398D4A8D5B8D44
:105860000E94663487FF86C3288D398D4A8D5B8DF3
:105870006CA57DA58EA59FA50E948C339B01AC01D4
:105880000E948D336B017C012C8D3D8D4E8D5F8D83
:1058900069817985C1010E948D339B01AC01C701EB
:1058A000B6010E946D346B017C0128A139A14AA187
:1058B0005BA1688D798D8A8D9B8D0E9466348823CB
:1058C00009F455C3B1E0BF87FC8DF9832D8D29877D
:1058D0002E8C3F8C088D198D3A8D3DAB4B8D4CAB8A
:1058E000A7019601688979898A899B890E948D33ED
:1058F000688B798B8A8B9B8BA30192010E94663403
:1059000087FDF2C328A539A54AA55BA5B8018DA9D5
:105910009CA90E94693618160CF4DCC3898199850C
:10592000D10180936D0490936E04A0936F04B093A3
:105930007004FF85F093680440905C0450905D040F
:1059400060905E0470905F0498014DA95CA9C3014A
:10595000B2010E94A43669837A838B839C830E9460
:1059600053346B017C01609158047091590480910B
:105970005A0490915B040E9453344B015C01A701CF
:1059800096010E948C330E94DA3469877A878B876C
:105990009C87E985FA85AD81BE81ED93FC933097B4
:1059A00009F4CDC3209164043091650440916604EC
:1059B00050916704688979898A899B890E948D330F
:1059C0002B013C0129813A814B815C81C501B401E5
:1059D0000E948C339B01AC01C301B2010E946D3463
:1059E0004B015C0129813A814B815C81C701B60181
:1059F0000E948C33A50194010E94A4366093640434
:105A000070936504809366049093670420EC31EEF4
:105A100044E65EE4C501B4010E94A4360E945334FA
:105A20000E94DA34603DB7E07B078105910508F0FC
:105A3000ACC3ED81FE811582AD81BE8114967C934D
:105A40006E93139780918804809389048F5F8630CA
:105A500009F4D4C3809388042091690430916A04C6
:105A600040916B0450916C04B8018DA99CA90E94CF
:105A7000693618160CF0C5C3E0918304F0918404D4
:105A8000C801ADA9BCA985A396A3A7A3B0A7898186
:105A90009A81AB81BC818093580490935904A09360
:105AA0005A04B0935B0490918A04809188049813FF
:105AB00000CE02C40E94FD181C01909384048093C0
:105AC0008304009709F4F8C3809157041091A0054E
:105AD000882319F010925704BEC0809156048F5F3E
