:100000000C949A010C94AC010C94AC010C947B0DF3
:100010000C948E320C94AC010C94AC010C94AC0199
:100020000C94AC010C94AC010C94AC010C94AB2876
:100030000C94AC010C94AC010C94AC010C94AC018C
:100040000C94C32A0C94AC010C947D240C943F2492
:100050000C94AC010C94AC010C94AC010C94AC016C
:100060000C94AC010C94AC017E04A80CA80C880480
:100070009504A204AF04A80CB304A80CC104A80CF6
:10008000CB04D504DF04A80CA80CA80CEE04FB04D8
:100090000805B81FBB1FBE1FC11FC41FC71FCA1F33
:1000A000CD1FD01FD31FD61FB224B424ED24ED24BE
:1000B000ED24ED24ED24ED24ED24ED24ED24ED24B8
:1000C000BA24BC24BE24C024C224C424C624C82408
:1000D000ED24CC24CE24D024D224D424D624ED2440
:1000E000D8244A275027532756275B2763276D2795
:1000F000F627F627F6277A277D2786278F27F627E4
:10010000F627F627F627F627F6279B27A527B127F8
:10011000B927BC27C527CE27D427F627F627DD2702
:10012000E6274827084AD73B3BCE016E84BCBFFD7B
:10013000C12F3D6C74319ABD56833DDA3D00C77FB7
:1001400011BED9E4BB4C3E916BAAAABE0000008050
:100150003F05A84CCDB2D44EB93836A9020C50B9DF
:10016000918688083CA6AAAA2ABE000000803F000B
:100170007C413A007C4F763A007C57434F3A007CF2
:10018000506E3A007C463A007C42663A007C5750FA
:100190006F733A007C4D506F733A00536C65657015
:1001A00000446F6F723A00436865636B00416C6195
:1001B000726D00486F6D65004A6F6700486F6C6430
:1001C0003A0052756E0049646C65005B4F50543ABA
:1001D000005B5645523A312E31662E32303137307F
:1001E0003830313A00244E00204D00204700204690
:1001F0000020540033382E005B47433A47005B54DD
:100200004C4F3A005B4739323A0033300032380005
:100210005B47005B5052423A005B484C503A242402
:1002200020242320244720244920244E2024783DC4
:1002300076616C20244E783D6C696E6520244A3DC1
:100240006C696E652024534C502024432024582090
:100250002448207E2021203F206374726C2D785D1D
:100260000D0A000D0A4772626C20312E3166205B48
:1002700027242720666F722068656C705D0D0A0068
:10028000536C656570696E6700526573746F72694F
:100290006E67207370696E646C6500526573746F6D
:1002A00072696E672064656661756C74730050676F
:1002B0006D20456E6400436865636B204C696D6911
:1002C000747300436865636B20446F6F7200446908
:1002D0007361626C656400456E61626C65640043C5
:1002E000617574696F6E3A20556E6C6F636B6564EF
:1002F00000272448277C2724582720746F20756EF8
:100300006C6F636B00526573657420746F20636F4C
:100310006E74696E7565005B4D53473A00414C4100
:10032000524D3A000D0A006572726F723A006F6B9F
:100330000D0A000011241FBECFEFD8E0DEBFCDBFF5
:1003400027E0A0E0B1E001C01D92A930B207E1F7BB
:100350000E94B60F0C94A9390C94000088B183FB5D
:10036000882780F90895439808953B9A0C94B30127
:100370009091A105911109C0811103C00E94B301A0
:1003800002C086FD439A1092AB050895CF93DF9388
:100390001F92CDB7DEB79091A005923049F08983C6
:1003A0000E94131F89810F90DF91CF910C94B801A7
:1003B0000F90DF91CF910895F999FECF92BD81BD45
:1003C00081E08FBB80B50895F894F999FECF92BD76
:1003D00081BD81E08FBB40B54627842F992787FDDB
:1003E0009095262F30E082239323892B39F06F3F9D
:1003F00019F060BD84E006C084E104C0442321F00C
:1004000060BD84E28FBBF99A789408959F92AF9271
:10041000BF92CF92DF92EF92FF920F931F93CF93F1
:10042000DF938C017A016B01C40ED51EEB01912C78
:100430005C01A61AB70ACE018A0D9B1DCC15DD05FD
:1004400091F0911009C0692D772767FD7095272FCE
:10045000221F2227221F01C021E06991922E960EB1
:100460000E94E401E8CF692DC8018E0D9F1DDF9128
:10047000CF911F910F91FF90EF90DF90CF90BF90A1
:10048000AF909F900C94E4019F92AF92BF92CF9255
:10049000DF92EF92FF920F931F93CF93DF938B0125
:1004A0007A016C01C40ED51EEC01912C5B01A81AD7
:1004B000B90AC5018C0F9D1FCC15DD0591F00E9476
:1004C000DC01911009C0292D332727FD3095232FFA
:1004D000221F2227221F01C021E0922E980E89930D
:1004E000E8CFC8018E0D9F1D0E94DC0121E030E0A5
:1004F000981611F020E030E0C901DF91CF911F91F3
:100500000F91FF90EF90DF90CF90BF90AF909F90B2
:10051000089580E4E5E2F5E0DF011D928A95E9F7B0
:1005200069E475E080E00E94A826811103C087E09D
:100530000C94841F08956CEB75E08DE395E00C94AA
:1005400006332F923F924F925F926F927F928F92DB
:100550009F92AF92BF92CF92DF92EF92FF920F9352
:100560001F93CF93DF93CDB7DEB7AC970FB6F89458
:10057000DEBF0FBECDBF9E8F8D8F8AE3E5E6F5E02F
:10058000DF011D928A95E9F78BE0E5E2F5E0A6E64A
:10059000B5E001900D928A95E1F7ED8DFE8D808199
:1005A000843211F00C94C80C81E08093660510929F
:1005B000670583E08A8FF1E0FC8F212C312C1DA28E
:1005C0001CA218A21B8E1F8EEE24E394F12C01E0D6
:1005D000BAE04B2E512C11E6612E13E0712E8A8D5C
:1005E000ED8DFE8DE80FF11DC080CC2009F43DC2D9
:1005F0009FEB9C0D9A3110F00C94900C8F5F8A8FBA
:10060000AE014A5E5F4FBE01665E7F4F8D8D9E8D4F
:100610000E940314882311F40C94930C8E889F88F5
:10062000A88CB98CC501B4010E941B390E94833685
:10063000162F70E080E090E00E94B1369B01AC0183
:10064000C501B4010E94353520E030E048EC52E4A9
:100650000E944D380E94B0380E948336CB0127E4B7
:10066000C21629F03DE4C31609F4ECC035C11832B6
:1006700009F4C6C020F5143168F4113108F08BC0BC
:10068000143009F452C008F465C01A3009F445C0AA
:100690000C94A80C1C3109F440C050F4163110F031
:1006A0000C94A80C25E1211B2093680526E0ADC021
:1006B0001E3199F1163209F44DC00C94A80C1D336B
:1006C00009F498C0A8F4153381F140F41B3209F401
:1006D0007BC0113309F478C00C94A80C1C3310F0C3
:1006E0000C94A80C2AEC210F20936C0529E08DC0F6
:1006F0001C3538F41A3508F054C0103589F10C94C3
:10070000A80C1C3551F01F3510F00C94A80C2EE5E8
:10071000211B2093670525E078C0009731F4AF8D49
:10072000A1110C94960CB1E0BF8F10936505212F99
:100730002D7F2C3119F01C3509F064C0009721F091
:100740000A9711F00C94A80CD12ED60ED092650504
:1007500020E061C0EF8DE1110C94960CF2E0FF8F68
:1007600010936605163209F04FC08431910559F097
:100770008E31910541F08832910529F0823391053F
:1007800011F00C94A80CB2010E9446396657609390
:10079000660521E040C02FEE210F20936A0522E07C
:1007A00034C0009731F486EA810F8093690523E015
:1007B00032C06A30710511F00C94A80C1A3511F48E
:1007C0000C94A80C24E027C02F8D21110C94960CBA
:1007D000113331F410926B0528E033E03F8F1BC0DA
:1007E0000A9711F00C94A80C00936B0528E063E0C5
:1007F0006F8F11C0892B11F00C94A80C2AE00BC04C
:1008000027E003C020E001C021E0892B21F0F7E1BF
:10081000DF2E0C94CC0CC70102C0880F991F2A95BB
:10082000E2F72CA13DA128233923232B21F0E5E178
:10083000DE2E0C94CC0CACA1BDA1A82BB92BBDA372
:10084000ACA3CDCE892B19F7163018F4133058F01D
:1008500016C0183010F40C94A80C1A30F0F01E31A9
:1008600059F00C94A80C112319F0113001F104C0B7
:10087000B3E0B0936D051BC010936D0518C0143024
:1008800021F0153031F080E101C080E280936F05E6
:1008900002C010926F058CE00BC0193021F080E48B
:1008A00080936E0502C010926E058DE001C08BE052
:1008B000F70102C0EE0FFF1F8A95E2F72CA13DA1C0
:1008C0002E233F23232B09F0B2CF2CA13DA12E2BA9
:1008D0003F2B3DA32CA383CE8C2D992787FD90958C
:1008E000A92FB92FFC01E654F109E531F10510F00B
:1008F0000C94A80CEC5CFF4F0C947C398092710531
:1009000090927205A0927305B092740580E08CC03D
:100910008092750590927605A0927705B092780541
:1009200038A1316038A381E07FC080927905909230
:100930007A05A0927B05B0927C0568A1626068A3ED
:1009400082E072C080927D0590927E05A0927F0524
:10095000B092800588A1846088A383E065C010936D
:10096000810584E061C0C501B4010E947E366093B8
:10097000820570938305809384059093850585E0B7
:1009800053C08092860590928705A0928805B09208
:10099000890586E049C080928A0590928B05A092D5
:1009A0008C05B0928D0587E03FC080928E059092B5
:1009B0008F05A0929005B092910588E035C020E0A7
:1009C00030E04FE753E4C501B4010E941238181615
:1009D0000CF4AFC71093920589E026C0809293056E
:1009E00090929405A0929505B09296059B8D91608A
:1009F0009B8F8AE019C08092970590929805A092EB
:100A00009905B0929A05AB8DA260AB8F8BE00CC0BC
:100A100080929B0590929C05A0929D05B0929E05A8
:100A2000BB8DB460BB8F8CE06701082E02C0CC0C7C
:100A3000DD1C0A94E2F7960122213321232B09F0D1
:100A40007BC7F30102C0F595E7958A95E2F7E0FFD1
:100A500009C020E030E0A901C501B4010E940F36B1
:100A600087FD6DC72C283D28BACDFB8DFF2329F0CB
:100A70002F8D211102C032E03F8F25FE0EC08091E4
:100A8000820590918305A0918405B09185058138F8
:100A90009649A849B1050CF055C78C8D8823E9F01B
:100AA00020FE5FC7809168058130E9F523E333E3D9
:100AB0004BEC51E460917105709172058091730562
:100AC000909174050E944D38609371057093720582
:100AD000809373059093740526C0809167058130DB
:100AE00061F49F8D9230F9F4809166058035D9F0DC
:100AF0008823C9F020FE35C716C0809126058111D4
:100B000012C020FCCFCF8091340590913505A09183
:100B10003605B09137058093710590937205A093C7
:100B20007305B093740530FC10C08091300590912E
:100B30003105A0913205B091330580938E059093D5
:100B40008F05A0939005B093910580916505843041
:100B500039F426FC03C07CE1D72E1EC7E89426F8A2
:100B600080916A05882341F0813061F01CA6E2E0A3
:100B7000E9A7F1E0F8A70BC0A2E0ACA7B1E0B9A7E4
:100B800018A605C021E02CA719A632E038A780914D
:100B90006805813021F06F8D6330A1F52BC063E9CA
:100BA000E62E65E0F62E00E010E08B8DC82ED12CED
:100BB000C601002E02C0959587950A94E2F780FF42
:100BC00010C023E333E34BEC51E4D7016D917D91E9
:100BD0008D919C910E944D38F701608371838283CF
:100BE00093830F5F1F4FF4E0EF0EF11C03301105EC
:100BF000F9F6D1CF80916B05813021F42B8D243013
:100C000009F0A3C68CE0E9E4F5E0DE01119601905D
:100C10000D928A95E1F78CA19DA191FD09C090915B
:100C200065059D8F9A30C1F09C3509F4A9C00BC1B0
:100C300080916C05873018F05DE1D52EADC690919E
:100C40002B05981761F3BE016F5F7F4F0E94A826A6
:100C5000882309F49AC6E3CFAB8DA11103C04AE102
:100C6000D42E9AC6C10180759927892B09F473CFB8
:100C7000609186057091870580918805909189051E
:100C80000E941B390E9483366730B0F6809181053F
:100C9000843129F0823009F05BC627FC59C6BFEACF
:100CA0002B22662319F061506D8F03C0E0916C0513
:100CB000ED8F65E775E08D8D0E94A826882309F4E5
:100CC00064C6709081058090610590906205A09047
:100CD0006305B090640505E715E03DE3C32E35E0FC
:100CE000D32EE12CF12CFB8D4F2E512CC2010E2C5A
:100CF00002C0959587950A94E2F780FF33C024E1FE
:100D0000721227C0D60158962D913D914D915C915C
:100D10005B976D917D918D919C910E943535F80185
:100D2000268D378D40A151A10E943535D8016D9394
:100D30007D938D939C931397B2E0EB1213C0A501A2
:100D400094010E943535F801608371838283938317
:100D500009C0F801868D978DA0A1B1A180839183F0
:100D6000A283B383FFEFEF1AFF0A0C5F1F4F24E04B
:100D7000C20ED11C33E0E316F10409F0B7CF2CC149
:100D80006B8D662309F46BCF40906105509062052E
:100D9000609063057090640503E915E02DE3C22EB1
:100DA00025E0D22ECE0101965C01E12CF12C862E9D
:100DB000912CC4010E2C02C0959587950A94E2F7F8
:100DC00080FF26C0D5012D913D914D915C91F6019A
:100DD00060817181828193810E943535D8012D9186
:100DE0003D914D915C910E943535F801608371838E
:100DF00082839383F2E0EF1215C0A30192010E9457
:100E00003535D8016D937D938D939C9313970AC0CC
:100E1000F601808D918DA28DB38DF8018083918331
:100E2000A283B383FFEFEF1AFF0A0C5F1F4F24E08A
:100E3000C20ED11C34E0A30EB11C63E0E616F1042F
:100E400009F0B7CFC8C08F8D833071F49D8D9E316E
:100E500009F489C0953309F4B9C09C3109F0BBC0CD
:100E600065E775E086E082C0AB8DAA2379F3B09187
:100E70006905BEA3409061055090620560906305CE
:100E8000709064059DE3C92E95E0D92E03E915E025
:100E9000FE0131964F01E12CF12CAA2EB12CC50197
:100EA0000E2C02C0959587950A94E2F780FD0BC041
:100EB000F60180819181A281B381F80180839183C1
:100EC000A283B3833FC0FD8DF533E1F12EA1211143
:100ED00028C0D60158962D913D914D915C915B971C
:100EE000F40160817181828193810E943635D8013D
:100EF0002D913D914D915C910E943635F8016083B2
:100F0000718382839383F2E0EF121CC0A3019201EC
:100F10000E943635D8016D937D938D939C931397E2
:100F200011C0F6012081318142815381D8016D9138
:100F30007D918D919C910E943635F801608371837B
:100F400082839383FFEFEF1AFF0A24E0C20ED11CC5
:100F50000C5F1F4F34E0830E911C63E0E616F10432
:100F600009F09DCF73CF65E775E087E00E94A82662
:100F7000882309F40AC58B8D811103C01D8E1F8E35
:100F80002BC020E030E080E090E0AB8D4A2F50E0B5
:100F9000BA01082E02C0759567950A94E2F760FDC4
:100FA0000EC0F901EB5DFA4FC08CD18CE28CF38C52
:100FB000F901EB59FA4FC08AD18AE28AF38A019685
:100FC0002C5F3F4F8330910519F705C0809166056E
:100FD000823008F0C0C41D8E10916605103521F4D2
:100FE000BB8DB111BBC441C2EF8DE23009F03DC2EF
:100FF000111105C0FB8DFF2309F436C236C220E073
:1010000030E0A901609171057091720580917305BE
:10101000909174050E940F36882309F4A2C41C38ED
:1010200009F40CC240F41230A1F01330A9F01130D1
:1010300009F01BC209C01E3809F400C208F4FBC144
:101040001F3809F4F8C111C22B8D222309F40CC2F8
:101050000CC23C8D34603C8F6B8D662309F4FFCD50
:1010600098A5892F90E09FA38EA3B9A5AB2FB0E0E0
:10107000BBA7AAA781E090E03C0109A402C0660CCE
:10108000771C0A94E2F708A402C0880F991F0A94FB
:10109000E2F7682A792A862F90E086219721892B0A
:1010A00009F462C4EEA1FFA1EE0FFF1FEE0FFF1FB8
:1010B000EB59FA4FAEA1BFA1AA0FBB1FAA0FBB1FCE
:1010C000A35CBA4F2D913D914D915C9166A577A59A
:1010D00080A991A90E9435356B017C01EAA5FBA589
:1010E000EE0FFF1FEE0FFF1FEB59FA4FAAA5BBA58E
:1010F000AA0FBB1FAA0FBB1FA35CBA4F2D913D9136
:101100004D915C9166A577A580A991A90E9435357E
:101110004B015C0127FEE5C0E89427F84CE050E065
:1011200063E975E08DE395E00E949C39892B19F401
:10113000E1E2DE2E31C4809168058130B1F423E311
:1011400033E34BEC51E460918A0570918B058091FB
:101150008C0590918D050E944D3860938A0570939F
:101160008B0580938C0590938D0540908A05509057
:101170008B0560908C0570908D0520E030E040E894
:1011800050E4C301B2010E944D38A30192010E94B4
:101190004D382B013C01A7019601C701B6010E9401
:1011A0004D389B01AC01C301B2010E9435352B01C2
:1011B0003C01A5019401C501B4010E944D389B0179
:1011C000AC01C301B2010E9435352B013C0120E086
:1011D00030E0A9010E940F3687FDC9C3C301B201E7
:1011E0000E94DA382B013C01A5019401C701B60128
:1011F0000E94F1149B01AC01C301B20190580E94FE
:1012000016362B013C0180916605833021F477FA74
:10121000709477F8709480918A0590918B05A091D5
:101220008C05B0918D0588A399A3AAA3BBA320E048
:1012300030E0A901BC01CD010E940F3687FF11C02B
:1012400077FA709477F8709488A199A1AAA1BBA1AC
:10125000B05880938A0590938B05A0938C05B0932A
:101260008D050EA11FA1000F111F000F111F0B589C
:101270001A4FA3019201C501B4010E944D389B0190
:10128000AC01C701B6010E94353520E030E040E0F6
:101290005FE30E944D38D8016D937D938D939C93AD
:1012A00013970AA51BA5000F111F000F111F0B5844
:1012B0001A4FA3019201C701B6010E944D389B014C
:1012C000AC01C501B4010E94363520E030E040E0B9
:1012D0005FE30E944D38F8016083718382839383BA
:1012E000C4C0F8A14F2E512C64207520672809F442
:1012F00041C321EF222280916805813009F456C054
:101300000AA51BA5000F111F000F111F0B581A4F24
:10131000D8012D913D914D915C91C501B4010E9480
:1013200035352B013C01AEA0BFA0AA0CBB1CAA0CFA
:10133000BB1CF501EB58FA4F5F01208131814281DE
:101340005381C701B6010E943535A30192010E9465
:10135000F1146B017C01D8012D913D914D915C916F
:10136000F50160817181828193810E94F1144B01AA
:101370005C0160938A0570938B0580938C05909334
:101380008D059B01AC01C701B6010E9435356B018B
:101390007C01E894F7F82AE037ED43EA5BE3C70104
:1013A000B6010E94123818164CF15FC035E7632E63
:1013B00035E0732E00E010E0C201002E02C09595CA
:1013C00087950A94E2F780FF10C023E333E34BECE8
:1013D00051E4D3016D917D918D919C910E944D3886
:1013E000F30160837183828393830F5F1F4FF4E067
:1013F0006F0E711C03301105F9F682CF20E030E04A
:1014000040E05FE3C701B6010E94123818160CF4E1
:101410008FCE2FE632E143E85AE3C501B4010E94C2
:101420004D389B01AC01C701B6010E941238181655
:101430000CF47ECE1AC02C8D20612C8F1E581230D9
:1014400018F43C8D38603C8F6B8D662309F407CC13
:101450004CE050E063E975E08DE395E00E949C3933
:10146000892B09F465CE01C01F8E8C8D8170D82E1A
:101470009C8D90FF03C0C1018E7D03C0C1018E7D94
:101480009C7FAF8DA111937E892B09F076C23E011E
:10149000BDE06B0E711C89E0F30111928A95E9F7AA
:1014A000DD2081F18CA19DA1867B892B09F068C28A
:1014B00080916505853311F0811162C280913005FC
:1014C00090913105A0913205B0913305898B9A8BAB
:1014D000AB8BBC8B80912D0590912E05892B8D8B2C
:1014E00065E675E0C3010E94E60C81114CC28CE0F8
:1014F000E3E9F5E0ADE3B5E001900D928A95E1F7FF
:10150000D12C4AC28091F90610912E0581FF26C088
:10151000809166058150833018F0FC8DF064FC8F5B
:101520002B8D222339F03F8D323021F46C8D606891
:101530006C8F14C0103191F48091250581509C8DE1
:101540009074833030F4992349F08C8D80628C8FB5
:1015500005C0911103C09C8D90629C8F8091820583
:1015600090918305A0918405B091850580933905FC
:1015700090933A05A0933B05B0933C058091670595
:1015800080932605882311F088E08D8B40917105AA
:101590005091720560917305709174054093340504
:1015A0005093350560933605709337054D875E87F8
:1015B0006F87788B20918E0530918F054091900533
:1015C00050919105609130057091310580913205FF
:1015D000909133050E940F36811103C0AC8DA5FF99
:1015E00015C0112319F0812F0E944F2880918E057C
:1015F00090918F05A0919005B09191058093300551
:1016000090933105A0933205B0933305BC8DB6FDA0
:101610000CC08091300590913105A0913205B091B8
:101620003305898B9A8BAB8BBC8B80919205809311
:10163000380580916F0590912E05981731F00E9422
:101640004F2880916F0580932E058D8990912E05EE
:10165000892B8D8B80916E0590912D05981771F0D7
:101660000E94C60190916E05911103C010922D0544
:1016700005C080912D05892B80932D058D89909132
:101680002D05892B8D8B80916505843051F46091F7
:1016900086057091870580918805909189050E9443
:1016A0003A1380916A05809329058091680580939B
:1016B0002705EF8DE33071F580916B0580932A0546
:1016C000811108C010929B0510929C0510929D05F7
:1016D00010929E0580909B0590909C05A0909D0582
:1016E000B0909E05A501940160916105709162051D
:1016F00080916305909164050E940F36882351F014
:101700008092610590926205A0926305B092640593
:101710000E94E73280916C0590912B05981769F033
:1017200080932B058CE0FE013196A9E4B5E0019091
:101730000D928A95E1F70E94E732809169058093C6
:101740002805809165058632F1F138F48C3109F174
:101750008E31F9F08A3069F04FC08C35D1F1863680
:1017600009F441C0883209F047C06DE375E087E0B5
:101770002DC065E775E08D8D0E94262580912B0593
:10178000FD8D8F1339C08CE0E5E7F5E0A9E4B5E005
:1017900025C08D8981608D8B2F8D222329F0B30187
:1017A00083E995E00E941010B30185E795E00E945F
:1017B00010108CE0E5E7F5E0ADE3B5E001900D92A7
:1017C0008A95E1F719C06DE375E086E00E94262551
:1017D00013C08CE0E3E9F5E0A5E5B5E001900D92DA
:1017E0008A95E1F707C08CE0E5E5F5E0DF011D92A1
:1017F0008A95E9F70E94E732809166058093250576
:10180000803509F448C0BF8DB23009F044C0813042
:1018100029F0811109C08D8981608D8BB30183E925
:1018200095E00E94101029C082508230D8F4E090D8
:101830008A05F0908B0500918C0510918D05EC8D3B
:10184000E2FB332430F83F928CA4A9A4C8A425E776
:1018500035E04DE355E0B30183E995E00E944B107C
:101860000F900BC08D8984608D8B4C8DB30183E903
:1018700095E00E94731381110AC08CE0E3E9F5E062
:10188000ADE3B5E001900D928A95E1F704C0813097
:1018900011F40E949B0280916D0580932C05882392
:1018A00009F47AC00E94131F80912C059091A00525
:1018B000833041F4923089F188E00E9454330E94D1
:1018C000AA1D2BC081E08093250510922905109256
:1018D00028051092260510922B0510922E051092C5
:1018E0002D0584E68093A7058093A8058093A9051C
:1018F000923081F069E475E080E00E94A826882398
:1019000009F443C00E94E73280E00E943D2880E055
:101910000E94B80188E00E94A71F10922C053CC0CD
:10192000DD24D39439C022E0D22E36C098E1D92EDE
:1019300033C086E2D82E30C009E1D02E2DC014E08D
:10194000D12E2AC0BBE1DB2E27C0A5E2DA2E24C0AF
:10195000F4E1DF2E21C0EEE1DE2E1EC07FE1D72EA6
:101960001BC066E1D62E18C050E2D52E15C042E24B
:10197000D42E12C033E2D32E0FC024E2D22E0CC0DC
:1019800090E1D92E09C0D82E07C087E0D82E04C018
:101990001A8E1C8E0C94DD028D2DAC960FB6F89429
:1019A000DEBF0FBECDBFDF91CF911F910F91FF9092
:1019B000EF90DF90CF90BF90AF909F908F907F90EF
:1019C0006F905F904F903F902F9008950F931F93CB
:1019D000CF93DF93EC01FB014485558566857785C0
:1019E000488359836A837B83888584608887809154
:1019F000F9068F01025D1F4F85FD09C0BE01C801B8
:101A00000E9410108091A005811113C007C0C80169
:101A10000E942033882391F38FE00CC00E9431177D
:101A2000892B39F080E28093A0050E948B2B0E94C5
:101A3000652880E0DF91CF911F910F910895EBE62B
:101A4000F0E08081817F8083E8E6F0E080818E7F16
:101A50008083089584B1817F84B985B18E6085B912
:101A60008091F90683FF0BC080916B008E6080939C
:101A70006B008091680081608093680008950C94E9
:101A80001F0DCF92DF92FF920F931F93CF93DF939F
:101A90001F92CDB7DEB793B19E708091F90686FD97
:101AA00002C08EE098279923D9F0C12CD12CF12CBB
:101AB00001E010E08C2D99830E94232899818923CD
:101AC00039F098010C2C01C0220F0A94EAF7F22A8F
:101AD0008FEFC81AD80AE3E0CE16D10459F701C037
:101AE000F12C8F2D0F90DF91CF911F910F91FF90CF
:101AF000DF90CF9008951F920F920FB60F9211248E
:101B00002F933F934F935F936F937F938F939F9305
:101B1000AF93BF93EF93FF938091A005813049F07D
:101B20008091C805811105C00E94E11381E00E94E7
:101B30000B35FF91EF91BF91AF919F918F917F9165
:101B40006F915F914F913F912F910F900FBE0F902A
:101B50001F9018952F923F924F925F926F927F92B3
:101B60008F929F92AF92BF92CF92DF92EF92FF92AD
:101B70000F931F93CF93DF93CDB7DEB76E970FB65A
:101B8000F894DEBF0FBECDBF782E8091A1058111E4
:101B9000B3C19E01235F3F4F3A8F298F89E0D9015E
:101BA0001D928A95E9F786E08D8B48EDA42E46E0DC
:101BB000B42EFE0176964F0100E010E0C12CD12C2E
:101BC0007601272D30E03C8F2B8F802F0E940F282D
:101BD000D4018D934D018B8D9C8D002E02C0959567
:101BE00087950A94E2F780FF1DC020E030E040ECCA
:101BF0005FEBF50160817181828193810E944D3894
:101C0000362E472E582E692E262F372F482F592F24
:101C1000C701B6010E941238181624F0C32CD42C28
:101C2000E52CF62C0F5F1F4FF4E0AF0EB11C033014
:101C3000110559F68090FF0690900007A0900107CB
:101C4000B090020734E0632E01E0442443946CEB2F
:101C500075E0CE0101960E9406338091FA06282F86
:101C600030E03E8F2D8FFE0131962CEB222E25E0A9
:101C7000322E60E070E0512C10E0A7019601505820
:101C80008B8D9C8D062E02C0959587950A94E2F760
:101C900080FF27C05394D1011D921D921D921C926A
:101CA00013978D8D9E8D062E02C0959587950A946B
:101CB000E2F780FF03C0002319F007C0002329F0DA
:101CC000C082D182E282F38204C0208331834283C6
:101CD0005383A6E1B0E0AC0FBD1FA60FB71F8C91D8
:101CE000182B6F5F7F4F3496B4E02B0E311C63309E
:101CF000710531F6652D70E080E090E00E94AF360E
:101D00000E94DA389B01AC011093A605C501B4010D
:101D10000E944D386D877E878F87988BBE01635FE9
:101D20007F4FCE0101960E945118E4E0E093A40594
:101D30000E948B2B0E9465280023E9F00E94410D30
:101D4000FE01769620E030E090E06191462F41233D
:101D500059F0AC01022E02C0559547950A94E2F75E
:101D600040FF02C0609516232F5F3F4F233031059F
:101D700061F71093A6050E948B2B8091AE058473AA
:101D800031F11091AE0514FF03C086E00E940B35BF
:101D900015FF03C087E00E940B35011106C00E94A9
:101DA000410D872139F088E003C012FF03C089E0AC
:101DB0000E940B358091C805882329F00E94E11309
:101DC0000E94AA1D99C084E00E94013504C0812FA1
:101DD0008C7109F0B1CF0E94152B8091030790916F
:101DE00004070E94E6140425C9F020E030E040EA30
:101DF00050E4609105077091060780910707909164
:101E000008070E944D386B017C018090FB06909082
:101E1000FC06A090FD06B090FE0610C0C09005071D
:101E2000D0900607E0900707F09008078090FF0623
:101E300090900007A0900107B09002076A9409F003
:101E400006CF2090FA06312CC0900507D0900607E7
:101E5000E0900707F09008072601370177FA7094A1
:101E600077F8709484EBA82E86E0B82E9CEB892E30
:101E700095E0992E00E010E08B8D9C8D002E02C025
:101E8000959587950A94E2F780FF29C0C101002E3D
:101E900002C0959587950A94E2F7D50180FF10C09E
:101EA00094962D913D914D915C919797C701B60104
:101EB0000E943635F501208131814281538106C06F
:101EC0002D913D914D915C91C301B2010E944D381D
:101ED0000E941D38F40160837183828393830F5FB6
:101EE0001F4FF4E08F0E911C24E0A20EB11C0330B2
:101EF000110511F61092A4056E960FB6F894DEBF88
:101F00000FBECDBFDF91CF911F910F91FF90EF904A
:101F1000DF90CF90BF90AF909F908F907F906F9009
:101F20005F904F903F902F9008950E942033882318
:101F3000E1F081E08093A3058091A005883039F01D
:101F40000E94E11382E00E940B350C94AA1D88E0E8
:101F50000E9454330E94AA1D8091A105811105C0E1
:101F60008091A0058111F6CFEBCF08950E94132434
:101F70000E9402280E94452B0E946E328CE0ECEBFE
:101F8000F5E0DF011D928A95E9F778941092A0059B
:101F90008091F90684FF03C081E08093A00500EAE8
:101FA00015E08DE0D82E94E6F92EC0EBD5E02CE0BC
:101FB000E22E8091A005F8019D2D11929A95E9F7E6
:101FC0008093A005F092A705F092A805F092A905CC
:101FD000DE01EE2D1D92EA95E9F71092AF05109201
:101FE000AE051092C80510929F051092AD050E9493
:101FF000FE240E9489020E9439280E94B5010E9495
:102000002A0D0E94E41B0E940B170E94152B0E94B0
:10201000911A0E949B020E94DD1F0E94861EC9CF5A
:102020000F931F93CF93DF938C01EB018091F906FF
:1020300085FF07C08091A005803219F0C8010E9479
:10204000950F8091A005823009F10E94AA1D809110
:10205000A10581111BC00E945A17882319F00E9404
:10206000041CF3CFBE01C8010E94511881110EC09B
:102070008091F90681FF0AC0888584FF07C080E14E
:10208000DF91CF911F910F910C944F28DF91CF9149
:102090001F910F9108952F923F924F925F926F92EE
:1020A0007F928F929F92AF92BF92CF92DF92EF92E8
:1020B000FF920F931F93CF93DF93CDB7DEB7E297D5
:1020C0000FB6F894DEBF0FBECDBF9A8B898B7A878F
:1020D00069875C8B4B8B3901ED82FE820F831887F9
:1020E000FA2C8F8628962FAD28972D8B34E0C39E2F
:1020F00010011124CA01820D931D988F8F8BD3017B
:10210000A20DB31DBA8FA98F8D909D90AD90BC90FC
:10211000FC012081318142815381C501B4010E94BB
:1021200036356B8F7C8F8D8F9E8FF4E0FF9E800104
:1021300011242B893C89200F311F38A32F8FC30115
:10214000800F911F9AA389A3DC01CD90DD90ED90C3
:10215000FC90F9012081318142815381C701B60190
:102160000E9436356BA37CA38DA39EA32401350169
:1021700077FA709477F87094D701C601B0588983C4
:102180009A83AB83BC83E989FA89E20DF31D2B8D19
:102190003C8D4D8D5E8D60817181828193810E9425
:1021A00035356B017C01E989FA89E00FF11F2BA11C
:1021B0003CA14DA15EA160817181828193810E94C9
:1021C00035354B015C01A7019601C301B2010E94A4
:1021D0004D386B877C878D879E87A5019401698127
:1021E0007A818B819C810E944D389B01AC016B856B
:1021F0007C858D859E850E9436356B877C878D8793
:102200009E87A5019401C301B2010E944D384B0184
:102210005C01A701960169817A818B819C810E9472
:102220004D389B01AC01C501B4010E9435352B85A9
:102230003C854D855E850E94A9356B017C019D8999
:10224000992399F02DEB37E346E055EBC701B60132
:102250000E94123887FD1DC02BED3FE049EC50E491
:10226000C701B6010E94353512C02DEB37E346E0B9
:1022700055E3C701B6010E940F36181654F02BED36
:102280003FE049EC50E4C701B6010E9436356B01CE
:102290007C018090ED069090EE06A090EF06B09045
:1022A000F0062D813E814F815885CA01B9010E94F7
:1022B0003635A50194010E9435359B01AC01C5015D
:1022C000B4010E944D380E94DA384B015C0120E0D5
:1022D00030E040E05FE3C701B6010E944D382D8138
:1022E0003E814F8158850E944D389F77A50194010A
:1022F0000E9416360E94EC360E9483367E8B6D8BD0
:10230000DB01AB2BF1F469857A8589899A89E2969C
:102310000FB6F894DEBF0FBECDBFDF91CF911F91F6
:102320000F91FF90EF90DF90CF90BF90AF909F9074
:102330008F907F906F905F904F903F902F900C9474
:102340001010E985FA8510854B01A12CB12C13FFE3
:1023500016C0C501B4010E94AF369B01AC01A9852E
:10236000BA856D917D918D919C910E944D38E98542
:10237000FA856083718382839383177F1087C501F9
:10238000B4010E94AF364B015C019B01AC01C70157
:10239000B6010E9416366D837E838F8398872F85C2
:1023A000F4E02F9F100111248B899C89820D931DCD
:1023B000988B8F87E989FA89E20DF31DDC012D9155
:1023C0003D914D915C9160817181828193810E94E8
:1023D0003535A50194010E9416366FA778AB89ABFD
:1023E0009AAB2D813E814F815885CA01B9010E9467
:1023F0004D389B01AC0160E070E080E090E40E9409
:1024000035356B017C012BEA3AEA4AE25EE36D81E5
:102410007E818F8198850E944D384B015C0120E0C0
:1024200030E040E850E4C701B6010E9436359B0118
:10243000AC01C501B4010E944D386B877C878D8744
:102440009E8720E030E040E05FE3C701B6010E94D4
:102450004D386FA378A789A79AA710E02224239468
:10246000312CED89FE892E163F0609F44CCF1C3025
:1024700008F042C02FA138A549A55AA569817A81E3
:102480008B819C810E944D386B017C012B853C85A2
:102490004D855E85C301B2010E944D38A7019601AA
:1024A0000E943635B62EA72E982E892E2FA138A53C
:1024B00049A55AA5C301B2010E944D386B017C01A8
:1024C0002B853C854D855E8569817A818B819C81D8
:1024D0000E944D389B01AC01C701B6010E94353501
:1024E0002B013C011F5F8B2D9A2DA92DB82D8983BF
:1024F0009A83AB83BC8365C0B10180E090E00E9409
:10250000AF362D813E814F8158850E944D386B0139
:102510007C010E94133669837A838B839C83C70175
:10252000B6010E94D0384B015C01E98DFA8DC08064
:10253000D180E280F380F7FAF094F7F8F094A9A143
:10254000BAA18D919D910D90BC91A02D8BA79CA7B8
:10255000ADA7BEA729813A814B815C81C701B60135
:102560000E944D382B013C01A50194016BA57CA56F
:102570008DA59EA50E944D389B01AC01C301B201FF
:102580000E9436352B013C01A5019401C701B6011B
:102590000E944D386B017C0129813A814B815C811D
:1025A0006BA57CA58DA59EA50E944D389B01AC0115
:1025B000C701B6010E94353569837A838B839C837A
:1025C00010E0A30192016B8D7C8D8D8D9E8D0E94FC
:1025D0003635EF89F88D60837183828393832981F7
:1025E0003A814B815C816BA17CA18DA19EA10E944F
:1025F0003635AF8DB8A16D937D938D939C931397D2
:102600002FA538A949A95AA9EF85F8896081718158
:10261000828193810E943635AF85B8896D937D9311
:102620008D939C93139769857A858B899C890E94E9
:1026300010108091A105811104C0BFEF2B1A3B0A35
:1026400010CFE2960FB6F894DEBF0FBECDBFDF917C
:10265000CF911F910F91FF90EF90DF90CF90BF909F
:10266000AF909F908F907F906F905F904F903F9032
:102670002F900895CF93DF9300D000D0CDB7DEB771
:102680002091A005223099F069837A838B839C8303
:102690000E94131F40E069817A818B819C810F9099
:1026A0000F900F900F90DF91CF910C94B5140F9075
:1026B0000F900F900F90DF91CF9108950E941F0D02
:1026C00084E00E94AA0D83E00E94AA0D0E94AA1D28
:1026D0008091A105811106C00E949B020E94911A5F
:1026E0000C942A0D0895FF920F931F93CF93DF93BD
:1026F000EC018B01F42E8091A005823009F45AC0C0
:102700000E94131F8091A105811113C01092A5058D
:10271000F3FA882780F90E94D21B0E94E91B8823C4
:1027200051F084E00E940B350E94AA1D80E00E94B7
:10273000D21B82E040C0B801CE010E94101081E09F
:102740008093AF0582E00E9454330E94AA1D8091BD
:10275000A1058111EECF8091A0058111F6CF809166
:10276000AF05813081F4F4FE0AC08CE0ECEBF5E0BB
:10277000A0EBB5E001900D928A95E1F707C085E0E6
:102780000E940B3503C081E08093A5051092AF0530
:1027900080E00E94D21B0E94AA1D0E94152B0E945D
:1027A0000B170E94911A0E94EC2081E09091A505E0
:1027B000911101C080E0DF91CF911F910F91FF90A7
:1027C00008958091AE0584FD1DC080E10E945433C0
:1027D0000E9437280E94B3019091A005892F8C7226
:1027E00021F48091A405867069F0943031F48091D1
:1027F000C805811105C086E001C083E00E940B3549
:102800000C947D2808956F927F928F929F92AF9241
:10281000BF92CF92DF92EF92FF920F931F93CF93CD
:10282000DF937C018B016A01FB018081F701E80FD6
:10283000F11D2081EF012D3229F422962181662499
:10284000639407C02B3211F0219602C02296218199
:10285000612CA12CB12C712C60E070E0CB01FE0149
:1028600030ED932E920E29E02915C8F0B39428E09C
:102870002B1588F0A1107A94A5E0B0E09B01AC0183
:102880000E948239660F771F881F991F690D711D7D
:10289000811D911D0BC0A11009C0739407C02EEFBC
:1028A000921207C0A11005C0AA24A39421962081EA
:1028B000D6CFBB2009F449C00E94AF364B015C0162
:1028C00020E030E0A9010E940F36882361F18FEFEC
:1028D00078166CF42AE037ED43E25CE3C501B401FD
:1028E0000E944D384B015C0173947394F0CF7812C1
:1028F0000BC02DEC3CEC4CEC5DE3C501B4010E9437
:102900004D384B015C010FC0772069F020E030E0CA
:1029100040E251E4C501B4010E944D384B015C0115
:102920007A9417149CF3662021F0B7FAB094B7F8A4
:10293000B094F60180829182A282B382CE19DF091F
:10294000C150F801C08381E001C080E0DF91CF91E8
:102950001F910F91FF90EF90DF90CF90BF90AF90BD
:102960009F908F907F906F9008950F931F93CF93B8
:10297000C42F20E030E040EA51E40E944D380E942C
:10298000FC350E9483368B0101151105D9F0809129
:10299000A105811117C0C11103C00E94AA1D06C064
:1029A0000E940C1C8091A20581FD0CC02FEF80E7D6
:1029B00092E0215080409040E1F700C000000150BB
:1029C0001109E2CFCF911F910F910895009741F027
:1029D000EFE9FFE03197F1F700C000000197F6CF73
:1029E00008958F929F92AF92BF92CF92DF92EF9213
:1029F000FF9269017A019B01AC010E944D384B01A5
:102A00005C01A7019601C701B6010E944D389B01E8
:102A1000AC01C501B4010E943635FF90EF90DF9004
:102A2000CF90BF90AF909F908F900C94DA387F92A8
:102A30008F929F92AF92BF92CF92DF92EF92FF92CE
:102A40000F931F93CF93DF93EC018C01C12CD12CFA
:102A50007601712CF80181909190A190B1908F0135
:102A600020E030E0A901C501B4010E940F3688239F
:102A700071F0A5019401C501B4010E944D389B017C
:102A8000AC01C701B6010E9436356B017C0173941D
:102A9000F3E07F12DFCFC701B6010E94DA384B01A5
:102AA0005C019B01AC0160E070E080E89FE30E9464
:102AB00016366B017C019B01AC01688179818A81AA
:102AC0009B810E944D38688379838A839B83A70109
:102AD00096016C817D818E819F810E944D386C832F
:102AE0007D838E839F83A7019601688579858A857A
:102AF0009B850E944D38688779878A879B87C501A7
:102B0000B401DF91CF911F910F91FF90EF90DF9073
:102B1000CF90BF90AF909F908F907F9008956F92CD
:102B20007F928F929F92AF92BF92CF92DF92EF925D
:102B3000FF920F931F93CF93DF935C018B01C0E053
:102B4000D0E049E9642E56E7752E66E9862E7EE7C9
:102B5000972EF801C190D190E190F1908F0120E083
:102B600030E0A901C701B6010E940F368823C9F0E1
:102B7000A7019601F501EC0FFD1F60817181828133
:102B800093810E9416366B017C01E894F7F8A70147
:102B90009601B301C4010E940F3687FD02C03601C1
:102BA00047012496CC30D105A1F6B301C401DF91D1
:102BB000CF911F910F91FF90EF90DF90CF90BF903A
:102BC000AF909F908F907F906F9008954F925F92FB
:102BD0006F927F928F929F92AF92BF92CF92DF922D
:102BE000EF92FF920F931F93CF93DF9310911E01EB
:102BF000111101C010E1115000911C01101709F4CE
:102C0000EFC08EE2189FE0011124C05EDE4F8E8877
:102C10009F88A88CB98C6A8D7B8D8C8D9D8D9B0136
:102C2000AC010E9436352E8D3F8D48A159A10E94DE
:102C30004D386B017C019B01AC01B401C5010E94C0
:102C40000F3687FF02C064017501A601B7014A8BE8
:102C50005B8B6C8B7D8B111101C010E177247A9412
:102C6000710E701619F02EE2622E27C080911F019E
:102C7000081351C00E94672B4EC0679C800111242D
:102C8000005E1E4F711002C090E1792E7A948091FF
:102C90001F01781202C00E94672BF801C688D788EE
:102CA000E08CF18CA70196016289738984899589EA
:102CB0000E940F36811106C0E80180911C01781234
:102CC000DCCF29C0F801628D738D848D958D9B01B9
:102CD000AC010E943635F801268D378D40A151A1F7
:102CE0000E944D382A893B894C895D890E9436357E
:102CF0004B015C01A70196010E940F36F80187FF86
:102D000005C0828A938AA48AB58AD6CFC28AD38A1A
:102D1000E48AF58AD1CF60901C01FEE26F9E8001AB
:102D20001124005E1E4F77247394760C80E1781294
:102D300001C0712C50901E018EE2482E751409F4CA
:102D40004DC0479CE0011124C05EDE4FF80182882F
:102D50009388A488B588CA88DB88EC88FD88A70199
:102D60009601C501B4010E940F3687FF23C0F80108
:102D7000628D738D848D958D9B01AC010E943635DB
:102D8000F801268D378D40A151A10E944D389B013D
:102D9000AC01C501B4010E9436354B015C01A701AD
:102DA00096010E940F3687FF05C08A8A9B8AAC8AEB
:102DB000BD8A672C2E893F89488D598D6A897B8908
:102DC0008C899D890E940F36811101C0672C7394F4
:102DD000F0E17F1201C0712C8E01B0CF60921C0116
:102DE000DF91CF911F910F91FF90EF90DF90CF90E7
:102DF000BF90AF909F908F907F906F905F904F901B
:102E0000089510921F0110921E0181E080931D0110
:102E100010921C0108958CE1E0E0F1E0DF011D92C9
:102E20008A95E9F70C94011790911F0180911E017A
:102E3000891769F081E0890F803109F480E02091E1
:102E40001C01921302C080931C0180931F010895FE
:102E500080911E012EE2829FC0011124805E9E4F50
:102E6000089580911F0190911E01981739F02EE26C
:102E7000829FC0011124805E9E4F089580E090E003
:102E80000895E0911F01EF5FE03109F4E0E08091E7
:102E90001E01E81759F08EE2E89FF0011124E05E70
:102EA000FE4F6289738984899589089560E070E096
:102EB000CB01089581E020911F0190911D012913FC
:102EC00080E00895BF92CF92DF92EF92FF920F932E
:102ED0001F93CF93DF93EC01EAA4FBA40CA51DA5DF
:102EE000898980FF18C06091A80570E080E090E0BB
:102EF0000E94B1362AE037ED43E25CE30E944D3890
:102F00009B01AC01B701C8010E944D38B62EC72EF7
:102F1000D82EC92F29C082FD15C06091A70570E089
:102F200080E090E00E94B1362AE037ED43E25CE3B6
:102F30000E944D389B01AC01B701C8010E944D3879
:102F40007B018C01BEA0CFA0D8A4C9A52B2D3C2D00
:102F50004D2D5C2FB701C8010E941238181624F0BD
:102F6000BE2CCF2CD02EC12F20E030E040E85FE314
:102F70006B2D7C2D8D2D9C2F0E94123818162CF055
:102F8000B12CC12C20E8CFE301C02D2D6B2D7C2D61
:102F9000822F9C2FDF91CF911F910F91FF90EF9087
:102FA000DF90CF90BF9008954F925F926F927F9283
:102FB0008F929F92AF92BF92CF92DF92EF92FF9249
:102FC0000F931F93CF93DF9310911F01B0901E01B9
:102FD00039E9732E46E7842E56E9952E0EE76EE208
:102FE000A62E1B1509F440C0A19EE0011124C05E6D
:102FF000DE4FCE010E9462176B017C01272D382D18
:10300000492D502F0E94123818164CF4272D382DB8
:10301000492D502F672D782D892D902F04C09601B2
:10302000A701B601C7010E944D386E8B7F8B888F38
:10303000998F4AA05BA06CA07DA0A30192016E892C
:103040007F89888D998D0E941238181624F44E8A33
:103050005F8A688E798E1F5F103109F410E07C2C36
:103060008D2C9E2C0F2DBDCF872D982DA92DB02FE7
:103070008093180190931901A0931A01B0931B013A
:10308000DF91CF911F910F91FF90EF90DF90CF9044
:10309000BF90AF909F908F907F906F905F904F9078
:1030A00008952F923F924F925F926F927F928F92EC
:1030B0009F92AF92BF92CF92DF92EF92FF920F93C7
:1030C0001F93CF93DF93CDB7DEB7E7970FB6F89492
:1030D000DEBF0FBECDBF7EAB6DAB00911E012EE2F9
:1030E000209F80011124005E1E4FF80111922A9545
:1030F000E9F7EDA9FEA92085F801218B21FF04C085
:103100002CE0ECEBF5E003C02CE0E0E0F1E0DE01C8
:10311000599601900D922A95E1F76C0174EBE72E18
:1031200076E0F72ECE0185969CAB8BAB3E0199E104
:10313000690E711C1801FE013D96FAABE9AB512CEA
:10314000F60161917191819191916F01F701208157
:103150003181428153810E944D380E941D38EBA974
:10316000FCA96193719381939193FCABEBABF30159
:1031700081909190A190B1903F01681979098A09D5
:103180009B099B01AC0197FF07C022273327A901A8
:10319000261B370B480B590BF101219331934193B7
:1031A00051931F01F80184849584A684B78428155F
:1031B00039054A055B0510F4A5019401F80124873F
:1031C0003587468757870E94B136F70120813181C4
:1031D000428153810E941636E9A9FAA9619371933D
:1031E00081939193FAABE9AB20E030E0A9010E9412
:1031F0000F3687FF08C0F8014088852D0E941928E6
:103200008429F801808B5394F4E0EF0EF11C23E045
:10321000521296CFF80184859585A685B785892BAE
:103220008A2B8B2B09F461C1CE010D960E941715D4
:10323000F801668F778F80A391A3BE01635F7F4FF4
:103240008CEC96E00E948F15F801628F738F848F4B
:10325000958FBE01635F7F4F80EC96E00E948F15D3
:10326000F80166A377A380A791A7F188F0FC14C0AA
:10327000EDA9FEA96081718182819381F80162A725
:1032800073A784A795A7F3FE0BC0268D378D40A1A9
:1032900051A10E944D38F80162A773A784A795A792
:1032A00090911E0180911F01981711F0F1FE06C048
:1032B000F801128A138A148A158A4AC08CE091E0B8
:1032C0009AAB89ABFE0131961F01CE010D969CABE6
:1032D0008BABC12CD12C7601EDAB3FAAE9A9FAA9A1
:1032E0004190519061907190FAABE9ABEBA9FCA9C8
:1032F00081909190A190B190FCABEBABA5019401B2
:10330000C301B2010E944D389B01AC01C701B60157
:103310000E9435356B017C01A3019201C501B40106
:103320000E943535F10161937193819391931F014F
:1033300089A99AA98851914089F62FEE3FEF4FE76E
:103340005FE3C701B6010E941238181634F4F80181
:1033500012A213A214A215A266C02FEE3FEF4FE7F0
:103360005FEBC701B6010E940F3687FF0AC089E9EB
:1033700096E7A6E9BEE7F80182A393A3A4A3B5A3A9
:1033800052C08DA99FA90E9417156DA97FA98CEC29
:1033900096E00E948F154B015C01A701960160E049
:1033A00070E080E89FE30E94353520E030E040E0A7
:1033B0005FE30E944D380E94DA386B017C01209156
:1033C000E9063091EA064091EB065091EC06C50102
:1033D000B4010E944D38A70196010E944D384B015F
:1033E0005C01A701960160E070E080E89FE30E9425
:1033F00035359B01AC01C501B4010E9416366B0145
:103400007C0120E030E0A9010E940F3687FF04C054
:10341000C12CD12CE12CF12CA601B701F80142A35B
:1034200053A364A375A3F801818981FD60C0C8011D
:103430000E9462176B017C01809018019090190125
:10344000A0901A01B0901B01A50194010E941238AE
:1034500018162CF4A5019401C501B40104C0A701FC
:103460009601C701B6010E944D38F801668B778B33
:10347000808F918FF80182A093A0A4A0B5A0A50190
:10348000940166897789808D918D0E941238181673
:103490002CF4F801868A978AA08EB18EC09218010A
:1034A000D0921901E0921A01F0921B018CE0FE010A
:1034B0003D96ACE0B1E001900D928A95E1F78CE089
:1034C000FE01B596A0E0B1E001900D928A95E1F77A
:1034D00080911D0180931E018F5F803109F480E08F
:1034E00080931D010E94E61502C080E001C081E0CA
:1034F000E7960FB6F894DEBF0FBECDBFDF91CF9138
:103500001F910F91FF90EF90DF90CF90BF90AF9001
:103510009F908F907F906F905F904F903F902F90F3
:1035200008958091BC059091BD05A091BE05B09114
:10353000BF058093000190930101A0930201B09315
:1035400003018091C0059091C105A091C205B09181
:10355000C3058093040190930501A0930601B093E5
:1035600007018091C4059091C505A091C605B09151
:10357000C7058093080190930901A0930A01B093B5
:103580000B01089590911E0180911F01981710F072
:10359000815F01C08150891B08950E94672B809133
:1035A0001F0180931C010C94E615CF93DF93EC016F
:1035B0008991882319F00E942324FACFDF91CF91BB
:1035C0000895CF93DF93FC018491EF012196882326
:1035D00021F00E942324FE01F7CFDF91CF910895BF
:1035E000CF93DF93843630F06AE00E943A39C0E32B
:1035F000C90F03C0C0E08A3030F06AE00E943A3957
:10360000D0E3D90F01C0D0E0805D0E942324DD23E8
:1036100019F08D2F0E942324CC2329F08C2FDF91C9
:10362000CF910C942324DF91CF9108958F929F9294
:10363000AF92BF92CF92DF92EF92FF920F931F93C0
:10364000CF93DF93CDB7DEB72D970FB6F894DEBFDB
:103650000FBECDBF6B017C01142F20E030E0A9012B
:103660000E940F3687FF07C08DE20E942324F7FADD
:10367000F094F7F8F094012F023060F020E030E091
:1036800048EC52E4C701B6010E944D386B017C0141
:103690000250F2CF10FF0AC020E030E040E251E4D7
:1036A000C701B6010E944D386B017C0120E030E07B
:1036B00040E05FE3C701B6010E9436350E947E36C6
:1036C000D12C5AE0852E912CA12CB12C61157105BD
:1036D0008105910591F0EE24E394F12CEC0EFD1E92
:1036E000ED0CF11CA50194010E945A39605DF701AF
:1036F0006083B901CA01D394E9CF80E3D11648F4BD
:10370000E1E0F0E0EC0FFD1FED0DF11D8083D3949F
:10371000F5CF8D2DD11213C0D394FE01E80FF11D0A
:1037200080E381830CC0D11203C08EE20E94232467
:10373000FE01ED0DF11D80810E942324DA94D11049
:10374000F2CF2D960FB6F894DEBF0FBECDBFDF913E
:10375000CF911F910F91FF90EF90DF90CF90BF908E
:10376000AF909F908F9008952091F90620FF08C098
:103770002BE832E441E25DE30E944D3844E001C0B1
:1037800043E00C94161B2091F90620FF08C02BE89B
:1037900032E441E25DE30E944D3841E001C040E087
:1037A0000C94161B1092C9059091F90697FD03C061
:1037B00090E29093C905882331F08091C90590E289
:1037C00089278093C90508953D98459A80E00C9417
:1037D000D21B86B180729091C905892708950E94F5
:1037E000E91B882381F01092AF058CE0ECEBF5E04B
:1037F000A0EBB5E001900D928A95E1F78091AE05BE
:1038000080648093AE0508950E943117892B19F0CA
:1038100082E00C9454330895CF93C091C805CC2313
:10382000B9F081E08093A0058C2F0E94971FC150B2
:10383000C23018F00E9411350BC081E00E94A71F12
:1038400080E10E9401358091AE0584FFFCCFF2CF6C
:10385000C091AE05CC2309F4F6C0C4FF04C081E0DA
:103860008093A10575C1C0FF05C00E945B2281E065
:103870000E9401358C2F887E09F462C08091A005DA
:10388000982F937009F04BC08872A1F08091A20527
:10389000807C81F40E94672B82E08093A405809154
:1038A000A005803239F4C7FD05C08091A20580686B
:1038B0008093A2058091A005811103C091E09093AF
:1038C000A205C6FF07C085FD05C09091A2059064C2
:1038D0009093A205C3FF05C0807E19F480E1809318
:1038E000A005C5FF1CC086E00E94A71F8091A2050D
:1038F00087FD10C09091A005903439F483FF07C074
:10390000837E82608093A20502C0903819F080E423
:103910008093A0058091A20580628093A205C7FFD5
:103920000CC08091A005813029F48091A2058560AA
:103930008093A20580E88093A00588EE0E9401355F
:10394000C1FF44C08C2F8876F1F58091A0058034AA
:1039500071F48091A20585FD0AC084FF03C0109216
:10396000A00505C082FF03C088608093A2058091F6
:10397000A005882381F084FF26C09091A20590FFC6
:1039800022C0803141F48091AA05882321F088600B
:103990008093AA0518C01092A4050E943117892BA4
:1039A00071F08091A20586FD0AC01092A20588E000
:1039B0008093A0050E948B2B0E94652804C0109262
:1039C000A2051092A00582E00E940135C2FF3BC013
:1039D0008091A005807D9091A2058823A9F0809117
:1039E000A305811111C097FD0FC00E94CD1A9091BF
:1039F000A40591FF05C08091A20581608093A20576
:103A0000997F9093A4051CC097FF0AC01092A4054B
:103A10000E940B170E94152B0E949B020E94911A74
:103A20008091A20585FF08C08F7781608093A205F1
:103A300080E48093A00504C01092A2051092A00516
:103A400084E00E940135C0919F05CC2381F10E9442
:103A500029353091A705C0FD02C0832F01C084E63F
:103A6000C1FD865FC2FD8A50C3FD8F5FC4FD8150DA
:103A7000893C08F088EC8A3008F48AE02091A80597
:103A8000C5FD02C0922F01C094E6C6FD92E3C7FDBA
:103A900099E1831302C0921751F08093A705909388
:103AA000A8051092AB050E94D4170E94CD1AC091B0
:103AB000AD05CC2309F445C00E942F359091A9058E
:103AC000C0FD02C0892F01C084E6C1FD865FC2FD32
:103AD0008A50C3FD8F5FC4FD8150893C08F088EC9B
:103AE0008A3008F48AE0891749F09091A40598601B
:103AF0009093A4058093A9051092AB058091A00531
:103B0000C5FF0DC0803159F49091AA05911102C0F2
:103B100092E003C090FF03C094609093AA05C07C1C
:103B200081F0882311F0887161F0C0912D05C6FFE6
:103B300002C0CF7B01C0C0648C2F0E94B801C0932B
:103B40002D058091A0058C7F19F0CF910C948B2BC3
:103B5000CF9108951F93CF93DF930E940C1C809107
:103B6000A205882309F4CEC00E943117009759F4AA
:103B700090912D0580912E05982BC92FC073D1E00F
:103B8000192F10740BC0FC019189F7CF8091A1050A
:103B90008111B8C020FD07C00E940C1C2091A20515
:103BA0002111F4CFAFC03091A005832F807C09F4A0
:103BB0006BC022FD0FC01092AA0580E00E943D2834
:103BC00080E00E94B8019091A2059D7F946090933F
:103BD000A205E2CF303891F48BE00E94A71F80E06D
:103BE0000E943D2880E00E94B8010E947D288091BB
:103BF000A105811187C00E940C1CF9CF303449F413
:103C00000E94C632811105C02091A2052F7D20930C
:103C1000A2052091A20523FFBFCF80912E05882306
:103C2000B1F021FD14C08091F90681FF06C02091FA
:103C3000A40528602093A4050AC08C2F0E943D286B
:103C400041E060E070E080E890E40E94B51480916B
:103C50002D05882371F08091A20581FD0AC0812F76
:103C60000E94B80141E060E070E080E89FE30E94BC
:103C7000B5142091A20521FD8FCF20612093A205CC
:103C800082E00E94543388CF2091AA05222369F153
:103C900021FF0AC080912E05882321F180E00E9437
:103CA0003D28D093AA0578CF2C7009F475CF809168
:103CB0002E05882381F08AE00E94A71F8091F906D3
:103CC00081FF06C02091A40528602093A40503C0AD
:103CD0008C2F0E943D288091AA0583FF03C082E0BB
:103CE0000E9454331092AA0557CF8091A40583FFF8
:103CF00053CF8C2F0E943D282091A405277F20932D
:103D0000A4054ACFDF91CF911F910895CF93DF9300
:103D10008091F90683FF0AC00E94410D882331F08B
:103D200081E08093A00587E00E94A71F8091A005F5
:103D3000817839F082E00E94A71F81E08093A0057E
:103D400030C01092A0050E94C632882339F08091BD
:103D5000AE0580628093AE050E94AA1D80E094E0CB
:103D60000E94C8321EC08D3061F0CC2399F1893297
:103D700009F4CD7F0E9469248F3F09F448C08A303E
:103D800091F70E94AA1D8091A105811149C0ED2FD4
:103D9000F0E0E050FC4F1082C0FF06C08BE00E94B4
:103DA000841FD0E0C0E0E6CF809100048823B9F3FF
:103DB000843229F480E094E00E945D33F0CF80915A
:103DC000A005817211F089E0EACF80E094E00E94C2
:103DD000A102E5CF813270F28F3261F2883289F030
:103DE0008B3389F0DF3488F42D2F30E0DF5F9FE9DB
:103DF000980FF901E050FC4F9A3108F4805280830B
:103E0000B9CFC2E0B7CFC4E0B5CFC1E0B3CF0E9415
:103E1000041C0E94AA1D8091A105882309F4AACF41
:103E2000DF91CF9108950E94041C0E94AA1D8091E9
:103E3000A105811108C00E943117892BB1F780912B
:103E4000A005883091F3089584E293E00C94E11A80
:103E50008DE50E9423240C94241FCF93DF93EC0163
:103E6000688179818A819B810E94B41B8CE20E94C7
:103E700023246C817D818E819F810E94B41B8CE202
:103E80000E942324688579858A859B85DF91CF915F
:103E90000C94B41BCF93C82F84E20E9423248C2F50
:103EA0000E94F01A8DE3CF910C942324CF93DF93DB
:103EB0001F92CDB7DEB769830E944A1F6981862FA2
:103EC0000E94F01A0F90DF91CF910C94241FCF9293
:103ED000DF92EF92FF92CF93DF931F92CDB7DEB7C1
:103EE0006A017B0129830E944A1F2981422FC70151
:103EF000B6010E94161B0F90DF91CF91FF90EF90BB
:103F0000DF90CF900C94241FCF93C82F811105C050
:103F10008EE293E0CF910C94E11A87E293E00E9445
:103F2000E11A8C2F0E94F01ACF910C94241FCF938A
:103F3000C82F8DE193E00E94E11A8C2F0E94F01AA5
:103F40000E94241F84EF91E0CF910C94E614CF934C
:103F5000C82F87E193E00E94E11A8C2F90E0FC01CA
:103F60003197EB30F10530F5E75BFF4F0C947C396E
:103F700085E093E01DC081EF92E01AC08FED92E0E2
:103F800017C087ED92E014C08EEC92E011C083EC74
:103F900092E00EC086EB92E00BC08EEA92E008C081
:103FA0008BE992E005C089E892E002C080E892E0E7
:103FB0000E94E11ACF910C94281F83E692E00C94A2
:103FC000E11A89E192E00C94E11AFF920F931F939A
:103FD000CF93DF936091E40670E080E00E94561F6B
:103FE0006091E70670E081E00E94561F6091E5064F
:103FF00070E082E00E94561F6091E60670E083E068
:104000000E94561F6091F90662FB662760F970E016
:1040100084E00E94561F6091F90666FB662760F9EE
:1040200070E085E00E94561F8091F906992787FD70
:104030009095692F661F6627661F70E086E00E94D4
:10404000561F6091E80670E08AE00E94561F40917A
:10405000E9065091EA066091EB067091EC0623E0C8
:104060008BE00E94671F4091ED065091EE06609133
:10407000EF067091F00623E08CE00E94671F6091CC
:10408000F906617070E08DE00E94561F6091F9069C
:1040900065FB662760F970E084E10E94561F60911D
:1040A000F90663FB662760F970E085E10E94561F00
:1040B0006091F9066295617070E086E10E94561F7A
:1040C0006091FA0670E087E10E94561F4091FB065E
:1040D0005091FC066091FD067091FE0623E088E198
:1040E0000E94671F4091FF065091000760910107F1
:1040F0007091020723E089E10E94671F6091030726
:10410000709104078AE10E94561F40910507509163
:104110000607609107077091080723E08BE10E9472
:10412000671F4091F1065091F2066091F30670917D
:10413000F40620E08EE10E94671F4091F506509141
:10414000F6066091F7067091F80620E08FE10E9474
:10415000671F60E070E080E20E94561F84E6F82E40
:1041600000E0C4EBD6E01F2D023071F00330C9F03F
:10417000013029F0488159816A817B8117C04C85C3
:104180005D856E857F8512C020E030E041E655E414
:10419000688D798D8A8D9B8D0E941636AB01BC018E
:1041A00005C04CA15DA16EA17FA1705823E0812FB5
:1041B0000E94671F24961F5F86E0C03CD807A1F6C7
:1041C0008AE0F80E0F5F8CE8F812CBCFDF91CF9129
:1041D0001F910F91FF900895CF93DF93CDB7DEB776
:1041E0002C970FB6F894DEBF0FBECDBF83E192E0EF
:1041F0000E94E11A60EB75E0CE0101960E94063341
:10420000CE0101960E942D1F8AE30E9423248091F3
:10421000A5050E94F01A0E94281F2C960FB6F8944C
:10422000DEBF0FBECDBFDF91CF9108951F93CF9317
:10423000DF93CDB7DEB72C970FB6F894DEBF0FBE75
:10424000CDBF10E0BE016F5F7F4F812F0E94A82677
:1042500081110AC087E293E00E94E11A87E00E9480
:10426000F01A0E94241F3CC080E192E00E94E11AF3
:10427000163029F0173041F48AE092E002C08DE058
:1042800092E00E94E11A04C086E3810F0E94F01AB6
:104290008AE30E942324CE0101960E942D1F0E94D2
:1042A000281F1F5F183071F684E092E00E94E11A27
:1042B00085E595E00E942D1F0E94281F8EEF91E05A
:1042C0000E94E11A60916105709162058091630519
:1042D000909164050E94B41B0E94281F0E94EC204C
:1042E0002C960FB6F894DEBF0FBECDBFDF91CF91F5
:1042F0001F91089588EF91E00E94E11A80912505B1
:104300008C3838F084EF91E00E94E11A8091250505
:104310008A580E94F01A8BEE91E00E94E11A809177
:104320002B058A5C0E94F01A8BEE91E00E94E11A44
:10433000809129058F5E0E94F01A8BEE91E00E9419
:10434000E11A9091270585E1891B0E94F01A8BEEF6
:1043500091E00E94E11A80912805865A0E94F01A85
:104360008BEE91E00E94E11A909126058EE5891B63
:104370000E94F01A80912C05882399F088EE91E034
:104380000E94E11A80912C05833029F08E3139F09A
:10439000823039F404C080E30E94232402C00E94CA
:1043A000F01A88EE91E00E94E11A80912E0580318A
:1043B00031F0803231F0811107C085E303C083E31F
:1043C00001C084E30E94232488EE91E00E94E11A58
:1043D00080912D05882311F088E301C089E30E94B4
:1043E000232481EF91E00E94E11A809138050E9418
:1043F000F01A8EEE91E00E94E11A609134057091FE
:10440000350580913605909137050E94C31B0C94A9
:10441000281F1F93CF93DF93182FEB0185EE91E0B8
:104420000E94E11A812F0E94F01A8DE30E9423243A
:10443000CE010E94D51ADF91CF911F910C94241FB9
:104440000F931F93CF93DF931F92CDB7DEB78C01ED
:104450008EE369830E942324C8010E94D51A8AE34F
:104460000E9423246981862F0F90DF91CF911F91A5
:104470000F910C94841FCF93DF93EC0181ED91E0B9
:104480000E94E11ACE010E94D51A0E94281F8BECCF
:1044900091E00E94E11A8CE20E9423248FE00E94A6
:1044A000F01A8CE20E94232480E80E94F01ADF9127
:1044B000CF910C94281F6F927F928F929F92AF9210
:1044C000BF92CF92DF92EF92FF920F931F93CF9301
:1044D000DF93CDB7DEB7A4970FB6F894DEBF0FBE5B
:1044E000CDBF8CE0ECEBF5E0DE01599601900D922A
:1044F0008A95E1F7BE01675E7F4FCE010D960E945F
:1045000006338CE30E9423248091A0058830E1F0DB
:1045100058F4813099F1A8F0823099F1843009F093
:1045200043C083EB91E03EC0803229F118F4803122
:1045300071F03AC0803441F18038B1F58BE991E0F7
:1045400031C086EC91E02EC082EC91E02BC08091CE
:10455000A20587FD10C08CEB91E00E94E11A8091CA
:10456000A20580FF06C080E31AC082FF17C085FF46
:10457000FACF81E314C088EB91E014C08DEA91E09A
:1045800011C087EA91E00EC081EA91E00E94E11A31
:104590008091A20583FFE9CF83E301C082E30E94FB
:1045A000232402C00E94E11A8091E806282F21707E
:1045B000622E80FF07C08091AC05882319F084E942
:1045C00091E050C08090610590906205A0906305D5
:1045D000B090640599E4C92E95E0D92E8E010F5F45
:1045E0001F4FCE010D967C01712CF60161917191E6
:1045F000819191916F0120853185428553850E947B
:104600003635F8016083718382839383F2E07F12F1
:1046100009C0A50194010E943635F80160837183B9
:1046200082839383611011C0F8012081318142811E
:104630005381F70160817181828193810E943535B8
:10464000F701608371838283938373940C5F1F4FA0
:10465000F4E0EF0EF11C23E07212C7CF6110AFCF70
:104660008DE891E00E94E11ACE010D960E942D1F67
:104670008091E80681FF0FC088E891E00E94E11A6E
:104680000E94C21A0E94F01A8CE20E9423240E9407
:1046900008240E94F01A84E891E00E94E11A0E9426
:1046A0005D320E94C31B0E94410D082F0E947F3281
:1046B000182F0E94E91BF82E912F902B982B59F15F
:1046C0008FE791E00E94E11AFF2019F080E50E9437
:1046D0002324002379F000FF03C088E50E942324EF
:1046E00001FF03C089E50E94232402FF03C08AE57D
:1046F0000E942324112379F010FF03C082E50E9459
:10470000232411FF03C088E40E94232412FF03C066
:1047100083E50E9423248091AC05882321F08150F9
:104720008093AC0518C08091A0058C7711F08DE1C5
:1047300001C089E08093AC058091AB05811103C075
:1047400081E08093AB0589E791E00E94E11ACE01F8
:1047500001960E942D1F8091AB05882321F0815086
:104760008093AB053BC08091A0058C7711F083E16D
:1047700001C089E08093AB0584E791E00E94E11AD3
:104780008091A7050E94F01A8CE20E942324809158
:10479000A8050E94F01A8CE20E9423248091A905AA
:1047A0000E94F01A0E942D28182F0E94AE01082F97
:1047B000111102C0882391F080E791E00E94E11A74
:1047C000112339F010FF02C083E501C083E40E9489
:1047D000232400FF03C086E40E9423248EE30E946A
:1047E00023240E94241FA4960FB6F894DEBF0FBEA8
:1047F000CDBFDF91CF911F910F91FF90EF90DF9090
:10480000CF90BF90AF909F908F907F906F900895C2
:104810008091520490915304981710F0805801C071
:104820008150891B0895E0ECF0E0808182608083F4
:104830001092C50080E18093C400E1ECF0E080813B
:10484000886980830895E091510491E09E0F993624
:1048500009F490E020915004921305C02091AE0518
:1048600024FFF8CF0895F0E0E653FA4F8083909349
:1048700051048091C10080628093C10008951F920D
:104880000F920FB60F9211248F939F93EF93FF9384
:1048900080915004E82FF0E0E653FA4F9081909316
:1048A000C6008F5F893609F480E0809350049091B0
:1048B0005104891305C08091C1008F7D8093C10090
:1048C000FF91EF919F918F910F900FBE0F901F90CE
:1048D00018959091520480915304891761F0E92F43
:1048E000F0E0ED5CF94F80819F5F913809F490E032
:1048F0009093520408958FEF08951F920F920FB670
:104900000F9211242F933F934F935F936F937F9355
:104910008F939F93AF93BF93EF93FF938091C600C4
:10492000813271F028F4883179F40E94E11355C086
:104930008F3321F08E3741F482E003C081E001C063
:1049400088E00E94543349C087FF36C090E0FC01E4
:10495000E458F109ED31F10508F03FC0EC5AFF4F82
:104960000C947C3980E2EDCF8091A00585FF35C0A5
:1049700080E4E7CF81E00DC082E00BC084E009C095
:1049800088E007C080E105C080E203C080E401C088
:1049900080E80E94173521C081E00BC082E009C089
:1049A00084E007C088E005C080E103C080E201C068
:1049B00080E40E94203511C0E091530491E09E0FE5
:1049C000913809F490E020915204921731F0F0E010
:1049D000ED5CF94F808390935304FF91EF91BF9169
:1049E000AF919F918F917F916F915F914F913F9187
:1049F0002F910F900FBE0F901F9018958091530428
:104A0000809352040895CF93DF9300D01F92CDB7C7
:104A1000DEB76A837B8389830E94131F898121E526
:104A2000829FC001112440E550E06A817B819D5F37
:104A30000F900F900F90DF91CF910C94060240E5FC
:104A400050E0BC018EEA93E00C940602CF93DF9312
:104A500000D01F92CDB7DEB76A837B8389830E9423
:104A6000131F89812DE0829FC00111244CE050E08A
:104A70006A817B819E5F0F900F900F90DF91CF91A5
:104A80000C9406026AE080E090E00E94E40145E5B3
:104A900050E064EB76E081E090E00C940602EF9247
:104AA000FF920F931F93CF93DF93CDB7DEB72C9771
:104AB0000FB6F894DEBF0FBECDBF182F80FFD5C054
:104AC0008AE08093E40689E18093E7061092E50688
:104AD00081E08093E6068093E8068AE097EDA3E202
:104AE000BCE38093E9069093EA06A093EB06B093AB
:104AF000EC068FE692E1A3E0BBE38093ED06909392
:104B0000EE06A093EF06B093F00680E090E0AAE7EF
:104B1000B4E48093F1069093F206A093F306B09369
:104B2000F4061092F5061092F6061092F70610920F
:104B3000F8061092FA0680E090E0A8ECB1E48093C9
:104B4000FB069093FC06A093FD06B093FE0640E0A2
:104B500050E06AEF73E44093FF06509300076093C0
:104B60000107709302078AEF90E090930407809307
:104B7000030780E090E0A0E8BFE3809305079093EF
:104B80000607A0930707B09308071092F90680E084
:104B900090E0A0E2B2E48093B4069093B506A093AF
:104BA000B606B093B7068093B8069093B906A09363
:104BB000BA06B093BB068093BC069093BD06A09343
:104BC000BE06B093BF064093C0065093C1066093E3
:104BD000C2067093C3064093C4065093C506609303
:104BE000C6067093C7064093C8065093C9066093E3
:104BF000CA067093CB0640E058EC6FEA78E4409325
:104C0000CC065093CD066093CE067093CF064093AA
:104C1000D0065093D1066093D2067093D30640938A
:104C2000D4065093D5066093D6067093D70640E01D
:104C300050E068E473EC4093D8065093D906609333
:104C4000DA067093DB064093DC065093DD06609332
:104C5000DE067093DF064093E0065093E106609312
:104C6000E2067093E3060E94422511FF10C0CE01B8
:104C700001967C018CE0F70111928A95E9F700E03A
:104C8000B701802F0E9426250F5F0830C9F712FF59
:104C900014C060E080E093E00E94E40160E081E005
:104CA00093E00E94E40160E081E593E00E94E4016A
:104CB00060E082E593E00E94E40113FF0AC060E037
:104CC0008EEA93E00E94E40160E08FEA93E00E94A4
:104CD000E4012C960FB6F894DEBF0FBECDBFDF9176
:104CE000CF911F910F91FF90EF9008951F93CF9355
:104CF000DF93182FEB0181E5189FB00111247D5F30
:104D000040E550E0CE010E944402892B39F418821C
:104D1000BE01812F0E94032580E001C081E0DF9168
:104D2000CF911F910895CF93DF93EC0140E550E0C0
:104D30006EEA73E00E944402892B31F41882CE019E
:104D40000E941F2580E001C081E0DF91CF9108958E
:104D50001F93CF93DF93182FEB018DE0189FB001C5
:104D600011247E5F4CE050E0CE010E944402892B6A
:104D700059F48CE0FE0111928A95E9F7BE01812F6A
:104D80000E94262580E001C081E0DF91CF911F9134
:104D9000089580E090E00E94DC018A3059F445E5F6
:104DA00050E061E070E084EB96E00E94440221E074
:104DB000892B09F420E0822F0895CF92DF92EF92A1
:104DC000FF92CF93DF93C82F6A017B0120E030E090
:104DD000A901C701B6010E940F3687FD05C1C4367F
:104DE00008F445C02CE92C0F80E02330B8F530E002
:104DF000823079F0F901EE0FFF1FEE0FFF1F8330B5
:104E000011F1813019F0EC54F94F23C0E054F94FFF
:104E100020C0E901CC0FDD1FCC0FDD1FC453D94FDB
:104E200020E030E040E752E4C701B6010E944D386F
:104E300020E030E040E752E40E944D3868837983F7
:104E40008A839B83CDC0E852F94FF7FAF094F7F8C4
:104E5000F094C082D182E282F382C2C08F5F2A3096
:104E600008F4C4C0843009F4C1C02A50BECFC701C1
:104E7000B6010E941B390E9483368C2F90E081324C
:104E8000910508F0B3C0FC01EF58FF4F0C947C393A
:104E900081E1B1C0633008F4ABC06093E406A0C008
:104EA0006093E7069DC06093E50602C06093E60646
:104EB0000E94D92A95C08091F906662311F084607A
:104EC00007C08B7F05C08091F906662321F08064BE
:104ED0008093F90685C08F7BFBCF8091F90666230E
:104EE00011F0806801C08F778093F90680E00E94FE
:104EF000D21B76C06093E80673C0C092E906D092D8
:104F0000EA06E092EB06F092EC066AC0C092ED066B
:104F1000D092EE06E092EF06F092F00661C080912A
:104F2000F906662311F0816001C08E7F8093F90637
:104F30000E94E73255C08091F906662321F084FF74
:104F400059C08062C5CF8F7DC3CF8091F90666239B
:104F500011F0886001C0877F8093F9060E942A0DB6
:104F60003FC08091F906662311F08061B1CF8F7C3C
:104F7000AFCF6093FA0634C0C092FB06D092FC0615
:104F8000E092FD06F092FE062BC0C092FF06D09282
:104F90000007E0920107F092020722C070E07093D0
:104FA0000407609303071CC0C0920507D092060750
:104FB000E0920707F092080713C0C092F106D09262
:104FC000F206E092F306F092F40608C0C092F506ED
:104FD000D092F606E092F706F092F8060E94392881
:104FE0000E94422580E007C084E005C083E003C042
:104FF00086E001C08AE0DF91CF91FF90EF90DF90D3
:10500000CF9008950E94C926811108C087E00E94B0
:10501000841F8FEF0E944F250C94E51F089588236D
:1050200021F0813021F488E0089584E0089580E142
:105030000895882321F0813021F480E4089580E2EE
:10504000089580E80895882321F0813021F484E0D8
:10505000089582E0089588E008952C9B04C02D9B5C
:1050600004C082E0089580E0089581E008952C98BE
:105070000895249A259A0C9437289091A1059111AE
:105080000DC0811103C00E94372806C0803111F481
:105090002D9801C02D9A2C9A1092AB050895CF93AC
:1050A000DF931F92CDB7DEB79091A005923049F003
:1050B00089830E94131F89810F90DF91CF910C94F7
:1050C0003D280F90DF91CF9108958091F90682FFDE
:1050D00002C0289A01C02898809185048093970483
:1050E0008091E406880F8450819580939604809186
:1050F0006F00826080936F00089580916F008D7FB4
:1051000080936F0080918100887F8160809381000F
:10511000109283048091E7069091A0058F3F39F4A7
:105120002091C805211103C0903841F402C0943089
:1051300029F090E00E94E61481E001C080E09091A7
:10514000F90692FF02C091E08927882311F0289A7E
:105150000895289808951F920F920FB60F92112468
:105160002F933F934F935F936F937F938F939F936F
:10517000AF93BF93CF93DF93EF93FF93809183041B
:105180008111EEC19BB180919804807E9F71892B23
:105190008BB98BB1837E90919704892B8BB98091C9
:1051A000960486BD82E085BD81E080938304789477
:1051B0008091AA049091AB04892B09F09FC0809143
:1051C000880490918704981709F492C0E0918804AC
:1051D00086E0E89FF0011124E455FB4FF093AB0407
:1051E000E093AA0482819381909389008093880040
:1051F000808191819093A6048093A504A4818091DD
:10520000A7048A1771F1A093A70481E1A89FD00198
:105210001124A053BB4FB093A904A093A8041C96DB
:105220008D919D910D90BC91A02DB695A7959795C8
:1052300087958093910490939204A0939304B093E4
:10524000940480938D0490938E04A0938F04B09364
:1052500090048093890490938A04A0938B04B09364
:105260008C04C091A804D091A904809184049889E9
:10527000892780939804258188819981AA81BB819F
:10528000022E04C0B695A795979587950A94D2F7F4
:105290008093990490939A04A0939B04B0939C04E8
:1052A0008C819D81AE81BF81022E04C0B695A795E9
:1052B000979587950A94D2F780939D0490939E04C6
:1052C000A0939F04B093A00488859985AA85BB8587
:1052D00004C0B695A795979587952A95D2F78093A0
:1052E000A1049093A204A093A304B093A40406C0C5
:1052F0000E947D2884E00E94543332C18091AF0522
:10530000813011F40E94EF1B109297048091990450
:1053100090919A04A0919B04B0919C0440918904BF
:1053200050918A0460918B0470918C04840F951FB6
:10533000A61FB71F8093890490938A04A0938B04BF
:10534000B0938C04E091A804F091A904448555859C
:1053500066857785481759076A077B0768F524E053
:10536000209397044485558566857785841B950B26
:10537000A60BB70B8093890490938A04A0938B04A7
:10538000B0938C0420898091BC059091BD05A091BB
:10539000BE05B091BF0525FF04C00197A109B10961
:1053A00003C00196A11DB11D8093BC059093BD055E
:1053B000A093BE05B093BF0580919D0490919E047B
:1053C000A0919F04B091A00440918D0450918E044F
:1053D00060918F0470919004840F951FA61FB71FD2
:1053E00080938D0490938E04A0938F04B0939004C7
:1053F0004485558566857785481759076A077B0771
:1054000078F520919704286020939704448555856A
:1054100066857785841B950BA60BB70B80938D044F
:1054200090938E04A0938F04B09390042089809170
:10543000C0059091C105A091C205B091C30526FF9A
:1054400004C00197A109B10903C00196A11DB11DB6
:105450008093C0059093C105A093C205B093C30586
:105460008091A1049091A204A091A304B091A404FE
:10547000409191045091920460919304709194042E
:10548000840F951FA61FB71F8093910490939204D9
:10549000A0939304B09394044485558566857785DD
:1054A000481759076A077B0778F520919704206110
:1054B000209397044485558566857785841B950BD5
:1054C000A60BB70B8093910490939204A09393043E
:1054D000B093940420898091C4059091C505A09152
:1054E000C605B091C70527FF04C00197A109B109FE
:1054F00003C00196A11DB11D8093C4059093C505FD
:10550000A093C605B093C7058091A005843039F4F7
:105510008091A605909197048923809397048091A8
:10552000A5049091A60401979093A6048093A504E6
:10553000892B69F41092AB041092AA04809188041C
:105540008F5F80938804863011F4109288048091D4
:10555000850490919704892780939704109283047F
:10556000FF91EF91DF91CF91BF91AF919F918F917B
:105570007F916F915F914F913F912F910F900FBE4F
:105580000F901F9018951F920F920FB60F92112433
:105590008F939F939BB1809185048C71937E892B0F
:1055A0008BB915BC9F918F910F900FBE0F901F90DC
:1055B0001895FF920F931F93CF93DF93109285045A
:1055C00010928404C0E0D0E00C2F1C2F2091E5063F
:1055D00030E08C2F0C2E02C0359527950A94E2F707
:1055E00020FF07C0F09085040E940F288F29809328
:1055F00085042091E60630E002C0359527951A957E
:10560000E2F720FF08C010918404802F0E9419281F
:10561000812B809384042196C330D105A9F6DF91B4
:10562000CF911F910F91FF9008950E947D288BE2EA
:10563000E4E5F4E0DF011D928A95E9F783E2E9E809
:10564000F4E0DF011D928A95E9F71092820410922E
:105650008104109288041092870481E0809386046C
:10566000109283040E94D92A809184048093980424
:105670008BB1837E90918504892B8BB98BB18F710F
:1056800090918404892B8BB908958AB18C618AB971
:10569000209A8AB1806E8AB9E1E8F0E080818F7E3D
:1056A0008083808188608083E0E8F0E080818C7F67
:1056B000808380818F708083EEE6F0E08081887F38
:1056C000808314BC15BC8081816080830895CF9352
:1056D000DF93C0918104D09182042097C9F080911A
:1056E000550481608093550460916B0470916C0443
:1056F00080916D0490916E049B01AC010E944D3825
:105700006A8B7B8B8C8B9D8B109282041092810410
:10571000DF91CF9108952F923F924F925F926F92B7
:105720007F928F929F92AF92BF92CF92DF92EF9231
:10573000FF920F931F93CF93DF93CDB7DEB7EA9716
:105740000FB6F894DEBF0FBECDBF8091A40580FDDB
:105750009BC69091880480918604981709F494C69A
:105760008091810490918204892B09F0F3C2809189
:10577000A40582FF03C00E94281702C00E943117AF
:10578000909382048093810420908104309082045D
:105790002114310409F478C6009155041091A40530
:1057A00000FF03C010925504BFC0E0915404EF5FA6
:1057B000E53009F4E0E0E093540421E12E9FF0018C
:1057C0001124E053FB4FF0938004E0937F04D10158
:1057D00050968C915097808B4D915D916D917C91FD
:1057E000139783E0440F551F661F771F8A95D1F7E3
:1057F000408351836283738314964D915D916D91C3
:105800007C91179793E0440F551F661F771F9A9559
:10581000D1F7448355836683778318964D915D91C4
:105820006D917C911B9723E0440F551F661F771FD6
:105830002A95D1F740875187628773871C966D91AF
:105840007D918D919C911F976B017C0133E0CC0C75
:10585000DD1CEE1CFF1C3A95D1F7C486D586E68682
:10586000F7860E94AF3660935A0470935B0480936E
:105870005C0490935D04F101268D378D40A151A108
:105880000E9416369B01AC0160935E0470935F0426
:10589000809360049093610460E070E080EA9FE38D
:1058A0000E941636609362047093630480936404CC
:1058B0009093650410925604109257041092580465
:1058C0001092590411FD02C003FF1FC060917304C0
:1058D00070917404809175049091760460936B04C8
:1058E00070936C0480936D0490936E049B01AC01E3
:1058F0000E944D38D10152966D937D938D939C9368
:105900005597077F009355040FC0F1016289738991
:10591000848995890E94DA3860936B0470936C04D3
:1059200080936D0490936E04109267041092680443
:105930001092690410926A04D1015A968D909D903C
:10594000AD90BC905D97A501940160E070E080E0AF
:105950009FE30E9416362B013C01F101C68CD78CC7
:10596000E0A0F1A011FF4DC0F2E0F0936604D10178
:1059700052962D913D914D915C91559729833A8393
:105980004B835C830E944D389B01AC01C701B6017B
:105990000E9435352B013C0120E030E0A9010E9436
:1059A0000F3687FF1DC0A5019401C501B4010E94F7
:1059B0003635A70196010E944D389B01AC016981E3
:1059C0007A818B819C810E9435350E94DA38609300
:1059D0007304709374048093750490937604BAC131
:1059E00040926704509268046092690470926A045D
:1059F000109273041092740410927504109276043D
:105A0000A9C110926604C0927704D0927804E09203
:105A10007904F0927A0412FF0DC010927304109270
:105A20007404109275041092760419821A821B82F3
:105A30001C8210C00E94411769837A838B839C83E8
:105A40000E94DA3860937304709374048093750431
:105A50009093760480918104909182040E94621751
:105A60006D877E878F87988B9B01AC010E944D3894
:105A70004B015C010091810410918204D8015E9673
:105A80002D913D914D915C91919729873A874B8754
:105A90005C8752962D913D914D915C9155972D8348
:105AA0003E834F8358879B01AC016D817E818F813E
:105AB00098850E94123818160CF075C0A501940143
:105AC0006D817E818F8198850E9435359B01AC0167
:105AD000C301B2010E944D389B01AC0169857A85F2
