:100000000C94C2030C94D4030C94D4030C94690F85
:100010000C94301F0C94D4030C94D4030C94D4038C
:100020000C94D4030C94922C0C94D4030C94942927
:100030000C94D4030C94D4030C94D4030C94D403E4
:100040000C94522D0C94D4030C94E2250C94A2250C
:100050000C94D4030C94D4030C94D4030C94D403C4
:100060000C94D4030C94D403390718075E087D0759
:100070007D077D07AB07180718075E08B5075E0800
:10008000BA07D607E4075E085E085E08FB071C088F
:100090003D089408AB082009C9092009C909D409F9
:1000A000120A4321462149214C214F215221552139
:1000B00058215B215E216121642127232A232D23DE
:1000C0003023332336233923AB24C124AE24B12477
:1000D000B424B724BA24BD246527652765277A2769
:1000E0008D2796279F27A827B127C827D327DC2746
:1000F000E527EE27FD270E281D2830283F28482811
:1001000051285A286528084AD73B3BCE016E84BC4B
:10011000BFFDC12F3D6C74319ABD56833DDA3D0061
:10012000C77F11BED9E4BB4C3E916BAAAABE0000AA
:1001300000803F05A84CCDB2D44EB93836A9020C88
:1001400050B9918688083CA6AAAA2ABE0000008061
:100150003F003E0D0A002C0057506F733A002C00F0
:100160002C4D506F733A003C436865636B003C4113
:100170006C61726D003C486F6D65003C486F6C644B
:10018000003C52756E003C5175657565003C4964D4
:100190006C65000D0A003D00244E005D0D0A002034
:1001A0004600205400204D3800204D3900204D35A8
:1001B00000204D3400204D3300204D3200204D31C1
:1001C00000204D30002047393400204739330020CB
:1001D000473931002047393000204732310020476D
:1001E0003230002047313900204731380020473174
:1001F00037002047005B473830005B4733005B47E0
:1002000032005B4731005B4730005D0D0A002C0077
:100210005B4739323A005D0D0A002C0033303A005A
:1002200032383A0035393A0035383A0035373A0035
:1002300035363A0035353A0035343A005B47002010
:1002400028686F6D696E672070756C6C2D6F6666BF
:100250002C206D6D290D0A002028686F6D696E676E
:10026000206465626F756E63652C206D736563290C
:100270000D0A2432323D002028686F6D696E6720B8
:100280007365656B2C206D6D2F6D696E290D0A24C9
:1002900032313D002028686F6D696E6720666565A4
:1002A000642C206D6D2F6D696E290D0A2432303D4E
:1002B00000290D0A2431393D002028686F6D696ED0
:1002C000672064697220696E76657274206D61734F
:1002D0006B2C20696E743A002028686F6D696E6718
:1002E000206379636C652C20626F6F6C290D0A2482
:1002F00031383D00202868617264206C696D697432
:10030000732C20626F6F6C290D0A2431373D002059
:1003100028696E76657274207374657020656E61ED
:10032000626C652C20626F6F6C290D0A2431363D9A
:100330000020286175746F2073746172742C2062C0
:100340006F6F6C290D0A2431353D002028726570CD
:100350006F727420696E636865732C20626F6F6CB6
:10036000290D0A2431343D0020286E2D646563690F
:100370006D616C732C20696E74290D0A2431333D34
:100380000020286E2D61726320636F727265637442
:10039000696F6E2C20696E74290D0A2431323D007C
:1003A00020286172632C206D6D2F7365676D656EFB
:1003B00074290D0A2431313D0020286A756E63745A
:1003C000696F6E20646576696174696F6E2C206D4B
:1003D0006D290D0A2431303D002028616363656C6E
:1003E00065726174696F6E2C206D6D2F7365635E2D
:1003F00032290D0A24393D00202873746570206964
:10040000646C652064656C61792C206D736563296B
:100410000D0A24383D00290D0A24373D0020287399
:1004200074657020706F727420696E7665727420C6
:100430006D61736B2C20696E743A002028646566C8
:1004400061756C74207365656B2C206D6D2F6D6903
:100450006E290D0A24363D00202864656661756C9E
:100460007420666565642C206D6D2F6D696E290D95
:100470000A24353D002028737465702070756C73F4
:10048000652C2075736563290D0A24343D002028EE
:100490007A2C20737465702F6D6D290D0A24333DFD
:1004A000002028792C20737465702F6D6D290D0A3A
:1004B00024323D002028782C20737465702F6D6DD8
:1004C000290D0A24313D0024303D002424202876C3
:1004D000696577204772626C2073657474696E6712
:1004E00073290D0A2423202876696577202320703C
:1004F0006172616D6574657273290D0A2447202845
:1005000076696577207061727365722073746174A7
:1005100065290D0A244E2028766965772073746159
:100520007274757020626C6F636B73290D0A247886
:100530003D76616C7565202873617665204772622F
:100540006C2073657474696E67290D0A244E783DBA
:100550006C696E65202873617665207374617274AE
:10056000757020626C6F636B290D0A244320286329
:100570006865636B2067636F6465206D6F646529D0
:100580000D0A245820286B696C6C20616C61726DB7
:10059000206C6F636B290D0A2448202872756E2029
:1005A000686F6D696E67206379636C65290D0A7EDB
:1005B00020286379636C65207374617274290D0A55
:1005C0002120286665656420686F6C64290D0A3FE8
:1005D000202863757272656E74207374617475730C
:1005E000290D0A6374726C2D782028726573657406
:1005F000204772626C290D0A000D0A4772626C2056
:10060000302E3863205B27242720666F72206865B0
:100610006C705D0D0A005D0D0A0044697361626CC7
:10062000656400456E61626C656400436175746960
:100630006F6E3A20556E6C6F636B656400272448BB
:10064000277C2724582720746F20756E6C6F636B8E
:1006500000526573657420746F20636F6E74696EE9
:100660007565005B002E204D506F733F0D0A0041F1
:10067000626F727420647572696E67206379636C4F
:10068000650048617264206C696D697400414C4179
:10069000524D3A20000D0A00416C61726D206C6F62
:1006A000636B0042757379206F7220717565756593
:1006B0006400454550524F4D20726561642066616B
:1006C000696C2E205573696E672064656661756C70
:1006D00074730056616C7565203C2033207573651A
:1006E000630056616C7565203C20302E30005365E8
:1006F0007474696E672064697361626C6564004933
:100700006E76616C69642073746174656D656E7476
:10071000004D6F64616C2067726F75702076696F31
:100720006C6174696F6E00496E76616C69642072E9
:10073000616469757300556E737570706F7274655E
:10074000642073746174656D656E740045787065BE
:100750006374656420636F6D6D616E64206C657495
:1007600074657200426164206E756D626572206608
:100770006F726D6174006572726F723A20006F6BF8
:100780000D0A000011241FBECFEFD8E0DEBFCDBFA1
:1007900026E0A0E0B1E001C01D92AC3EB207E1F757
:1007A0000E94432D0C94CB320C9400000C94D30C7B
:1007B000089543980895109200013B9A0C94D90330
:1007C000CF93C82F80910001C81751F00E940A19D9
:1007D000C13011F4439A02C00E94D903C0930001B2
:1007E000CF9108950C94B5320C94BD329F92AF9284
:1007F000BF92CF92DF92EF92FF920F931F93CF930E
:10080000DF937C01EB016A015B01A40EB51E8C0134
:10081000912C692DCA15DB05A9F070E061157105F1
:1008200039F4660F672F661F770B862F817001C022
:1008300081E06991982E960EC8010E94BD320F5F2B
:100840001F4FE7CFC7018C0D9D1DDF91CF911F91E9
:100850000F91FF90EF90DF90CF90BF90AF909F905F
:100860000C94BD329F92AF92BF92CF92DF92EF92E3
:10087000FF920F931F93CF93DF938B017A016C014B
:10088000C40ED51EEC01912C5B01A81AB90ACC1537
:10089000DD05A9F0C5018C0F9D1F0E94B532292DE1
:1008A00030E02115310531F4220F232F221F330BA5
:1008B000217001C021E0922E980E8993E8CFC801E3
:1008C0008E0D9F1D0E94B53221E030E0981611F088
:1008D00020E030E0C901DF91CF911F910F91FF908F
:1008E000EF90DF90CF90BF90AF909F900895CF93FF
:1008F000DF93DC01CA01F9012081EA01C20FD11D99
:1009000028812223C1F02C9321542A3120F082E047
:100910008093010110C020812F5F2083AB01BF01B4
:100920000E946D14009721F421E02093010105C07D
:1009300081E090E002C080E090E0DF91CF910895E7
:1009400085E3E1E0F1E0DF011D928A95E9F780910E
:10095000910690919206A0919306B091940680938F
:10096000090190930A01A0930B01B0930C0181E05F
:1009700080931B0192E090931C01809305016EE12E
:1009800071E080E00E940C27811103C08AE00C9482
:100990002D2108958F929F92AF92BF92CF92DF92B6
:1009A000EF92FF920F931F9349015A01670178015B
:1009B0000E94532F20918306309184064091850632
:1009C000509186060E94B82E60930D0170930E011F
:1009D00080930F0190931001C501B4010E94532F21
:1009E00020918706309188064091890650918A06A9
:1009F0000E94B82E6093110170931201809313012D
:100A000090931401C701B6010E94532F20918B06C9
:100A100030918C0640918D0650918E060E94B82E22
:100A2000609315017093160180931701909318013C
:100A30001F910F91FF90EF90DF90CF90BF90AF90FC
:100A40009F908F9008952F923F924F925F926F9256
:100A50007F928F929F92AF92BF92CF92DF92EF924E
:100A6000FF920F931F93CF93DF93CDB7DEB7E99734
:100A70000FB6F894DEBF0FBECDBF99AF88AF80919F
:100A80003701863009F4C3C61AA69E01275E3F4F80
:100A90003CA72BA78CE0D901E82F1D92EA95E9F736
:100AA000FE013D96DF011D928A95E9F71092010142
:100AB0001DA61AAA212C312C44244394512C65E004
:100AC000762E73E0972EE4E06E2EAA24A394F2E033
:100AD0008F2E9E01265D3F4F48AD59ADBE016B5D27
:100AE0007F4FCE0189960E947704892B09F48AC131
:100AF000CDA0DEA0EFA0F8A4C701B6010E94543239
:100B00000E94202FCB0129A5273421F02D3409F490
:100B100019C1DFCF6E317105A9F1C4F464317105DB
:100B200074F46131710594F56430710559F11CF468
:100B300077FF2AC033C06A30710521F12FC06631BA
:100B4000710544F16C31710549F51CC06C357105B6
:100B50008CF46A357105E4F46C3371053CF466334A
:100B60007105D4F46533710569F018C060357105FD
:100B700059F014C06C35710529F06F35710574F4A6
:100B800016E00DC011E00BC012E009C013E007C071
:100B900014E005C017E003C019E001C010E0853182
:100BA000910509F482C0BCF58430910509F466C052
:100BB000ACF48130910509F464C034F4892B09F058
:100BC00002C1109202010AC18230910509F45CC091
:100BD000039709F0F8C09092020100C1823191059B
:100BE00009F455C074F48A30910509F4EFC04197B7
:100BF00009F0E9C010921A01A0921B0180921C0119
:100C0000EDC08331910509F449C0449709F0DBC078
:100C1000A0920401E3C08035910509F472C09CF4F0
:100C20008533910509F46AC03CF48C31910509F4CF
:100C30003FC04E97E9F1C7C0CC970CF0C4C06653D3
:100C400060931D01CBC08C35910509F460C05CF444
:100C50008A35910509F458C08B35910509F0B3C068
:100C600010920501BBC08D35910509F468C08E3521
:100C7000910509F0A8C010920301B0C0B1E0BDA772
:100C8000ADC0A0920201AAC080920201A7C010923A
:100C90001A0180921B01A0921C01A0C0A0921A010F
:100CA00080921B0110921C0199C01092040196C001
:100CB00020E030E040E251E4C701B6010E948631F5
:100CC0000E9454320E94202F6931E1E07E0709F42E
:100CD00080C034F46831714009F075C083E07DC094
:100CE0006C3231E0730739F06D32714009F06BC03E
:100CF000A6E0ADA773C095E09DA770C0B1E0BAAB08
:100D00006DC0609202016AC0A092050167C020E038
:100D100030E040E251E4C701B6010E9486310E94F2
:100D200054320E94202F6839E3E07E0729F06939A8
:100D3000734009F451C047C027E02DA74FC0A092CF
:100D400003014CC06630710534F46330710544F41E
:100D500077FD08C003C06E31710521F415E003C0B2
:100D600018E001C010E08430910519F18CF4813055
:100D70009105A1F12CF4892B31F5A09206012EC02A
:100D80008230910599F00397F1F4A092070126C0F3
:100D90008830910591F02CF40597A9F41092070181
:100DA0001DC08930910561F04E9769F4809206016B
:100DB00015C08FEF8093070111C0A09208010EC0EB
:100DC000109208010BC09092010108C032E03DA7CB
:100DD00005C044E04DA702C088E08DA7112309F4A7
:100DE00078CEC20102C0880F991F1A95E2F79C01C4
:100DF00022213321232B19F0709201016ACE282A77
:100E0000392A67CE809101018111B4C51AA6B12C8F
:100E10001EA61FA618AA19AAC12CD12C76011CAA9D
:100E20001DAA90E89EABAFEBAFAB912C46E0A42E91
:100E30009E01265D3F4F48AD59ADBE016B5D7F4FB2
:100E4000CE0189960E947704892B09F43BC109A53C
:100E5000802F992787FD9095A92FB92FFC01E65483
:100E6000F109E531F10508F029C1EC5CFF4F0C9464
:100E700095327DA08EA00FA118A520E030E0A90139
:100E8000672D782DC8010E94B12E181614F0A0927B
:100E900001019091030180910401992399F0882325
:100EA00061F023E333E34BEC51E4672D782DC80167
:100EB0000E948631762E872E8C017CAA8DAA0EABDD
:100EC0001FABB6CF882361F023E333E34BEC51E44F
:100ED000672D782DC8010E948631762E872E01C09D
:100EE000C801472D582DBC014093090150930A01B8
:100EF00060930B0170930C019BCF112707FD109598
:100F000009541109BDA1AEA1FFA1E8A5809104017A
:100F1000882359F023E333E34BEC51E46B2F7A2F12
:100F20008F2F9E2F0E94863104C06B2F7A2F8F2F18
:100F30009E2FF801EE0FFF1FEE0FFF1F21E030E0A4
:100F40002C0F3D1FE20FF31F2B013C0144865586F9
:100F5000668677866DCF6DA17EA18FA198A50E9430
:100F600054320E94252FB62E63CFCDA0DEA0EFA075
:100F7000F8A45ECF8DA19EA1AFA1B8A58EA79FA713
:100F8000A8ABB9AB80910401882309F451CF23E3C6
:100F900033E34BEC51E46EA57FA588A999A90E9483
:100FA00086316EA77FA788AB99AB42CF20E030E0B7
:100FB000A9016DA17EA18FA198A50E94B12E87FFE6
:100FC00037CFA092010134CF4DA05EA06FA078A4CE
:100FD00020E030E0A901C301B2010E94B12E87FDDB
:100FE000A0920101C301B2010E9454320E94252F38
:100FF000609319011DCFBDA1AEA1FFA1E8A580910D
:101000000401882359F023E333E34BEC51E46B2FC5
:101010007A2F8F2F9E2F0E94863104C06B2F7A2F3C
:101020008F2F9E2F8B019C01098F1A8F2B8F3C8F46
:10103000992D9160992EFCCEBDA1AEA1FFA1E8A58E
:1010400080910401882359F023E333E34BEC51E40E
:101050006B2F7A2F8F2F9E2F0E94863104C06B2F0B
:101060007A2F8F2F9E2F8B019C010D8F1E8F2F8F1C
:1010700038A3A92DA2609A2EDBCEBDA1AEA1FFA1FF
:10108000E8A580910401882359F023E333E34BEC76
:1010900051E46B2F7A2F8F2F9E2F0E94863104C030
:1010A0006B2F7A2F8F2F9E2F8B019C0109A31AA3E0
:1010B0002BA33CA3B92DB4609B2EBACEE3E0E09302
:1010C0000101B6CE80910101811154C48091370194
:1010D000873041F0809107010E94B5288091080176
:1010E0000E94E00331FE13C0BE016F5F7F4F80910D
:1010F0001D010E940C27882309F49CC18CE0FE018D
:101100003196AEE1B1E001900D928A95E1F7FDA52F
:101110008F2F90E0FC013197E830F10508F08CC189
:10112000E75BFF4F0C94953220E030E0A901C70146
:10113000B6010E94B12E87FF04C086E080930101B2
:101140007BC180913701873009F476C1C701B601B0
:101150000E944D1371C1C701B6010E94543222E0B2
:10116000B21619F034E1B31208C00E94202F8B018F
:10117000015011090630110510F083E006C09110EE
:1011800007C042E0B41204C086E080930101FFC0B2
:1011900084E1B81210C06DE071E0802F0E943F26FC
:1011A00080911D0190E08017910709F0F0C08CE05C
:1011B000EDE0F1E042C0BE016F5F7F4F802F0E94E3
:1011C0000C27882309F436C120E030E080E090E06D
:1011D000A92CB12CA501082E02C0559547950A945B
:1011E000E2F740FF14C0E9E1F0E0EC0FFD1FE20F71
:1011F000F31F4081518162817381E1E0F0E0EC0FE7
:10120000FD1FE20FF31F40835183628373830196B6
:101210002C5F3F4F83309105E9F6BE016F5F7F4F32
:10122000802F0E943F2680911D0190E0801791073A
:1012300009F0ADC08CE0FE013196AEE1B1E0A3C093
:10124000992009F476C0809005017E0199E1E90EAC
:10125000F11C0DE011E0C12CD12CA92CB12CC50141
:101260000C2C02C0959587950A94E2F780FF33C055
:101270008820F9F0D8015D962D913D914D915C91BA
:10128000909751966D917D918D919C9154970E946C
:10129000D82D9B01AC01F70160817181828193811E
:1012A0000E94D82DD7016D937D938D939C931397B6
:1012B0001CC0F8012081318142815381D7016D9199
:1012C0007D918D919C910E94D82DF701608371834F
:1012D000828393830AC0F80180819181A281B381C6
:1012E000F70180839183A283B383FFEFCF1ADF0AD4
:1012F00024E0E20EF11C0C5F1F4F33E0C316D10453
:1013000009F0ADCFA0909506B0909606C0909706D4
:10131000D0909806E9A0FAA00BA11CA12D8D3E8DBE
:101320004F8D58A1698D7A8D8B8D9C8D812C0E945B
:10133000F00F4DA5453011F086E001C087E0BE01F9
:101340006F5F7F4F0E940C27882309F473C0A09021
:101350009506B0909606C0909706D0909806E984BE
:10136000FA840B851C852D813E814F8158856981CA
:101370007A818B819C81812C0E94F00F8CE0FE0190
:101380003196ADE0B1E001900D928A95E1F7912C94
:1013900053C08DA5863011F086E001C087E06DE076
:1013A00071E00E943F2648C0992009F4EDCE0DE07F
:1013B00011E06E0199E1C90ED11CE12CF12CA92C90
:1013C000B12CC5010E2C02C0959587950A94E2F7C1
:1013D00080FF1BC0D80151962D913D914D915C919C
:1013E00054976D917D918D919C910E94D72DF6011E
:1013F00020813181428153810E94D72DD8015D9691
:101400006D937D938D939C939097BFEFEB1AFB0A9E
:101410000C5F1F4FE4E0CE0ED11CF3E0EF16F10499
:1014200081F6B5CF8CE0EAE2F1E0DF011D928A950A
:10143000E9F702C08AE09EC222FC03C0992009F4A9
:10144000D2C130900301332091F020E030E0A901B7
:101450006CA97DA98EA99FA90E94B12E87FF07C004
:1014600080910201843019F086E080930101BAA9CD
:10147000BB2339F080910201823018F086E080931E
:10148000010180910101811175C2809005018E01D9
:10149000075E1F4F2DE0E22E21E0F22EC12CD12C51
:1014A000A92CB12CC5010C2C02C0959587950A94E6
:1014B000E2F780FF36C0EAA9E1113DC08820F9F0CB
:1014C000D7015D962D913D914D915C9190975196EC
:1014D0006D917D918D919C9154970E94D82D9B0187
:1014E000AC01F80160817181828193810E94D82DC5
:1014F000D8016D937D938D939C9313971CC0F70136
:101500002081318142815381D8016D917D918D91EE
:101510009C910E94D82DF80160837183828393830C
:101520000AC0F70180819181A281B381F801808393
:101530009183A283B383FFEFCF1ADF0A0C5F1F4FA3
:1015400024E0E20EF11C33E0C316D10409F0AACF67
:10155000409102014DA7443040F4423008F04DC0A4
:10156000442371F0413021F131C18DA5843009F05F
:101570002DC1992009F42AC186E08093010126C17A
:101580009920D1F3A0909506B0909606C09097064A
:10159000D0909806E9A0FAA00BA11CA12D8D3E8D3C
:1015A0004F8D58A1698D7A8D8B8D9C8D812C22C099
:1015B000992011F3311009C0B0910901A0910A01DD
:1015C000F0910B01E0910C0104C0BCA9ADA9FEA9EA
:1015D000EFA9E9A0FAA00BA11CA12D8D3E8D4F8D86
:1015E00058A1698D7A8D8B8D9C8D832CAB2EBA2E54
:1015F000CF2EDE2E0E94F00FE9C020901C0181E06A
:1016000090E0022C01C0880F0A94EAF780958921A6
:1016100009F4B2CF20E030E0A9016EA57FA588A92A
:1016200099A90E94B12E10911A0100911B018111FC
:10163000F0C020E030E0A901E1E0F0E0EC0FFD1F98
:1016400094E0199FE00DF11D112464857585868550
:1016500097850E94B12E8111DCC020E030E0A90105
:10166000E1E0F0E0EC0FFD1FA4E00A9FE00DF11DAA
:10167000112464857585868597850E94B12E8823FF
:1016800009F47ACFC6C0C701B6010E9413326B01BC
:101690007C01A5019401C301B2010E94C1309B01EC
:1016A000AC01C701B60190580E94B82E6B017C01B5
:1016B000BDA5B33021F4F7FAF094F7F8F09420E0E8
:1016C00030E0A9016EA57FA588A999A90E94B12E35
:1016D00087FF0DC0F7FAF094F7F8F0948EA59FA558
:1016E000A8A9B9A9B0588EA79FA7A8ABB9ABA1E08C
:1016F000B0E0AC0FBD1F0A0F1B1FA7019601C5016B
:10170000B4010E9486319B01AC01C301B2010E9469
:10171000D72D20E030E040E05FE30E948631F80101
:10172000648775878687978701E010E00C0F1D1F7F
:101730002AA93BA9020F131FA7019601C301B201F9
:101740000E9486319B01AC01C501B4010E94D82DD5
:1017500020E030E040E05FE30E948631D8011C9633
:101760006D937D938D939C931F9741E09DA592303F
:1017700009F040E03110F9C03091090120910A01CF
:1017800090910B0180910C014F93A9A9AF93B8A937
:10179000BF93EFA5EF93FEA5FF93832CA32EB22E4C
:1017A000C92ED82EE22C00911B0120911A01AE0106
:1017B000435F5F4FBE01675E7F4F8DE091E00E9407
:1017C00063100F900F900F900F900F908091010178
:1017D0008111D0C08CE0FE017996ADE0B1E00190BE
:1017E0000D928A95E1F780910601882369F00E94A5
:1017F0000A191092450180910601823019F40E9465
:10180000531402C01092060180910101B3C08CE014
:10181000B1C020E030E0A9016EA57FA588A999A9F3
:101820000E94B12E882309F47FC0E12FF0E08F01E0
:10183000000F111F000F111FA1E0B0E0AC0FBD1F82
:10184000A00FB11FF801E35FFE4F2081318142817B
:10185000538158966D917D918D919C915B970E94DB
:10186000D72D2B013C01A0911B01B0E0FD01EE0F33
:10187000FF1FEE0FFF1FFBABEAABE1E0F0E0EC0F68
:10188000FD1F2AA93BA9E20FF31FD901A35FBE4F99
:101890002D913D914D915C91608D718D828D938DD7
:1018A0000E94D72D4B015C01FE013D968CE0DF01CB
:1018B0001D928A95E9F720E030E040E850E46EA5FB
:1018C0007FA588A999A90E9486312EA53FA548A980
:1018D00059A90E9486316B017C01A3019201C301C9
:1018E000B2010E9486319B01AC01C701B6010E9482
:1018F000D72D6B017C01A5019401C501B4010E94A3
:1019000086319B01AC01C701B6010E94D72D6B0146
:101910007C0120E030E0A9010E94B12E87FFB3CE08
:1019200084E08093010126C0E1E0F0E0EC0FFD1FB0
:10193000B4E00B9FE00DF11D11242485358546850B
:101940005785E1E0F0E0EC0FFD1F84E0189FE00D0B
:10195000F11D112464857585868597850E94C130A7
:101960006EA77FA788AB99AB00CF3CA92DA99EA9F4
:101970008FA90ACFE9960FB6F894DEBF0FBECDBF90
:10198000DF91CF911F910F91FF90EF90DF90CF905B
:10199000BF90AF909F908F907F906F905F904F908F
:1019A0003F902F9008950E9470250E947D280E94EC
:1019B000BD2C789480E1E6E3F1E0DF011D928A9589
:1019C000E9F781E08093360180933701C6E0D1E0EA
:1019D00080913601882371F10E9431260E94D71828
:1019E0000E94A0040E94FB1E0E94AF280E94DB03FD
:1019F0000E944B0F0E94A92C0E946A15109236017A
:101A0000109238018091A60681FDD09345019091F6
:101A10003701913019F484FDC0933701809137016B
:101A2000863021F482E00E94872104C010923701A1
:101A30000E94121F0E946C1F0E94E220C9CF2F92A9
:101A40003F924F925F926F927F928F929F92AF924E
:101A5000BF92CF92DF92EF92FF920F931F93CF939B
:101A6000DF93CDB7DEB7E1970FB6F894DEBF0FBEB8
:101A7000CDBF282E362E4DA328013901FE01319607
:101A80008CE0DF011D928A95E9F720FE11C060917C
:101A900083067091840680918506909186060E9447
:101AA000563169837A838B839C83FF24F39401C02E
:101AB000F12C21FE0FC0F394609187067091880687
:101AC0008091890690918A060E9456316D837E83AB
:101AD0008F83988722FE0FC0F39460918B067091DC
:101AE0008C0680918D0690918E060E9456316987F2
:101AF0007A878B879C8709811A812B813C818D8114
:101B00009E81AF81B88580179107A207B30710F4B3
:101B1000D901C80109851A852B853C858D879E874B
:101B2000AF87B88B80179107A207B30720F40D8702
:101B30001E872F87388B6F2D70E080E090E00E9429
:101B4000512F0E9413324B015C016D857E858F857C
:101B500098890E94512FA50194010E94B82E6B0113
:101B60007C0120919E0630919F064091A0065091E5
:101B7000A1060E94863120E030E84BE355E40E9444
:101B8000B82E0E949E2E0E94252F69A37AA38BA3B4
:101B90009CA3A5019401C301B2010E9486319B015F
:101BA000AC01C701B6010E9486319B01AC0160EC1B
:101BB00071EE84E69CE40E94B82E0E9456316B01BF
:101BC0007C01683FB4E27B07B1E08B07910528F008
:101BD00028EF34E241E050E002C09B01AC011091DB
:101BE000A706107E809199061827311002C080EE5A
:101BF00018278D849E84AF84B888B694A794979450
:101C00008794B094A09490948094811C911CA11C02
:101C1000B11C8091900629013A01481A51086108C7
:101C200071084D8E5E8E6F8E78A28D8A9E8AAF8AE5
:101C3000B88E898A9A8AAB8ABC8A60E1462E67E2AE
:101C4000562E612C712C4AA65BA66CA67DA6198E19
:101C50001A8E1B8E1C8E04E0012770E1372E73B1A3
:101C60005DA0552019F08EE0682E762520FE22C05A
:101C700049805A806B807C80480C591C6A1C7B1CF4
:101C80005301420114141504160417049CF471FF47
:101C900002C0602F04C0622D6E7F262E612F53017B
:101CA00042018D859E85AF85B889881A990AAA0A4E
:101CB000BB0A01C0612F21FE31C04D805E806F8064
:101CC000788489899A89AB89BC89480E591E6A1E15
:101CD0007B1E4EA65FA668AA79AA498A5A8A6B8A91
:101CE0007C8A1414150416041704C4F472FF03C08C
:101CF00098E0692703C0A22DAD7F2A2E4EA45FA4D1
:101D000068A879A88D859E85AF85B889481A590A33
:101D10006A0A7B0A498A5A8A6B8A7C8A22FE30C008
:101D200049845A846B847C848D899E89AF89B88D5F
:101D3000480E591E6A1E7B1E4EA65FA668AA79AA87
:101D40004D8A5E8A6F8A788E14141504160417045F
:101D5000D4F473FF02C0632503C0922D9B7F292E0C
:101D60004EA45FA468A879A88D859E85AF85B889A3
:101D7000481A590A6A0A7B0A4D8A5E8A6F8A788EE7
:101D8000222009F46FC08091380184FD6BC08BB1B3
:101D90006C71837E682B6BB96091900670E080E077
:101DA00090E02EA33FA348A759A70E942C151BB96A
:101DB0006D8D7E8D8F8D98A10E942C152EA13FA137
:101DC00048A559A5C216D306E406F50608F047CF84
:101DD0004AA45BA46CA47DA4420E531E641E751E0F
:101DE0004AA65BA66CA67DA661E246166EE4560680
:101DF0006104710408F433CFD301C20180529E44C0
:101E0000A109B1098AA79BA7ACA7BDA7498C5A8C89
:101E10006B8C7C8C29A13AA14BA15CA1420E531E74
:101E2000641E751E498E5A8E6B8E7C8E60E077E83C
:101E300083E993E0A30192010E9473322C153D05C2
:101E40004E055F0510F4A7019601809190062901C7
:101E50003A01481A5108610871084D8E5E8E6F8EE6
:101E600078A2FDCEE1960FB6F894DEBF0FBECDBFCF
:101E7000DF91CF911F910F91FF90EF90DF90CF9066
:101E8000BF90AF909F908F907F906F905F904F909A
:101E90003F902F90089584B1817F84B985B18E6081
:101EA00085B98091A60683FF09C080916B008E6082
:101EB00080936B0080916800816008C080916B0006
:101EC000817F80936B00809168008E7F8093680093
:101ED00008951F920F920FB60F9211242F933F93E4
:101EE0004F935F936F937F938F939F93AF93BF9322
:101EF000EF93FF9380913701863059F0809138013C
:101F000085FD07C00E94531480913801806480933E
:101F10003801FF91EF91BF91AF919F918F917F9188
:101F20006F915F914F913F912F910F900FBE0F9046
:101F30001F9018950F931F93CF930E9460290091D3
:101F4000AC061091AD062091AE063091AF0640E090
:101F500061E084E00E941F0D0091AC061091AD0677
:101F60002091AE063091AF0640E061E083E00E9430
:101F70001F0D8091B0069091B1060E942115C2E01C
:101F8000C15048F10091A8061091A9062091AA0617
:101F90003091AB0641E060E087E00E941F0D809128
:101FA000B0069091B1060E942115C13049F7009109
:101FB000A8061091A9062091AA063091AB0640E030
:101FC00061E087E00E941F0D8091B0069091B106FC
:101FD0000E942115D5CFCF911F910F910C947C2990
:101FE0004F925F926F927F928F92AF92BF92CF92F9
:101FF000DF92EF92FF920F931F93CF93DF93CDB7B2
:10200000DEB728970FB6F894DEBF0FBECDBF2B0109
:102010003C01E982FA820B831C838091370187306F
:10202000E1F12D833E834F8358870E946C1F80917E
:102030003601811132C00E9402192D813E814F81EB
:1020400058858111EECFE980FA800B811C81C30194
:10205000B2010E94191980913701811103C082E0F9
:1020600080933701809145018823B9F028960FB6F7
:10207000F894DEBF0FBECDBFDF91CF911F910F91BE
:10208000FF90EF90DF90CF90BF90AF908F907F90B8
:102090006F905F904F900C94EA2C28960FB6F894AE
:1020A000DEBF0FBECDBFDF91CF911F910F91FF908B
:1020B000EF90DF90CF90BF90AF908F907F906F9018
:1020C0005F904F9008952F923F924F925F926F9240
:1020D0007F928F929F92AF92BF92CF92DF92EF92B8
:1020E000FF920F931F93CF93DF93CDB7DEB7EB979C
:1020F0000FB6F894DEBF0FBECDBF2C017A8F698F6B
:102100003A012F8F0DA3EFA2A9A2BAA2CBA2DCA203
:1021100089A634E0239F80011124400F511F5BA743
:102120004AA7DA01CD90DD90ED90FC90FC01E00F24
:10213000F11F2081318142815381C701B6010E9484
:10214000D82D6CA77DA78EA79FA7EDA1B4E0EB9F2C
:10215000100111249301220D331D39AB28ABD90195
:102160008D909D90AD90BC90F201E20DF31D208109
:10217000318142815381C501B4010E94D82D6AABDF
:102180007BAB8CAB9DABEFA1B4E0EB9FC001112406
:10219000F201E80FF91F20813181428153812D8B9B
:1021A0003E8B4F8B588FE98DFA8DE80FF91F6081B8
:1021B0007181828193810E94D72D6B8F7C8F8D8F4F
:1021C0009E8F2601370177FA709477F87094D501C5
:1021D000C401B058898B9A8BAB8BBC8BE98DFA8D7F
:1021E000E00FF11F2CA53DA54EA55FA56081718173
:1021F000828193810E94D72D6B017C01E98DFA8D3C
:10220000E20DF31D2AA93BA94CA95DA9608171814A
:10221000828193810E94D72D4B015C01A701960119
:10222000C301B2010E9486316D877E878F87988BAC
:10223000A501940169897A898B899C890E948631DC
:102240009B01AC016D857E858F8598890E94D82D74
:102250006D877E878F87988BA5019401C301B2019A
:102260000E9486314B015C01A701960169897A8938
:102270008B899C890E9486319B01AC01C501B40108
:102280000E94D72D2D853E854F8558890E944B2E63
:102290006B017C0165968FAD659720E030E0A90168
:1022A000882379F0C701B6010E94B43087FD19C0B8
:1022B0002BED3FE049EC50E4C701B6010E94D72D59
:1022C0000EC0C701B6010E94B12E181654F02BEDB6
:1022D0003FE049EC50E4C701B6010E94D82D6B01E4
:1022E0007C0164962CAD3DAD4EAD5FAD6497C701EA
:1022F000B6010E9486312B8D3C8D4D8D5E8D5F77B2
:102300000E94C1304B015C0120E030E0A9010E9435
:10231000B12E882309F4A8C120919A0630919B061A
:1023200040919C0650919D06C501B4010E94B82EB3
:102330000E948E2F0E94252F7FAB6EAB4B01A12CEC
:10234000B12C99A5992381F0C501B4010E94512FA8
:102350009B01AC0169A17AA18BA19CA10E9486314D
:1023600069A37AA38BA39CA3C501B4010E94512F3A
:102370004B015C019B01AC01C701B6010E94B82E64
:102380006D877E878F87988BA50194016B8D7C8DDF
:102390008D8D9E8D0E94B82E68AF79AF8AAF9BAFAE
:1023A00020E030E040E05FE36D857E858F85988991
:1023B0000E9486312D853E854F8558890E94863141
:1023C0009B01AC0160E070E080E89FE30E94D72DA4
:1023D0006B8F7C8F8D8F9E8FE1E0F0E0EC0FFD1F07
:1023E000BFA1A4E0BA9FE00DF11D11242D893E8903
:1023F0004F89588D2083318342835383912C22242B
:102400002394312C41E050E04C0F5D1F9F8D84E000
:10241000989F400D511D112458A74FA3A1E0B0E093
:10242000AC0FBD1F3DA124E0329FA00DB11D1124B2
:10243000BEA3ADA3F8A3EF8FEEA9FFA92E163F060A
:1024400008F0F9C08091B80690E0292D332727FDC8
:10245000309528173907F4F52B8D3C8D4D8D5E8D09
:1024600069897A898B899C890E9486316B017C01FC
:102470002D853E854F855889C301B2010E94863162
:10248000A70196010E94D82D7B018C012B8D3C8DDC
:102490004D8D5E8DC301B2010E9486312B013C013E
:1024A0002D853E854F85588969897A898B899C89D4
:1024B0000E9486319B01AC01C301B2010E94D72D5D
:1024C0002B013C019394A701B801498B5A8B6B8B6C
:1024D0007C8B64C0B10180E090E00E94512F2D857B
:1024E0003E854F8558890E9486316B017C010E9490
:1024F000B52E698B7A8B8B8B9C8BC701B6010E94A2
:1025000009324B015C01AAA5BBA5CD90DD90ED90F1
:10251000FC90F7FAF094F7F8F094A8A9B9A92D91D6
:102520003D914D915C912D8B3E8B4F8B588F29891E
:102530003A894B895C89C701B6010E9486312B011B
:102540003C01A50194016D897E898F89988D0E9437
:1025500086319B01AC01C301B2010E94D82D2B0131
:102560003C01A5019401C701B6010E9486316B01AF
:102570007C0129893A894B895C896D897E898F899B
:10258000988D0E9486319B01AC01C701B6010E9463
:10259000D72D698B7A8B8B8B9C8B912CA30192010D
:1025A0006CA57DA58EA59FA50E94D82DEFA1F8A5AD
:1025B000608371838283938329893A894B895C89FB
:1025C0006AA97BA98CA99DA90E94D82DADA1BEA105
:1025D0006D937D938D939C93139728AD39AD4AAD40
:1025E0005BADEF8DF8A160817181828193810E9442
:1025F000D82DAF8DB8A16D937D938D939C93139738
:10260000E984FA840B851C852D813E814F81588594
:1026100069817A818B819C8189A4A9A0BAA0CBA071
:10262000DCA00E94F00F8091360181111DC0BFEF28
:102630002B1A3B0A01CFA98DBA8D1896ED90FD900B
:102640000D911C911B9714962D913D914D915C918C
:1026500017976D917D918D919C9189A4A9A0BAA0A5
:10266000CBA0DCA00E94F00FEB960FB6F894DEBF73
:102670000FBECDBFDF91CF911F910F91FF90EF90D3
:10268000DF90CF90BF90AF909F908F907F906F9092
:102690005F904F903F902F9008958F929F92AF92AE
:1026A000BF92CF92DF92EF92FF924B015C0120E04C
:1026B00030E040EA51E40E9486310E948E2F0E9451
:1026C000252F6B017C010E940A1920E030E04AE7C7
:1026D00054E4C501B4010E9486314B015C0182E3E0
:1026E0008C9DB0018D9D700D112480E090E00E94C2
:1026F000512F9B01AC01C501B4010E94D72D0E944E
:102700008E2F0E94252FCB010E942115C114D104C8
:1027100099F00E946C1F21E0C21AD1088091360105
:1027200081110AC08FEF90E722E081509040204055
:10273000E1F700C00000EACFFF90EF90DF90CF906C
:10274000BF90AF909F908F9008954F925F926F923D
:102750007F928F92AF92BF92CF92DF92EF92FF92D1
:102760000F931F93CF93DF93CDB7DEB728970FB6A4
:10277000F894DEBF0FBECDBF85E080933701809116
:102780006B00817F80936B000E949A0F0E946C1FE8
:1027900080913601811171C08CE0E9E3F1E0DF0145
:1027A0001D928A95E9F70E946A151092370180916F
:1027B000A70685FF02C011E001C01FEF86FF02C01F
:1027C00001E001C00FEF87FF02C061E001C06FEFC1
:1027D0004090B2065090B3066090B4067090B50673
:1027E000A090AC06B090AD06C090AE06D090AF06FB
:1027F000772767FD7095872F972F0E94532FA3018E
:1028000092010E94863169837A838B839C83602F37
:10281000772767FD7095872F972F0E94532FA3016D
:1028200092010E9486316D837E838F839887612F0A
:10283000772767FD7095872F972F0E94532FA3014D
:1028400092010E948631812CE980FA800B811C81E3
:102850002D813E814F8158850E94F00F0E94EA2C05
:102860000E940A190E946A158091A60683FF05C07E
:1028700080916B008E6080936B0028960FB6F89461
:10288000DEBF0FBECDBFDF91CF911F910F91FF90A3
:10289000EF90DF90CF90BF90AF908F907F906F9030
:1028A0005F904F9008958091380184FD15C080910C
:1028B00038018061809338010E94AD280E94D903BD
:1028C000809137018350833038F4809138018062E1
:1028D000809338010C947C2908956F927F928F9297
:1028E0009F92AF92BF92CF92DF92EF92FF920F939F
:1028F0001F93CF93DF937C018B016A01FB018081E1
:10290000F701E80FF11D2081EF012D3229F4229605
:1029100021816624639407C02B3211F0219602C0F6
:1029200022962181612CA12CB12C712C60E070E0E9
:10293000CB01FE0130ED932E920E29E02915C8F04F
:10294000B39428E02B1588F0A1107A94A5E0B0E0AC
:102950009B01AC010E949B32660F771F881F991F55
:10296000690D711D811D911D0BC0A11009C07394CB
:1029700007C02EEF921207C0A11005C0AA24A3948D
:1029800021962081D6CFBB2009F44AC00E94512F46
:102990004B015C0120E030E0A9010E94B12E8823A8
:1029A00061F18FEF78166CF42AE037ED43E25CE3D7
:1029B000C501B4010E9486314B015C01739473948C
:1029C000F0CF78120BC02DEC3CEC4CEC5DE3C50174
:1029D000B4010E9486314B015C010FC0772069F081
:1029E00020E030E040E251E4C501B4010E948631AC
:1029F0004B015C017A9417149CF3662021F0B7FA1E
:102A0000B094B7F8B094F60180829182A282B3822A
:102A1000CE19DF09C150F801C08381E090E002C007
:102A200080E090E0DF91CF911F910F91FF90EF90A8
:102A3000DF90CF90BF90AF909F908F907F906F90DE
:102A40000895009741F0EFE9FFE03197F1F700C0FA
:102A500000000197F6CF0895611571058105910574
:102A6000C1F16A3071058105910548F425E02A9588
:102A7000F1F700006150710981099109EDCF6436C9
:102A800071058105910548F4E5E3EA95F1F7000049
:102A90006A50710981099109DFCF683EF3E07F0731
:102AA0008105910558F4EFE8F1E03197F1F700C0A6
:102AB00000006456710981099109CECFEFE9FFE06A
:102AC0003197F1F700C00000685E734081099109F9
:102AD000C3CF0895AF92BF92CF92DF92EF92FF9251
:102AE0000F931F93CF93DF9341E4A42E41E0B42EC4
:102AF000F501E080F180028113815DE3C52E51E094
:102B0000D52EF6012081318142815381C9E3D1E084
:102B1000688179818A819B810E941E1DF501E08078
:102B2000F18002811381F60120813181428153813C
:102B3000688179818A819B810E94CA04DF91CF914B
:102B40001F910F91FF90EF90DF90CF90BF90AF90CB
:102B500008952F923F924F925F926F927F928F9241
:102B60009F92AF92BF92CF92DF92EF92FF920F931C
:102B70001F93CF93DF93CDB7DEB760970FB6F8946E
:102B8000DEBF0FBECDBF1C012A013B014801590128
:102B9000FC0167A970AD81AD92AD0E94512F6B0110
:102BA0007C01A30192010E9486310E949E2E0E9408
:102BB000252F2B013C01F10163A374A385A396A3E8
:102BC000A5019401C701B6010E9486310E949E2E84
:102BD0000E94252F4B015C01F10167A370A781A71B
:102BE00092A723A534A545A556A5A2E3B0E00E946F
:102BF0009B320E94532F20E030E040E752E40E94D5
:102C000086310E94202F69837A838B839C830E9464
:102C1000532F6D837E838F839887C301B2010E94F7
:102C2000512F2B013C01A7019601C701B6010E945B
:102C300086316B017C01A3019201C301B2010E94A4
:102C4000863169877A878B879C872D813E814F816A
:102C50005885CA01B9010E94D82D6D877E878F875C
:102C6000988B29853A854B855C85C701B6010E9402
:102C7000D72D2D853E854F8558890E94B82E0E94FC
:102C80009E2E0E94202F2B013C01C501B4010E9401
:102C9000512F9B01AC010E9486314B015C01A701C1
:102CA00096010E94D72D6B017C0169817A818B810D
:102CB0009C8190958095709561957F4F8F4F9F4F28
:102CC0000E94532F9B01AC010E94D82D9B01AC01A7
:102CD000C701B6010E94B82E0E948E2FF101C58453
:102CE000D684E784F088A70196012419350946099E
:102CF000570929833A834B835C830E94202F2981C3
:102D00003A814B815C81261B370B480B590BDA014A
:102D1000C90157FF3DC0C701B6010E94532F9B0157
:102D2000AC016D857E858F8598890E9486312985C5
:102D30003A854B855C850E94D72DA50194010E94A0
:102D4000D82D4B015C0120E030E040E850E46D817B
:102D50007E818F8198850E9486319B01AC01C501DF
:102D6000B4010E94B82E0E949E2E0E94202F97FF31
:102D700003C060E070E0CB012B013C01C616D70612
:102D8000E806F90614F42601370180E090E0DC0142
:102D9000F10147A650AA61AA72AA840D951DA61D2D
:102DA000B71D83AB94ABA5ABB6AB60960FB6F894EA
:102DB000DEBF0FBECDBFDF91CF911F910F91FF906E
:102DC000EF90DF90CF90BF90AF909F908F907F90CB
:102DD0006F905F904F903F902F9008954F925F9229
:102DE0006F927F928F929F92AF92BF92CF92DF921B
:102DF000EF92FF920F931F93CF93DF939090630115
:102E0000C0E0D0E08BE3882E809164019816B1F188
:102E1000899C50011124C5018B599E4F5C0120975C
:102E200031F189A1811104C0F50181A18823F9F054
:102E3000C988DA88EB88FC88A7019601F5016589C5
:102E400076898789908D0E94B82E2B013C01A701BD
:102E500096016D897E898F89988D0E94B82EAB016D
:102E6000BC0193018201CE010E94A91519A293947D
:102E7000F2E19F1201C0912CE501C6CFC988DA8822
:102E8000EB88FC88A701960160E070E0CB010E940E
:102E9000B82E4B015C01A70196016D897E898F894F
:102EA000988D0E94B82EAB01BC0195018401CE0122
:102EB0000E94A91519A2DF91CF911F910F91FF9048
:102EC000EF90DF90CF90BF90AF909F908F907F90CA
:102ED0006F905F904F9008954F925F926F927F92A4
:102EE000AF92BF92CF92DF92EF92FF920F931F9318
:102EF000CF93DF938C01EB01FC01458856886788EE
:102F0000708CAD88BE88CF88D88C9501A601C3018E
:102F1000B2010E94B12E87FF42C0A3019201C301FA
:102F2000B2010E9486312B013C0180919E06909156
:102F30009F06A091A006B091A106BC01CD019058BA
:102F40009B01AC010E94D82DF801258D368D478D4F
:102F500050A10E9486319B01AC01C301B2010E94C5
:102F6000D72D0E9413327B018C019B01AC01B5016E
:102F7000C6010E94B12E87FF02C07501860197012C
:102F8000A801B501C6010E94B12E882341F0A70116
:102F9000B8014D8B5E8B6F8B788F81E089A3DF91B9
:102FA000CF911F910F91FF90EF90DF90CF90BF9046
:102FB000AF907F906F905F904F900895EF92FF9247
:102FC0000F931F93CF93DF9310916301F12C00E0D7
:102FD00080E090E02BE3E22E209164011217C1F013
:102FE000E19EE0011124CB59DE4F009741F0FC0136
:102FF00022A1211104C06F2D702F0E946C171F5F3A
:10300000123109F410E08F2D902FFC2E0D2FE4CFFC
:10301000009771F0FC0122A121110AC06F2D702FC1
:10302000DF91CF911F910F91FF90EF900C946C174F
:10303000DF91CF911F910F91FF90EF9008952F9204
:103040003F924F925F926F927F928F929F92AF9238
:10305000BF92CF92DF92EF92FF920F931F93CF9385
:10306000DF937090640180909E0690909F06A090E0
:10307000A006B090A106B7FAB094B7F8B094E12CCE
:10308000F12CC0E0D0E022242394809163017816D3
:1030900009F46DC0711002C032E1732E7A948BE393
:1030A000879D800111240B591E4F209709F45CC0A5
:1030B000E114F10409F458C0598C6A8C4B8C3C8C97
:1030C000252D362D442D532D6D897E898F89988D20
:1030D0000E94B12E882309F447C08AA181113BC008
:1030E000F701C588D688E788F08CA7019601652D81
:1030F000762D842D932D0E94B430181664F5A70107
:103100009601C701B6010E9486316B017C01A501C1
:103110009401C501B4010E94D82D2D8D3E8D4F8D97
:1031200058A10E9486319B01AC01C701B6010E94E3
:10313000D72D0E9413326B017C019B01AC01652DE0
:10314000762D842D932D0E94B12E87FD04C05C2C1A
:103150006D2C4E2C3F2C852D962DA42DB32D8D8BB3
:103160009E8BAF8BB88F29A27E01E8018ECFDF91B5
:10317000CF911F910F91FF90EF90DF90CF90BF9074
:10318000AF909F908F907F906F905F904F903F9007
:103190002F90089580916401809363018091640170
:1031A0008F5F823109F480E08093620108950E946C
:1031B000CA188CE1E6E4F1E0DF011D928A95E9F797
:1031C00008959091640180916301981741F0809176
:1031D00063018F5F823109F480E080936301089579
:1031E0009091640180916301981749F08091630187
:1031F0002BE3829FC00111248B599E4F089580E0DC
:1032000090E008952091630181E09091620129137B
:1032100080E008950E94F018892B21F480913701F5
:10322000833031F40E946C1F80913601882391F322
:1032300008952F923F924F925F926F927F928F925A
:103240009F92AF92BF92CF92DF92EF92FF920F9335
:103250001F93CF93DF93CDB7DEB7E6970FB6F89401
:10326000DEBF0FBECDBF29013A01EB82FC820D8388
:103270001E83209164010BE3209F700111248701BC
:103280000B591E4F1A830983E0908306F090840641
:103290000091850610918606EF86F88A098B1A8BB5
:1032A000A80197010E9486310E9456316BA77CA726
:1032B0008DA79EA7E0908706F0908806009189066A
:1032C00010918A06EB8AFC8A0D8B1E8BA801970150
:1032D000C301B2010E9486310E9456316FA778ABBC
:1032E00089AB9AAB40908B0650908C0660908D060F
:1032F00070908E064F8A588E698E7A8EA301920145
:103300006B817C818D819E810E9486310E94563125
:103310006BAB7CAB8DAB9EABA981BA811C928091CB
:10332000460190914701A0914801B09149014BA4F9
:103330005CA46DA47EA4481659066A067B0624F494
:1033400020E2E981FA81208340904A0150904B01AC
:1033500060904C0170904D014B825C826D827E8248
:10336000EFA4F8A809A91AA9E414F504060517059D
:103370002CF4E981FA8140814064408340904E0101
:1033800050904F0160905001709051014F825886CB
:1033900069867A86EBA8FCA80DA91EA9E414F50499
:1033A000060517052CF4E981FA81408140684083C5
:1033B0004BA45CA46DA47EA4481A590A6A0A7B0A2D
:1033C000C301B20177FE07C0442455243201461AD6
:1033D000570A680A790AA981BA8111964D925D92BD
:1033E0006D927C921497EFA4F8A809A91AA92B81D1
:1033F0003C814D815E81E21AF30A040B150BEB82CE
:10340000FC820D831E83EB8EFC8E0D8F1E8F17FFAB
:103410000CC010950095F094E094E11CF11C011D86
:10342000111DEB8EFC8E0D8F1E8FEB8CFC8C0D8D89
:103430001E8DA981BA811596ED92FD920D931C9374
:103440001897EBA8FCA80DA91EA92F8138854985DE
:103450005A85E21AF30A040B150BEF82F8860987E6
:103460001A87EB86FC860D871E8717FF0CC0109508
:103470000095F094E094E11CF11C011D111DEB86F8
:10348000FC860D871E87EB84FC840D851E85A98133
:10349000BA811996ED92FD920D931C931C970B8D9A
:1034A0001C8D2D8D3E8D041515052605370510F450
:1034B0009301820128013901EB84FC840D851E856E
:1034C0004E145F046006710610F427013801A981CB
:1034D000BA811D964D925D926D927C9250974114E7
:1034E00051046104710409F490C20E94532F2F8586
:1034F000388949895A890E94B82E6B8F7C8F8D8FAD
:103500009E8F6B817C818D819E810E94532F2B89A0
:103510003C894D895E890E94B82E6F8F78A389A35C
:103520009AA36F81788589859A850E94532F2F8968
:10353000388D498D5A8D0E94B82E6BA37CA38DA324
:103540009EA32B8D3C8D4D8D5E8DCA01B9010E94CD
:1035500086316B837C838D839E832F8D38A149A117
:103560005AA1CA01B9010E9486319B01AC016B814D
:103570007C818D819E810E94D82D6B837C838D837D
:103580009E832BA13CA14DA15EA1CA01B9010E945D
:1035900086319B01AC016B817C818D819E810E9473
:1035A000D82D0E9413326F8B788F898F9A8FE98183
:1035B000FA81658F768F878F90A39B01AC0160E0C5
:1035C00070E080E89FE30E94B82E6B837C838D833C
:1035D0009E83811007C09B01AC01C601B5010E940A
:1035E000863108C0A601950160E070E080E89FE3A5
:1035F0000E94B82E4B015C019B01AC016F89788D54
:10360000898D9A8D0E9486316F837B878F879B8BF4
:10361000CB01AF85BB89E981FA81818B928BA38B2A
:10362000B48BC301B2010E94532F2B013C01A501B1
:1036300094010E9486310E949E2E0E94252FA9810E
:10364000BA81D7966D937D938D939C93DA97E09092
:103650009E06F0909F060091A0061091A106EFA291
:10366000F8A609A71AA72B813C814D815E81C30171
:10367000B2010E948631A80197010E94863120E0A4
:1036800030E84BE355E40E94B82E0E949E2E0E9423
:10369000202FA981BA819B966D937D938D939C93E6
:1036A0009E972B813C814D815E816B8D7C8D8D8DB4
:1036B0009E8D0E9486312B013C012B813C814D81E6
:1036C0005E816F8D78A189A19AA10E9486316B8F4E
:1036D0007C8F8D8F9E8F2B813C814D815E816BA174
:1036E0007CA18DA19EA10E9486316B017C019091ED
:1036F000640180916301981709F482C100915E0111
:1037000010915F01209060013090610120E030E075
:10371000A901B801C1010E94B43018160CF070C1A3
:103720008091520190915301A0915401B0915501A3
:10373000BC01CD019058A30192010E9486314B013A
:103740005C012091560130915701409158015091F0
:1037500059016B8D7C8D8D8D9E8D0E9486319B01D4
:10376000AC01C501B4010E94D72D4B015C01209131
:103770005A0130915B0140915C0150915D01C7019C
:10378000B6010E9486319B01AC01C501B4010E94C3
:10379000D72D4B015C0123E333E343E75FE30E9452
:1037A000B12E87FF2DC12F813B854F855B89B801E5
:1037B000C1010E94B12E87FD04C00F811B852F849B
:1037C0003B8823E333E343E75FEBC501B4010E9489
:1037D000B43018160CF049C0A501940160E070E007
:1037E00080E89FE30E94D72D20E030E040E05FE3D7
:1037F0000E9486310E9413324B015C012091A20687
:103800003091A3064091A4065091A5066FA178A51A
:1038100089A59AA50E948631A50194010E9486314E
:103820006B837C838D839E83A501940160E070E0AF
:1038300080E89FE30E94D72D9B01AC016B817C81C6
:103840008D819E810E94B82E0E9413324B01B82EAA
:10385000A92E9B01482F592FB801C1010E94B12EFA
:1038600087FD03C084012B2C3A2CC801D101E981CA
:10387000FA81818F928FA38FB48F6FA178A589A5CC
:103880009AA590589B01AC010E94D82D2F89388DA4
:10389000498D5A8D0E9486319B01AC0160E070E039
:1038A000CB010E94D72D0E9413324B01B82EA92EB6
:1038B0009B01482F592FB801C1010E94B12E87FFEB
:1038C00003C0302F212F04C0382D292D2B2C3A2C4A
:1038D000832F922FD101E981FA81858B968BA78B5B
:1038E000B08F94014B2D5A2D6F817B858F859B89DD
:1038F0000E94B12E181634F081E0A981BA81929607
:103900008C9303C0E981FA8112A281E0A981BA8176
:1039100091968C93409252015092530160925401BF
:10392000709255014B8C5C8C6D8C7E8C4092560154
:10393000509257016092580170925901C0925A01F9
:10394000D0925B01E0925C01F0925D018F819B85DA
:10395000AF85BB8980935E0190935F01A093600166
:10396000B093610180916201809364018091640150
:103970008F5F823109F480E080936201EBA4FCA4A4
:103980000DA51EA5E0924601F09247010093480163
:10399000109349014FA458A869A87AA840924A01F7
:1039A00050924B0160924C0170924D01EBA8FCA823
:1039B0000DA91EA9E0924E01F0924F010093500113
:1039C000109351010E941F180E94DE17E6960FB651
:1039D000F894DEBF0FBECDBFDF91CF911F910F9145
:1039E000FF90EF90DF90CF90BF90AF909F908F901F
:1039F0007F906F905F904F903F902F900C94EE16B9
:103A000000E010E0212C312C30CFE6960FB6F89470
:103A1000DEBF0FBECDBFDF91CF911F910F91FF9001
:103A2000EF90DF90CF90BF90AF909F908F907F905E
:103A30006F905F904F903F902F900895EF92FF927C
:103A40000F931F9360934601709347018093480141
:103A50009093490120934A0130934B0140934C01CC
:103A600050934D01E0924E01F0924F0100935001AE
:103A7000109351011F910F91FF90EF9008958F9235
:103A80009F92AF92BF92CF92DF92EF92FF92CF932D
:103A9000DF936B017C01C09163018BE3C89FE00160
:103AA0001124CB59DE4FC701B6010E94532F2D8D33
:103AB0003E8D4F8D58A10E9486314B015C016D8572
:103AC0007E858F8598890E94532F9B01AC01C5018B
:103AD000B4010E94B82E6D8F7E8F8F8F98A3CD86F4
:103AE000DE86EF86F88A1D8A1E8A1F8A188E198E36
:103AF0001A8E1B8E1C8E1AA281E089A30E941F18A9
:103B00000E94DE17DF91CF91FF90EF90DF90CF9072
:103B1000BF90AF909F908F900C94EE16CF93DF9351
:103B2000EC018991882319F00E948625FACFDF9154
:103B3000CF910895CF93DF93FC018491EF012196FB
:103B4000882321F00E948625FE01F7CFDF91CF91D7
:103B50000895EF92FF920F931F93CF93DF93CDB70A
:103B6000DEB728970FB6F894DEBF0FBECDBFFE01BB
:103B700031967F019E01275F3F4F982F917091935F
:103B80008695E217F307C9F78F01F80182918F013B
:103B9000805D0E9486250E151F05B9F728960FB681
:103BA000F894DEBF0FBECDBFDF91CF911F910F9173
:103BB000FF90EF9008958F929F92AF92BF92CF9215
:103BC000DF92EF92FF92CF93DF93CDB7DEB72A97C4
:103BD0000FB6F894DEBF0FBECDBF6B017C0197FF1F
:103BE0000BC08DE20E948625F094E094D094C0949E
:103BF000C11CD11CE11CF11CC701B601C114D104C8
:103C0000E104F10499F480E32A960FB6F894DEBF3C
:103C10000FBECDBFDF91CF91FF90EF90DF90CF909F
:103C2000BF90AF909F908F900C94862520E04AE043
:103C3000842E912CA12CB12CDD24D394D20EEE2411
:103C4000E394F12CEC0EFD1EE20EF11CA501940193
:103C50000E947332605DF7016083B901CA0161158A
:103C600071058105910511F02D2DE6CFDD2041F084
:103C7000FE01ED0DF11D80810E948625DA94F6CFBC
:103C80002A960FB6F894DEBF0FBECDBFDF91CF915D
:103C9000FF90EF90DF90CF90BF90AF909F908F906C
:103CA00008958F929F92AF92BF92CF92DF92EF9240
:103CB000FF920F931F93CF93DF93CDB7DEB72A9771
:103CC0000FB6F894DEBF0FBECDBF6B017C0120E0C4
:103CD00030E0A9010E94B12E87FF07C08DE20E944B
:103CE0008625F7FAF094F7F8F0941091B706012FB3
:103CF000023060F020E030E048EC52E4C701B60149
:103D00000E9486316B017C010250F2CF10FF0AC085
:103D100020E030E040E251E4C701B6010E94863164
:103D20006B017C0120E030E040E05FE3C701B601B9
:103D30000E94D82D0E94202FE1E0F0E0EC0FFD1F43
:103D4000E10FF11D2EE22083D12CEAE08E2E912C82
:103D5000A12CB12C6115710581059105A9F0D11235
:103D600001C0D394EE24E394F12CEC0EFD1EED0C77
:103D7000F11CA50194010E947332605DF70160831C
:103D8000B901CA01D394E6CF80E3D11648F4E1E04B
:103D9000F0E0EC0FFD1FED0DF11D8083D394F5CF06
:103DA0008D2DD1120BC0D394D3948F5FE1E0F0E05E
:103DB000EC0FFD1FE80FF11D80E38083DD2041F053
:103DC000FE01ED0DF11D80810E948625DA94F6CF6B
:103DD0002A960FB6F894DEBF0FBECDBFDF91CF910C
:103DE0001F910F91FF90EF90DF90CF90BF90AF9019
:103DF0009F908F90089510928C0510928B050E94D1
:103E0000AD2187B1887F87B988B1876088B9ECE632
:103E1000F0E0808187608083E8E6F0E08081826066
:103E200080830895CF93C0E06DE875E08C2F0E94E9
:103E3000EF26811102C08AE00CC080918D05882395
:103E400051F08DE895E00E948E1D8DE895E00E946E
:103E500023050E942D21CF5FC23031F7CF91089505
:103E60001F920F920FB60F9211242F933F934F93EF
:103E70005F936F937F938F939F93AF93BF93EF93D2
:103E8000FF9386B190E08095909587709927892B54
:103E900091F0309903C00E9453140DC0319904C0B1
:103EA00080913801886005C0329905C08091380141
:103EB000826080933801FF91EF91BF91AF919F9104
:103EC0008F917F916F915F914F913F912F910F90C3
:103ED0000FBE0F901F901895CF93809138018823C3
:103EE00009F453C0C09138018C2F8076E9F086E048
:103EF00080933701C6FF10C08FEF0E946D2181E0D3
:103F00000E948721809138018F7E809338018091B3
:103F1000380184FFFCCF03C08EEF0E946D21809199
:103F200038018F7980933801C4FF04C081E0809309
:103F300036012BC0C0FF07C00E9483248091380146
:103F40008E7F80933801C3FF07C00E94F42C8091BC
:103F50003801877F80933801C2FF07C00E94FE2C82
:103F6000809138018B7F80933801C1FF0EC00E9481
:103F7000EA2C8091A60681FF03C081E08093450171
:103F8000809138018D7F80933801CF910895CF9231
:103F9000DF92EF92FF921F93CF93DF93CDB7DEB7FF
:103FA00029970FB6F894DEBF0FBECDBF7C01FC0190
:103FB0008081843209F0F5C081E089878181833472
:103FC000A9F14CF4833201F1843291F0811183C064
:103FD0000E94B12117C0883409F451C01CF4873401
:103FE000E1F079C08E3409F45DC08835C1F173C049
:103FF00082E08987F7018281882311F083E0D4C0B1
:104000000E94B52180E0D0C082E08987F7018281DB
:104010008111F4CF0E94FA22F5CF82E08987F7015F
:1040200082818111EBCF0E94A723ECCF82E08987A8
:10403000F70182818111E2CF80913701873021F42D
:104040000E94531485E008C0882311F08BE0ACC0B7
:1040500087E08093370184E00E948721D3CF82E0FC
:104060008987F70182818111C9CF8091370186301C
:1040700049F683E00E94872110923701C3CF8091D7
:10408000A60684FF8CC080913701882311F086300A
:10409000E9F60E94A513809136018111B3CF0E94E9
:1040A000121FB0CF82E08987F7018281811115C08C
:1040B00010E0B701812F0E94EF26811104C08AE031
:1040C0000E942D2104C0B701812F0E9466241F5F2A
:1040D000123079F797CF10E001C011E0AE014B5FCD
:1040E0005F4FBE01675F7F4FC7010E946D14892B30
:1040F00011F481E059C0898521E0280F2987F70153
:10410000E80FF11D80818D3309F078CF112321F163
:10411000822F90E0E22FF0E0D701AE0FBF1F3C915D
:10412000E81BF90BEE0DFF1D30832F5F3C91311121
:10413000F1CF2987C7010E942305811135C06D8108
:104140007E818F8198850E9454320E94252F862F70
:10415000B7010E94362656CFAE014F5F5F4FBE01BA
:10416000675F7F4FC7010E946D14892B11F289850B
:10417000F701E80FF11D8081811140CFC980DA80FD
:10418000EB80FC806D817E818F8198850E94202F3D
:10419000DC01CB01B701A6010E94532705C087E0CF
:1041A00003C0C7010E94230529960FB6F894DEBF0D
:1041B0000FBECDBFDF91CF911F91FF90EF90DF90A9
:1041C000CF900895CF93C1E00E94CC258F3F09F492
:1041D00042C08A3011F08D30C9F40E946C1F80916A
:1041E0003601811138C0E0918C05EE2349F0F0E0F2
:1041F000E357FA4F10828DE895E00E94C71F01C077
:1042000080E00E942D2110928C0506C090918B05B4
:10421000992329F08932C1F610928B05D5CF8132CE
:1042200098F28F3289F2883219F4C0938B05CCCF83
:1042300020918C05213340F691E0920F30E04FE958
:10424000480F90938C05F901E357FA4F4A3108F46F
:1042500080528083B9CFCF910895CF93C82F811119
:1042600003C08EE797E036C086E797E00E949A1D6C
:104270008C2F90E0FC013197EC30F10548F5EF5AB6
:10428000FF4F0C94953284E697E020C08CE497E0D1
:104290001DC086E397E01AC087E297E017C081E16E
:1042A00097E014C08FEF96E011C08EEE96E00EC03E
:1042B00082EE96E00BC083ED96E008C082EB96E0BC
:1042C00005C083EA96E002C088E996E00E949A1D44
:1042D00085E996E0CF910C949A1DCF93C82F8DE875
:1042E00096E00E949A1DCE3F29F0CF3F39F482E834
:1042F00096E002C08FE696E00E949A1D85E696E061
:104300000E949A1D84EF91E0CF910C942115CF93D8
:10431000C82F83E696E00E949A1DC33091F038F4CE
:10432000C13061F0C230A1F48DE396E00FC0C4301B
:1043300059F0C53069F48AE196E008C081E596E05D
:1043400005C08BE296E002C083E296E00E949A1DCF
:1043500086E196E0CF910C949A1D89EF95E00C943C
:104360009A1D8BEC94E00C949A1DCF93DF9387EC0D
:1043700094E00E949A1D609183067091840680915A
:104380008506909186060E94511E84EB94E00E945F
:104390009A1D609187067091880680918906909198
:1043A0008A060E94511E81EA94E00E949A1D609143
:1043B0008B0670918C0680918D0690918E060E94DE
:1043C000511E8EE894E00E949A1D6091900670E064
:1043D00080E090E00E94DB1D85E794E00E949A1D3A
:1043E0006091910670919206809193069091940647
:1043F0000E94511E88E594E00E949A1D60919506E6
:104400007091960680919706909198060E94511E91
:104410008BE394E00E949A1DC9E9D6E0688170E0C0
:1044200080E090E00E94DB1D8DE194E00E949A1DE7
:1044300088810E94A91D86E194E00E949A1D6091E6
:10444000B60670E080E090E00E94DB1D88EF93E00C
:104450000E949A1D20E030E041E655E460919E06FE
:1044600070919F068091A0069091A1060E94B82E9F
:104470000E94511E89ED93E00E949A1D6091A20650
:104480007091A3068091A4069091A5060E94511EEA
:1044900089EB93E00E949A1D60919A0670919B06A9
:1044A00080919C0690919D060E94511E80EA93E0A7
:1044B0000E949A1D6091B80670E080E090E00E9432
:1044C000DB1D81E893E00E949A1D6091B70670E0C1
:1044D00080E090E00E94DB1D88E693E00E949A1D38
:1044E000C6EAD6E06881617070E080E090E00E94EA
:1044F000DB1D8BE493E00E949A1D688166956170D4
:1045000070E080E090E00E94DB1D81E393E00E9478
:104510009A1D688162FB662760F970E080E090E098
:104520000E94DB1D8FE093E00E949A1D688163FB6F
:10453000662760F970E080E090E00E94DB1D84EF68
:1045400092E00E949A1D68816295617070E080E03F
:1045500090E00E94DB1D88ED92E00E949A1DC7EA60
:10456000D6E0688170E080E090E00E94DB1D89EB7E
:1045700092E00E949A1D88810E94A91D81EB92E021
:104580000E949A1D6091A8067091A9068091AA06C2
:104590009091AB060E94511E84E992E00E949A1D00
:1045A0006091AC067091AD068091AE069091AF0619
:1045B0000E94511E87E792E00E949A1D6091B0060A
:1045C0007091B10680E090E00E94DB1D88E592E0EA
:1045D0000E949A1D6091B2067091B3068091B40654
:1045E0009091B5060E94511E8FE392E0DF91CF912A
:1045F0000C949A1DEF92FF920F931F93CF93DF932A
:10460000CDB7DEB72C970FB6F894DEBF0FBECDBF87
:10461000F12CBE016F5F7F4F8F2D0E940C278111FF
:1046200004C08AE00E942D2185C08CE392E00E94A4
:104630009A1D4F2D50E0FA013197E730F10520F433
:10464000E35AFF4F0C94953288E392E014C084E360
:1046500092E011C080E392E00EC08CE292E00BC0C9
:1046600088E292E008C084E292E005C080E292E035
:1046700002C08CE192E00E949A1D8E010F5F1F4FD5
:10468000E12C8091A60680FF0CC02BE832E441E2C9
:104690005DE3F80160817181828193810E9486319E
:1046A00005C0F80160817181828193810E94511E51
:1046B000F2E0EF1619F08AE192E002C086E192E0A2
:1046C0000E949A1DE3940C5F1F4F83E0E812D9CF3C
:1046D000F394E8E0FE129DCF80E192E00E949A1DE3
:1046E0000AE211E0F12C8091A60680FF0CC02BE8B5
:1046F00032E441E25DE3F80160817181828193815E
:104700000E94863105C0F8016081718182819381A8
:104710000E94511EF2E0FF1619F08EE092E002C0F6
:104720008AE092E00E949A1DF3940C5F1F4F83E091
:10473000F812D9CF2C960FB6F894DEBF0FBECDBFBE
:10474000DF91CF911F910F91FF90EF90089580918D
:104750000201823091F038F4882361F08130A1F4B5
:1047600082E092E00FC0833059F0843069F485EF25
:1047700091E008C086E092E005C08EEF91E002C0B3
:104780008AEF91E00E949A1D82EF91E00E949A1DAB
:1047900060911D0170E06A5C7F4F882777FD8095EE
:1047A000982F0E94DB1D80911A0181110AC080910F
:1047B0001B01813019F48DEE91E005C088EE91E087
:1047C00002C083EE91E00E949A1D8091040188232B
:1047D00019F08EED91E002C089ED91E00E949A1DE2
:1047E00080910501882319F084ED91E002C08FECDF
:1047F00091E00E949A1D80910301882319F08AECB0
:1048000091E002C085EC91E00E949A1D8091060122
:10481000813049F028F0823051F489EB91E005C0F5
:1048200081EC91E002C08DEB91E00E949A1D809195
:104830000701882351F0813029F08F3F51F481EB3B
:1048400091E005C085EB91E002C08DEA91E00E9405
:104850009A1D80910801882329F0813039F485EA76
:1048600091E002C089EA91E00E949A1D82EA91E0FB
:104870000E949A1D6091190170E080E090E00E9412
:10488000DB1D8FE991E00E949A1D8091040188232D
:1048900079F02BE832E441E25DE360910901709127
:1048A0000A0180910B0190910C010E94863108C091
:1048B0006091090170910A0180910B0190910C01A6
:1048C0000E94511E8BE991E00C949A1D1F93CF9387
:1048D000DF93182FEB0188E991E00E949A1D612F68
:1048E00070E080E090E00E94DB1D86E991E00E948C
:1048F0009A1DCE010E948E1D83E991E0DF91CF9138
:104900001F910C949A1D8F929F92AF92BF92CF925B
:10491000DF92EF92FF920F931F93CF93DF93CDB768
:10492000DEB76C970FB6F894DEBF0FBECDBF8CE03C
:10493000E9E3F1E0DE011D9601900D928A95E1F721
:104940008091370190E088309105D8F4FC01EC5952
:10495000FF4F0C9495328DE891E011C086E891E00C
:104960000EC081E891E00BC08BE791E008C085E7BD
:1049700091E005C08EE691E002C087E691E00E94DA
:104980009A1D80E691E00E949A1D7E018DE0E80E5E
:10499000F11C83E8C82E86E0D82E5E0199E1A90EAD
:1049A000B11C8E010F5F1F4FF701619171918191D1
:1049B00091917F01F60121913191419151916F01C6
:1049C000298F3A8F4B8F5C8F0E94532F298D3A8D00
:1049D0004B8D5C8D0E94B82E4801F8016083718375
:1049E000828393832091A60620FF0BC02BE832E43C
:1049F00041E25DE30E948631F80160837183828326
:104A000093830C5F1F4FF4016081718182819381D8
:104A10000E94511E8EE591E00E949A1DEA14FB044B
:104A200019F688E591E00E949A1D0EE111E0CE0191
:104A300001967C01D12C8091A606F801248535854C
:104A40004685578580FF0DC0608171818281938189
:104A50000E94D82D2BE832E441E25DE30E948631CA
:104A600006C060817181828193810E94D82D9B0153
:104A7000AC01F70160817181828193810E94D72D01
:104A8000F7016083718382839383F7016191719150
:104A9000819191917F010E94511EF2E0DF1621F079
:104AA00086E591E00E949A1DD3940C5F1F4F83E02E
:104AB000D812C1CF82E591E06C960FB6F894DEBFB4
:104AC0000FBECDBFDF91CF911F910F91FF90EF905F
:104AD000DF90CF90BF90AF909F908F900C949A1DD5
:104AE000E0ECF0E080818D7F80831092C50087E646
:104AF0008093C400E1ECF0E080818061808380815C
:104B0000886080838081806880830895E091C005FB
:104B100091E09E0F903409F490E02091BF0592132C
:104B200005C02091380124FFF8CF0895F0E0EF533D
:104B3000FA4F80839093C0058091C100806280937A
:104B4000C10008951F920F920FB60F9211248F93F8
:104B50009F93EF93FF938091BF05E82FF0E0EF5311
:104B6000FA4F90819093C6008F5F803409F480E003
:104B70008093BF059091C005891305C08091C10045
:104B80008F7D8093C100FF91EF919F918F910F9046
:104B90000FBE0F901F90189590910106809102060C
:104BA000891771F0E92FF0E0ED5FF94F80819F5F89
:104BB000903819F090930106089510920106089517
:104BC0008FEF08951F920F920FB60F9211242F931B
:104BD0003F934F935F936F937F938F939F93AF9385
:104BE000BF93EF93FF938091C600813291F028F438
:104BF0008831A9F40E94531423C08F3331F08E37CB
:104C000071F480913801826007C080913801816021
:104C100003C08091380188608093380111C0E09111
:104C2000020691E09E0F903809F490E02091010671
:104C3000921731F0F0E0ED5FF94F80839093020618
:104C4000FF91EF91BF91AF919F918F917F916F9164
:104C50005F914F913F912F910F900FBE0F901F903A
:104C600018958091020680930106089523E3829FA0
:104C7000C001112442E350E09D5F0C94F6032DE047
:104C8000829FC00111244CE050E09E5F0C94F6031B
:104C900065E080E090E00E94F40346E350E063E8C2
:104CA00076E081E090E00C94F603882309F45EC07E
:104CB00080E090E0A0E2B2E48093830690938406C3
:104CC000A0938506B0938606809387069093880606
:104CD000A0938906B0938A0680938B0690938C06E6
:104CE000A0938D06B0938E068AE08093900680E0B4
:104CF00090E0AAE7B3E48093910690939206A09384
:104D00009306B093940680E090E0AAEFB3E480931A
:104D1000950690939606A0939706B093980680E028
:104D200098ECAFEAB8E480939E0690939F06A09318
:104D3000A006B093A1068DEC9CECACECBDE3809397
:104D40009A0690939B06A0939C06B0939D0680E2E2
:104D5000809399068DEC9CECACE4BDE38093A206B5
:104D60009093A306A093A406B093A50682E0809337
:104D7000A6061092A70680E090E0AAE7B4E480932C
:104D8000A8069093A906A093AA06B093AB0680E06C
:104D900090E0AAEFB4E48093AC069093AD06A093A4
:104DA000AE06B093AF0684E690E09093B106809390
:104DB000B00680E090E0A0E8BFE38093B206909355
:104DC000B306A093B406B093B50689E18093B60606
:104DD00093E09093B7068093B8060C9448261F93EF
:104DE000CF93DF93182FEB0183E3189FB0011124B9
:104DF0007D5F42E350E0CE010E943204892B39F4FA
:104E00001882BE01812F0E94362680E001C081E019
:104E1000DF91CF911F9108951F93CF93DF93182FA8
:104E2000EB018DE0189FB00111247E5F4CE050E053
:104E3000CE010E943204892B59F48CE0FE011192BC
:104E40008A95E9F7BE01812F0E943F2680E001C0CC
:104E500081E0DF91CF911F91089580E090E00E9462
:104E6000F203853061F446E350E061E070E083E8EE
:104E700096E00E94320421E0892B99F402C085302B
:104E800010F020E00EC043E250E061E070E083E803
:104E900096E00E943204892BA1F380E00E945526FF
:104EA00021E0822F0895CF92DF92EF92FF92CF936D
:104EB000DF93EC016A017B018731910508F011C194
:104EC000FC01E459FF4F0C94953220E030E0A90139
:104ED000C701B6010E94B12E18160CF004C1CC0F08
:104EE000DD1FCC0FDD1FCD57D94FC882D982EA8292
:104EF000FB82F3C020E030E040E450E4C701B6019B
:104F00000E94B12E87FDF1C0C701B6010E94E931B0
:104F10000E94252F60939006E0C040939106509325
:104F200092066093930670939406D7C040939506BB
:104F3000509396066093970670939806CEC0CB0167
:104F4000BA010E9454320E94252F60939906C5C071
:104F5000CB01BA010E94E9310E94252F6093B60669
:104F6000BCC020E030E040E752E4C701B6010E9437
:104F7000863120E030E040E752E40E9486316093C1
:104F80009E0670939F068093A0069093A106A5C0ED
:104F9000E894F7F8C092A206D092A306E092A40685
:104FA000F092A5069AC040939A0650939B06609390
:104FB0009C0670939D0691C0CB01BA010E94E93115
:104FC0000E94252F6093B80688C0CB01BA010E94C9
:104FD000E9310E94252F6093B7067FC020E030E0C2
:104FE000A901C701B6010E94B12E9091A60688239F
:104FF00011F091600EC09E7F0CC020E030E0A9014E
:10500000C701B6010E94B12E9091A606882321F017
:1050100092609093A60661C09D7FFBCF20E030E0B8
:10502000A901C701B6010E94B12E9091A60688235E
:1050300011F09460EECF9B7FECCF20E030E0A9012F
:10504000C701B6010E94B12E9091A606882311F0E7
:10505000986001C0977F9093A6060E944B0F3DC0B9
:1050600020E030E0A901C701B6010E94B12E909165
:10507000A606882311F09061CCCF9F7ECACFCB01CA
:10508000BA010E9454320E94252F6093A70625C0C2
:105090004093A8065093A9066093AA067093AB06A6
:1050A0001CC04093AC065093AD066093AE0670935F
:1050B000AF0613C0CB01BA010E94E9310E94252F2F
:1050C0007093B1066093B00608C04093B206509347
:1050D000B3066093B4067093B5060E94482680E03C
:1050E00005C086E003C088E001C089E0DF91CF9170
:1050F000FF90EF90DF90CF9008951F93CF93DF93B1
:10510000CDB7DEB72C970FB6F894DEBF0FBECDBF7C
:105110000E942D27811108C08AE00E942D2181E084
:105120000E9455260E94B52110E0BE016F5F7F4F9F
:10513000812F0E940C27811103C08AE00E942D213B
:105140001F5F183091F72C960FB6F894DEBF0FBE94
:10515000CDBFDF91CF911F9108952C9808951092A3
:10516000B906249A259A0C94AD28CF93C82F482FBE
:10517000552747FD50952091B90630E04217530757
:1051800071F00E940A19CC2331F014F02D9801C05F
:105190002D9A2C9A02C00E94AD28C093B906CF91D7
:1051A00008958091D3069091D406A091D506B09130
:1051B000D6064091D7065091D8066091D9067091D5
:1051C000DA06840F951FA61FB71F813022EE9207C3
:1051D00024E0A207B10550F48093D7069093D80637
:1051E000A093D906B093DA0680E00895925EA440B9
:1051F000B1098093D7069093D806A093D906B093AF
:10520000DA0681E008959B01AC01203283E0380783
:105210004105510520F420E233E040E050E060E039
:1052200070E788E399E30E9473322115310581E02C
:105230004807510518F4C90171E02FC02115310547
:1052400088E048075105A8F4BA01A901E3E0769582
:10525000679557954795EA95D1F7CA019A01AB0131
:10526000F3E0220F331F441F551FFA95D1F772E068
:1052700014C0BA01A90186E07695679557954795C0
:105280008A95D1F7CA019A01AB0166E0220F331F5C
:10529000441F551F6A95D1F773E060918100687FC4
:1052A000672B6093810090938900809388002093FE
:1052B000D3063093D4064093D5065093D60608956E
:1052C0008091A60682FF02C0289A01C0289880918A
:1052D0003701833081F4809199068093BB068091D9
:1052E0009006880F845081958093BC0680916F0052
:1052F000826080936F00089580916F008D7F80930E
:105300006F008091B6068F3F21F49091380195FF90
:10531000089590E00E9421158091A60682FF02C0A8
:1053200028980895289A08951F920F920FB60F9209
:1053300011240F931F932F933F934F935F936F937A
:105340007F938F939F93AF93BF93CF93DF93EF930D
:10535000FF938091BA068111D0C29BB18091BB06A8
:10536000807E9F71892B8BB98BB1837E9091BB0618
:10537000892B8BB98091BC068093B20082E0809328
:10538000B10081E08093BA0678948091BD06909137
:10539000BE06892B09F07FC00E94F018EC019093A3
:1053A000BE068093BD06009709F46EC08091370158
:1053B0008330D1F46BA17CA18DA19EA16093DB060B
:1053C0007093DC068093DD069093DE060E9403292D
:1053D00040E051E762E070E04093D7065093D80672
:1053E0006093D9067093DA060BA51CA52DA53EA5E2
:1053F000B901A8017595679557954795400F511FBD
:10540000621F731F4093DF065093E0066093E1062E
:105410007093E2064D855E856F857889DB01CA0150
:10542000B595A79597958795B095A09590958195F9
:105430009F4FAF4FBF4F8093BF069093C006A0937E
:10544000C106B093C2068093C3069093C406A0938E
:10545000C506B093C6068093C7069093C806A0936E
:10546000C906B093CA064093CB065093CC0660930E
:10547000CD067093CE061092CF061092D0061092F1
:10548000D1061092D20607C00E947C298091380173
:10549000846080933801C091BD06D091BE062097EC
:1054A00009F422C228812093BB068091BF06909107
:1054B000C006A091C106B091C20649815A816B8194
:1054C0007C81840F951FA61FB71F8093BF06909302
:1054D000C006A093C106B093C206181619061A0694
:1054E0001B068CF5322F34603093BB064091CB06FF
:1054F0005091CC066091CD067091CE06841B950B21
:10550000A60BB70B8093BF069093C006A093C1066D
:10551000B093C2068091390190913A01A0913B016C
:10552000B0913C0125FF04C00197A109B10903C056
:105530000196A11DB11D8093390190933A01A0936A
:105540003B01B0933C018091C3069091C406A091A9
:10555000C506B091C6064D815E816F817885840F46
:10556000951FA61FB71F8093C3069093C406A093F0
:10557000C506B093C606181619061A061B069CF532
:105580002091BB06322F38603093BB064091CB068A
:105590005091CC066091CD067091CE06841B950B80
:1055A000A60BB70B8093C3069093C406A093C506C1
:1055B000B093C60680913D0190913E01A0913F01BC
:1055C000B091400126FF04C00197A109B10903C0B1
:1055D0000196A11DB11D80933D0190933E01A093C2
:1055E0003F01B09340018091C7069091C806A091F9
:1055F000C906B091CA0649855A856B857C85840F9A
:10560000951FA61FB71F8093C7069093C806A09347
:10561000C906B093CA06181619061A061B0694F591
:105620002091BB0620612093BB064091CB06509190
:10563000CC066091CD067091CE06841B950BA60B0F
:10564000B70B8093C7069093C806A093C906B09382
:10565000CA068091410190914201A0914301B0910D
:10566000440127FF04C00197A109B10903C00196B5
:10567000A11DB11D8093410190934201A09343016C
:10568000B09344018091CF069091D006A091D106AD
:10569000B091D2060196A11DB11D8093CF069093C3
:1056A000D006A093D106B093D2064D855E856F8556
:1056B000788984179507A607B70708F00FC12091CE
:1056C0003701243039F50E94D128882309F40CC110
:1056D0004091DB065091DC066091DD067091DE069C
:1056E0008BA59CA5ADA5BEA584179507A607B707F2
:1056F00040F00E947C2980913801846080933801B9
:10570000F3C08A019B01081B190B2A0B3B0BC90133
:10571000B801DBC04FA558A969A97AA984179507D4
:10572000A607B707C8F50E94D128882309F4DCC072
:105730008BA59CA5ADA5BEA54091DB065091DC06CE
:105740006091DD067091DE06840F951FA61FB71FBE
:105750008093DB069093DC06A093DD06B093DE0613
:105760004FA958AD69AD7AAD84179507A607B7075D
:1057700040F04093DB065093DC066093DD067093A7
:10578000DE066091DB067091DC068091DD0690916B
:10579000DE060E940329A8C04BA95CA96DA97EA9B9
:1057A00084179507A607B70708F47EC084179507E6
:1057B000A607B70779F54091DB065091DC066091AA
:1057C000DD067091DE068FA998ADA9ADBAAD481778
:1057D00059076A077B0729F480E091E7A2E0B0E06F
:1057E00010C080E092EEA4E0B0E04091D706509166
:1057F000D8066091D9067091DA06841B950BA60B2A
:10580000B70B8093D7069093D806A093D906B09390
:10581000DA066AC00E94D128882309F465C0809105
:10582000DB069091DC06A091DD06B091DE0640918A
:10583000DF065091E0066091E1067091E20648179C
:1058400059076A077B0748F44BA55CA56DA57EA5A3
:10585000841B950BA60BB70B04C0B695A79597951F
:1058600087958093DB069093DC06A093DD06B093CA
:10587000DE068FA198A5A9A5BAA54091DB06509197
:10588000DC066091DD067091DE06481759076A074D
:105890007B0708F076CF8093DB069093DC06A0931D
:1058A000DD06B093DE066DCF6FA978AD89AD9AADF8
:1058B0000091DB061091DC062091DD063091DE06BA
:1058C000061717072807390779F06093DB067093EE
:1058D000DC068093DD069093DE065BCF1092BE0659
:1058E0001092BD060E94E1188091BB069091990626
:1058F00089278093BB061092BA06FF91EF91DF9142
:10590000CF91BF91AF919F918F917F916F915F9157
:105910004F913F912F911F910F910F900FBE0F90BC
:105920001F9018951F920F920FB60F9211248F930C
:105930009F939BB1809199068C71937E892B8BB933
:105940001092B1009F918F910F900FBE0F901F90FA
:10595000189584E2EFEBF6E0DF011D928A95E9F7F6
:1059600060E273E080E090E00E9403291092BE069E
:105970001092BD061092BA0608958AB18C6F8AB94A
:105980008BB1837090919906892B8BB9209AE1E8AD
:10599000F0E080818F7E8083808188608083E0E872
:1059A000F0E080818D7F808380818E7F8083808105
:1059B0008F73808380818F7C80831092B0001092DF
:1059C000B100E0E7F0E08081816080830E9460297F
:1059D0000C947C2980913701823029F483E08093F4
:1059E00037010C946029089580913701833029F4A0
:1059F00084E0809337011092450108950F931F931F
:105A0000E091BD06F091BE063097B9F165857685C7
:105A1000878590890091CF061091D0062091D106FC
:105A20003091D206601B710B820B930B0E943F1DBD
:105A30001092DB061092DC061092DD061092DE0654
:105A400060E070E0CB010E94032980E091E7A2E0D2
:105A5000B0E08093D7069093D806A093D906B09370
:105A6000DA061092CF061092D0061092D10610924C
:105A7000D20682E08093370102C0109237011F9155
:105A80000F91089508950E949C2D0E94422D0E941E
:105A9000D603C0E0D0E00E94D8032097E1F30E9433
:105AA0000000F9CF1F920F920FB60F9211242F937F
:105AB0003F938F939F93AF93BF938091E406909110
:105AC000E506A091E606B091E7063091E30623E0F3
:105AD000230F2D3720F40196A11DB11D05C026E826
